{
	"LOTERIA/Loteria.sol": {
		"Loteria": {
			"abi": [
				{
					"inputs": [],
					"stateMutability": "nonpayable",
					"type": "constructor"
				},
				{
					"anonymous": false,
					"inputs": [
						{
							"indexed": false,
							"internalType": "uint256",
							"name": "",
							"type": "uint256"
						},
						{
							"indexed": false,
							"internalType": "address",
							"name": "",
							"type": "address"
						}
					],
					"name": "ComprandoTokens",
					"type": "event"
				},
				{
					"anonymous": false,
					"inputs": [
						{
							"indexed": false,
							"internalType": "uint256",
							"name": "",
							"type": "uint256"
						}
					],
					"name": "boleto_comprado",
					"type": "event"
				},
				{
					"anonymous": false,
					"inputs": [
						{
							"indexed": false,
							"internalType": "uint256",
							"name": "",
							"type": "uint256"
						}
					],
					"name": "boleto_ganador",
					"type": "event"
				},
				{
					"inputs": [
						{
							"internalType": "uint256",
							"name": "_numTokens",
							"type": "uint256"
						}
					],
					"name": "ComprarTokens",
					"outputs": [],
					"stateMutability": "payable",
					"type": "function"
				},
				{
					"inputs": [
						{
							"internalType": "uint256",
							"name": "_numTokens",
							"type": "uint256"
						}
					],
					"name": "GenerarTokens",
					"outputs": [],
					"stateMutability": "nonpayable",
					"type": "function"
				},
				{
					"inputs": [],
					"name": "Mistokens",
					"outputs": [
						{
							"internalType": "uint256",
							"name": "",
							"type": "uint256"
						}
					],
					"stateMutability": "view",
					"type": "function"
				},
				{
					"inputs": [],
					"name": "Pozo",
					"outputs": [
						{
							"internalType": "uint256",
							"name": "",
							"type": "uint256"
						}
					],
					"stateMutability": "view",
					"type": "function"
				},
				{
					"inputs": [],
					"name": "PrecioBoleto",
					"outputs": [
						{
							"internalType": "uint256",
							"name": "",
							"type": "uint256"
						}
					],
					"stateMutability": "view",
					"type": "function"
				},
				{
					"inputs": [],
					"name": "TokensDisponibles",
					"outputs": [
						{
							"internalType": "uint256",
							"name": "",
							"type": "uint256"
						}
					],
					"stateMutability": "view",
					"type": "function"
				},
				{
					"inputs": [],
					"name": "contrato",
					"outputs": [
						{
							"internalType": "address",
							"name": "",
							"type": "address"
						}
					],
					"stateMutability": "view",
					"type": "function"
				},
				{
					"inputs": [],
					"name": "owner",
					"outputs": [
						{
							"internalType": "address",
							"name": "",
							"type": "address"
						}
					],
					"stateMutability": "view",
					"type": "function"
				}
			],
			"devdoc": {
				"kind": "dev",
				"methods": {},
				"version": 1
			},
			"evm": {
				"assembly": "    /* \"LOTERIA/Loteria.sol\":128:3324  contract Loteria{\r... */\n  mstore(0x40, 0x80)\n    /* \"LOTERIA/Loteria.sol\":362:367  10000 */\n  0x2710\n    /* \"LOTERIA/Loteria.sol\":332:367  uint private tokens_creados = 10000 */\n  0x03\n  sstore\n    /* \"LOTERIA/Loteria.sol\":2832:2833  5 */\n  0x05\n    /* \"LOTERIA/Loteria.sol\":2805:2833  uint public PrecioBoleto = 5 */\n  0x04\n  sstore\n    /* \"LOTERIA/Loteria.sol\":3109:3110  0 */\n  0x00\n    /* \"LOTERIA/Loteria.sol\":3092:3110  uint randNonce = 0 */\n  0x07\n  sstore\n    /* \"LOTERIA/Loteria.sol\":454:596  constructor() public {\r... */\n  callvalue\n  dup1\n  iszero\n  tag_1\n  jumpi\n  0x00\n  dup1\n  revert\ntag_1:\n  pop\n    /* \"LOTERIA/Loteria.sol\":509:523  tokens_creados */\n  sload(0x03)\n    /* \"LOTERIA/Loteria.sol\":494:524  new ERC20Basic(tokens_creados) */\n  mload(0x40)\n  tag_4\n  swap1\n  tag_5\n  jump\t// in\ntag_4:\n  tag_6\n  swap2\n  swap1\n  tag_7\n  jump\t// in\ntag_6:\n  mload(0x40)\n  dup1\n  swap2\n  sub\n  swap1\n  0x00\n  create\n  dup1\n  iszero\n  dup1\n  iszero\n  tag_8\n  jumpi\n  returndatasize\n  0x00\n  dup1\n  returndatacopy\n  revert(0x00, returndatasize)\ntag_8:\n  pop\n    /* \"LOTERIA/Loteria.sol\":486:491  token */\n  0x00\n  dup1\n    /* \"LOTERIA/Loteria.sol\":486:524  token = new ERC20Basic(tokens_creados) */\n  0x0100\n  exp\n  dup2\n  sload\n  dup2\n  0xffffffffffffffffffffffffffffffffffffffff\n  mul\n  not\n  and\n  swap1\n  dup4\n  0xffffffffffffffffffffffffffffffffffffffff\n  and\n  mul\n  or\n  swap1\n  sstore\n  pop\n    /* \"LOTERIA/Loteria.sol\":543:553  msg.sender */\n  caller\n    /* \"LOTERIA/Loteria.sol\":535:540  owner */\n  0x01\n  0x00\n    /* \"LOTERIA/Loteria.sol\":535:553  owner = msg.sender */\n  0x0100\n  exp\n  dup2\n  sload\n  dup2\n  0xffffffffffffffffffffffffffffffffffffffff\n  mul\n  not\n  and\n  swap1\n  dup4\n  0xffffffffffffffffffffffffffffffffffffffff\n  and\n  mul\n  or\n  swap1\n  sstore\n  pop\n    /* \"LOTERIA/Loteria.sol\":583:587  this */\n  address\n    /* \"LOTERIA/Loteria.sol\":564:572  contrato */\n  0x02\n  0x00\n    /* \"LOTERIA/Loteria.sol\":564:588  contrato = address(this) */\n  0x0100\n  exp\n  dup2\n  sload\n  dup2\n  0xffffffffffffffffffffffffffffffffffffffff\n  mul\n  not\n  and\n  swap1\n  dup4\n  0xffffffffffffffffffffffffffffffffffffffff\n  and\n  mul\n  or\n  swap1\n  sstore\n  pop\n    /* \"LOTERIA/Loteria.sol\":128:3324  contract Loteria{\r... */\n  jump(tag_9)\ntag_5:\n  dataSize(sub_1)\n  dup1\n  dataOffset(sub_1)\n  dup4\n  codecopy\n  add\n  swap1\n  jump\t// out\n    /* \"#utility.yul\":7:125   */\ntag_11:\n    /* \"#utility.yul\":94:118   */\n  tag_13\n    /* \"#utility.yul\":112:117   */\n  dup2\n    /* \"#utility.yul\":94:118   */\n  tag_14\n  jump\t// in\ntag_13:\n    /* \"#utility.yul\":89:92   */\n  dup3\n    /* \"#utility.yul\":82:119   */\n  mstore\n    /* \"#utility.yul\":7:125   */\n  pop\n  pop\n  jump\t// out\n    /* \"#utility.yul\":131:353   */\ntag_7:\n    /* \"#utility.yul\":224:228   */\n  0x00\n    /* \"#utility.yul\":262:264   */\n  0x20\n    /* \"#utility.yul\":251:260   */\n  dup3\n    /* \"#utility.yul\":247:265   */\n  add\n    /* \"#utility.yul\":239:265   */\n  swap1\n  pop\n    /* \"#utility.yul\":275:346   */\n  tag_16\n    /* \"#utility.yul\":343:344   */\n  0x00\n    /* \"#utility.yul\":332:341   */\n  dup4\n    /* \"#utility.yul\":328:345   */\n  add\n    /* \"#utility.yul\":319:325   */\n  dup5\n    /* \"#utility.yul\":275:346   */\n  tag_11\n  jump\t// in\ntag_16:\n    /* \"#utility.yul\":131:353   */\n  swap3\n  swap2\n  pop\n  pop\n  jump\t// out\n    /* \"#utility.yul\":359:436   */\ntag_14:\n    /* \"#utility.yul\":396:403   */\n  0x00\n    /* \"#utility.yul\":425:430   */\n  dup2\n    /* \"#utility.yul\":414:430   */\n  swap1\n  pop\n    /* \"#utility.yul\":359:436   */\n  swap2\n  swap1\n  pop\n  jump\t// out\n    /* \"LOTERIA/Loteria.sol\":128:3324  contract Loteria{\r... */\ntag_9:\n  dataSize(sub_0)\n  dup1\n  dataOffset(sub_0)\n  0x00\n  codecopy\n  0x00\n  return\nstop\n\nsub_0: assembly {\n        /* \"LOTERIA/Loteria.sol\":128:3324  contract Loteria{\r... */\n      mstore(0x40, 0x80)\n      jumpi(tag_1, lt(calldatasize, 0x04))\n      shr(0xe0, calldataload(0x00))\n      dup1\n      0x8da5cb5b\n      gt\n      tag_10\n      jumpi\n      dup1\n      0x8da5cb5b\n      eq\n      tag_6\n      jumpi\n      dup1\n      0xd1931ccf\n      eq\n      tag_7\n      jumpi\n      dup1\n      0xe1a01e67\n      eq\n      tag_8\n      jumpi\n      dup1\n      0xfd889ff5\n      eq\n      tag_9\n      jumpi\n      jump(tag_1)\n    tag_10:\n      dup1\n      0x2315c54a\n      eq\n      tag_2\n      jumpi\n      dup1\n      0x27909f27\n      eq\n      tag_3\n      jumpi\n      dup1\n      0x7c1b38bf\n      eq\n      tag_4\n      jumpi\n      dup1\n      0x8a8a3eaa\n      eq\n      tag_5\n      jumpi\n    tag_1:\n      0x00\n      dup1\n      revert\n        /* \"LOTERIA/Loteria.sol\":2576:2675  function Mistokens() public view returns(uint){\r... */\n    tag_2:\n      callvalue\n      dup1\n      iszero\n      tag_11\n      jumpi\n      0x00\n      dup1\n      revert\n    tag_11:\n      pop\n      tag_12\n      tag_13\n      jump\t// in\n    tag_12:\n      mload(0x40)\n      tag_14\n      swap2\n      swap1\n      tag_15\n      jump\t// in\n    tag_14:\n      mload(0x40)\n      dup1\n      swap2\n      sub\n      swap1\n      return\n        /* \"LOTERIA/Loteria.sol\":2805:2833  uint public PrecioBoleto = 5 */\n    tag_3:\n      callvalue\n      dup1\n      iszero\n      tag_16\n      jumpi\n      0x00\n      dup1\n      revert\n    tag_16:\n      pop\n      tag_17\n      tag_18\n      jump\t// in\n    tag_17:\n      mload(0x40)\n      tag_19\n      swap2\n      swap1\n      tag_15\n      jump\t// in\n    tag_19:\n      mload(0x40)\n      dup1\n      swap2\n      sub\n      swap1\n      return\n        /* \"LOTERIA/Loteria.sol\":932:1057  function GenerarTokens(uint _numTokens) public Unicamente(msg.sender){\r... */\n    tag_4:\n      callvalue\n      dup1\n      iszero\n      tag_20\n      jumpi\n      0x00\n      dup1\n      revert\n    tag_20:\n      pop\n      tag_21\n      0x04\n      dup1\n      calldatasize\n      sub\n      dup2\n      add\n      swap1\n      tag_22\n      swap2\n      swap1\n      tag_23\n      jump\t// in\n    tag_22:\n      tag_24\n      jump\t// in\n    tag_21:\n      stop\n        /* \"LOTERIA/Loteria.sol\":2439:2528  function Pozo() public view returns(uint){\r... */\n    tag_5:\n      callvalue\n      dup1\n      iszero\n      tag_25\n      jumpi\n      0x00\n      dup1\n      revert\n    tag_25:\n      pop\n      tag_26\n      tag_27\n      jump\t// in\n    tag_26:\n      mload(0x40)\n      tag_28\n      swap2\n      swap1\n      tag_15\n      jump\t// in\n    tag_28:\n      mload(0x40)\n      dup1\n      swap2\n      sub\n      swap1\n      return\n        /* \"LOTERIA/Loteria.sol\":241:261  address public owner */\n    tag_6:\n      callvalue\n      dup1\n      iszero\n      tag_29\n      jumpi\n      0x00\n      dup1\n      revert\n    tag_29:\n      pop\n      tag_30\n      tag_31\n      jump\t// in\n    tag_30:\n      mload(0x40)\n      tag_32\n      swap2\n      swap1\n      tag_33\n      jump\t// in\n    tag_32:\n      mload(0x40)\n      dup1\n      swap2\n      sub\n      swap1\n      return\n        /* \"LOTERIA/Loteria.sol\":1275:2209  function ComprarTokens(uint _numTokens) public payable{\r... */\n    tag_7:\n      tag_34\n      0x04\n      dup1\n      calldatasize\n      sub\n      dup2\n      add\n      swap1\n      tag_35\n      swap2\n      swap1\n      tag_23\n      jump\t// in\n    tag_35:\n      tag_36\n      jump\t// in\n    tag_34:\n      stop\n        /* \"LOTERIA/Loteria.sol\":268:291  address public contrato */\n    tag_8:\n      callvalue\n      dup1\n      iszero\n      tag_37\n      jumpi\n      0x00\n      dup1\n      revert\n    tag_37:\n      pop\n      tag_38\n      tag_39\n      jump\t// in\n    tag_38:\n      mload(0x40)\n      tag_40\n      swap2\n      swap1\n      tag_33\n      jump\t// in\n    tag_40:\n      mload(0x40)\n      dup1\n      swap2\n      sub\n      swap1\n      return\n        /* \"LOTERIA/Loteria.sol\":2268:2373  function TokensDisponibles() public view returns(uint){\r... */\n    tag_9:\n      callvalue\n      dup1\n      iszero\n      tag_41\n      jumpi\n      0x00\n      dup1\n      revert\n    tag_41:\n      pop\n      tag_42\n      tag_43\n      jump\t// in\n    tag_42:\n      mload(0x40)\n      tag_44\n      swap2\n      swap1\n      tag_15\n      jump\t// in\n    tag_44:\n      mload(0x40)\n      dup1\n      swap2\n      sub\n      swap1\n      return\n        /* \"LOTERIA/Loteria.sol\":2576:2675  function Mistokens() public view returns(uint){\r... */\n    tag_13:\n        /* \"LOTERIA/Loteria.sol\":2617:2621  uint */\n      0x00\n        /* \"LOTERIA/Loteria.sol\":2640:2645  token */\n      dup1\n      0x00\n      swap1\n      sload\n      swap1\n      0x0100\n      exp\n      swap1\n      div\n      0xffffffffffffffffffffffffffffffffffffffff\n      and\n        /* \"LOTERIA/Loteria.sol\":2640:2655  token.balanceOf */\n      0xffffffffffffffffffffffffffffffffffffffff\n      and\n      0x70a08231\n        /* \"LOTERIA/Loteria.sol\":2656:2666  msg.sender */\n      caller\n        /* \"LOTERIA/Loteria.sol\":2640:2667  token.balanceOf(msg.sender) */\n      mload(0x40)\n      dup3\n      0xffffffff\n      and\n      0xe0\n      shl\n      dup2\n      mstore\n      0x04\n      add\n      tag_46\n      swap2\n      swap1\n      tag_33\n      jump\t// in\n    tag_46:\n      0x20\n      mload(0x40)\n      dup1\n      dup4\n      sub\n      dup2\n      dup7\n      dup1\n      extcodesize\n      iszero\n      dup1\n      iszero\n      tag_47\n      jumpi\n      0x00\n      dup1\n      revert\n    tag_47:\n      pop\n      gas\n      staticcall\n      iszero\n      dup1\n      iszero\n      tag_49\n      jumpi\n      returndatasize\n      0x00\n      dup1\n      returndatacopy\n      revert(0x00, returndatasize)\n    tag_49:\n      pop\n      pop\n      pop\n      pop\n      mload(0x40)\n      returndatasize\n      not(0x1f)\n      0x1f\n      dup3\n      add\n      and\n      dup3\n      add\n      dup1\n      0x40\n      mstore\n      pop\n      dup2\n      add\n      swap1\n      tag_50\n      swap2\n      swap1\n      tag_51\n      jump\t// in\n    tag_50:\n        /* \"LOTERIA/Loteria.sol\":2633:2667  return token.balanceOf(msg.sender) */\n      swap1\n      pop\n        /* \"LOTERIA/Loteria.sol\":2576:2675  function Mistokens() public view returns(uint){\r... */\n      swap1\n      jump\t// out\n        /* \"LOTERIA/Loteria.sol\":2805:2833  uint public PrecioBoleto = 5 */\n    tag_18:\n      sload(0x04)\n      dup2\n      jump\t// out\n        /* \"LOTERIA/Loteria.sol\":932:1057  function GenerarTokens(uint _numTokens) public Unicamente(msg.sender){\r... */\n    tag_24:\n        /* \"LOTERIA/Loteria.sol\":990:1000  msg.sender */\n      caller\n        /* \"LOTERIA/Loteria.sol\":1137:1142  owner */\n      0x01\n      0x00\n      swap1\n      sload\n      swap1\n      0x0100\n      exp\n      swap1\n      div\n      0xffffffffffffffffffffffffffffffffffffffff\n      and\n        /* \"LOTERIA/Loteria.sol\":1123:1142  _direccion == owner */\n      0xffffffffffffffffffffffffffffffffffffffff\n      and\n        /* \"LOTERIA/Loteria.sol\":1123:1133  _direccion */\n      dup2\n        /* \"LOTERIA/Loteria.sol\":1123:1142  _direccion == owner */\n      0xffffffffffffffffffffffffffffffffffffffff\n      and\n      eq\n        /* \"LOTERIA/Loteria.sol\":1115:1193  require(_direccion == owner, \"No tienes permisos para ejecutar esta funcion.\") */\n      tag_53\n      jumpi\n      mload(0x40)\n      0x08c379a000000000000000000000000000000000000000000000000000000000\n      dup2\n      mstore\n      0x04\n      add\n      tag_54\n      swap1\n      tag_55\n      jump\t// in\n    tag_54:\n      mload(0x40)\n      dup1\n      swap2\n      sub\n      swap1\n      revert\n    tag_53:\n        /* \"LOTERIA/Loteria.sol\":1012:1017  token */\n      0x00\n      dup1\n      sload\n      swap1\n      0x0100\n      exp\n      swap1\n      div\n      0xffffffffffffffffffffffffffffffffffffffff\n      and\n        /* \"LOTERIA/Loteria.sol\":1012:1037  token.increaseTotalSupply */\n      0xffffffffffffffffffffffffffffffffffffffff\n      and\n      0x1d43cc98\n        /* \"LOTERIA/Loteria.sol\":1038:1048  _numTokens */\n      dup4\n        /* \"LOTERIA/Loteria.sol\":1012:1049  token.increaseTotalSupply(_numTokens) */\n      mload(0x40)\n      dup3\n      0xffffffff\n      and\n      0xe0\n      shl\n      dup2\n      mstore\n      0x04\n      add\n      tag_57\n      swap2\n      swap1\n      tag_15\n      jump\t// in\n    tag_57:\n      0x00\n      mload(0x40)\n      dup1\n      dup4\n      sub\n      dup2\n      0x00\n      dup8\n      dup1\n      extcodesize\n      iszero\n      dup1\n      iszero\n      tag_58\n      jumpi\n      0x00\n      dup1\n      revert\n    tag_58:\n      pop\n      gas\n      call\n      iszero\n      dup1\n      iszero\n      tag_60\n      jumpi\n      returndatasize\n      0x00\n      dup1\n      returndatacopy\n      revert(0x00, returndatasize)\n    tag_60:\n      pop\n      pop\n      pop\n      pop\n        /* \"LOTERIA/Loteria.sol\":932:1057  function GenerarTokens(uint _numTokens) public Unicamente(msg.sender){\r... */\n      pop\n      pop\n      jump\t// out\n        /* \"LOTERIA/Loteria.sol\":2439:2528  function Pozo() public view returns(uint){\r... */\n    tag_27:\n        /* \"LOTERIA/Loteria.sol\":2475:2479  uint */\n      0x00\n        /* \"LOTERIA/Loteria.sol\":2498:2503  token */\n      dup1\n      0x00\n      swap1\n      sload\n      swap1\n      0x0100\n      exp\n      swap1\n      div\n      0xffffffffffffffffffffffffffffffffffffffff\n      and\n        /* \"LOTERIA/Loteria.sol\":2498:2513  token.balanceOf */\n      0xffffffffffffffffffffffffffffffffffffffff\n      and\n      0x70a08231\n        /* \"LOTERIA/Loteria.sol\":2514:2519  owner */\n      0x01\n      0x00\n      swap1\n      sload\n      swap1\n      0x0100\n      exp\n      swap1\n      div\n      0xffffffffffffffffffffffffffffffffffffffff\n      and\n        /* \"LOTERIA/Loteria.sol\":2498:2520  token.balanceOf(owner) */\n      mload(0x40)\n      dup3\n      0xffffffff\n      and\n      0xe0\n      shl\n      dup2\n      mstore\n      0x04\n      add\n      tag_62\n      swap2\n      swap1\n      tag_33\n      jump\t// in\n    tag_62:\n      0x20\n      mload(0x40)\n      dup1\n      dup4\n      sub\n      dup2\n      dup7\n      dup1\n      extcodesize\n      iszero\n      dup1\n      iszero\n      tag_63\n      jumpi\n      0x00\n      dup1\n      revert\n    tag_63:\n      pop\n      gas\n      staticcall\n      iszero\n      dup1\n      iszero\n      tag_65\n      jumpi\n      returndatasize\n      0x00\n      dup1\n      returndatacopy\n      revert(0x00, returndatasize)\n    tag_65:\n      pop\n      pop\n      pop\n      pop\n      mload(0x40)\n      returndatasize\n      not(0x1f)\n      0x1f\n      dup3\n      add\n      and\n      dup3\n      add\n      dup1\n      0x40\n      mstore\n      pop\n      dup2\n      add\n      swap1\n      tag_66\n      swap2\n      swap1\n      tag_51\n      jump\t// in\n    tag_66:\n        /* \"LOTERIA/Loteria.sol\":2491:2520  return token.balanceOf(owner) */\n      swap1\n      pop\n        /* \"LOTERIA/Loteria.sol\":2439:2528  function Pozo() public view returns(uint){\r... */\n      swap1\n      jump\t// out\n        /* \"LOTERIA/Loteria.sol\":241:261  address public owner */\n    tag_31:\n      0x01\n      0x00\n      swap1\n      sload\n      swap1\n      0x0100\n      exp\n      swap1\n      div\n      0xffffffffffffffffffffffffffffffffffffffff\n      and\n      dup2\n      jump\t// out\n        /* \"LOTERIA/Loteria.sol\":1275:2209  function ComprarTokens(uint _numTokens) public payable{\r... */\n    tag_36:\n        /* \"LOTERIA/Loteria.sol\":1383:1393  uint costo */\n      0x00\n        /* \"LOTERIA/Loteria.sol\":1396:1419  PrecioToken(_numTokens) */\n      tag_68\n        /* \"LOTERIA/Loteria.sol\":1408:1418  _numTokens */\n      dup3\n        /* \"LOTERIA/Loteria.sol\":1396:1407  PrecioToken */\n      tag_69\n        /* \"LOTERIA/Loteria.sol\":1396:1419  PrecioToken(_numTokens) */\n      jump\t// in\n    tag_68:\n        /* \"LOTERIA/Loteria.sol\":1383:1419  uint costo = PrecioToken(_numTokens) */\n      swap1\n      pop\n        /* \"LOTERIA/Loteria.sol\":1525:1530  costo */\n      dup1\n        /* \"LOTERIA/Loteria.sol\":1512:1521  msg.value */\n      callvalue\n        /* \"LOTERIA/Loteria.sol\":1512:1530  msg.value >= costo */\n      lt\n      iszero\n        /* \"LOTERIA/Loteria.sol\":1504:1574  require(msg.value >= costo,\"Compra menos Tokens o paga con mas Ether\") */\n      tag_70\n      jumpi\n      mload(0x40)\n      0x08c379a000000000000000000000000000000000000000000000000000000000\n      dup2\n      mstore\n      0x04\n      add\n      tag_71\n      swap1\n      tag_72\n      jump\t// in\n    tag_71:\n      mload(0x40)\n      dup1\n      swap2\n      sub\n      swap1\n      revert\n    tag_70:\n        /* \"LOTERIA/Loteria.sol\":1615:1631  uint returnValue */\n      0x00\n        /* \"LOTERIA/Loteria.sol\":1646:1651  costo */\n      dup2\n        /* \"LOTERIA/Loteria.sol\":1634:1643  msg.value */\n      callvalue\n        /* \"LOTERIA/Loteria.sol\":1634:1651  msg.value - costo */\n      tag_73\n      swap2\n      swap1\n      tag_74\n      jump\t// in\n    tag_73:\n        /* \"LOTERIA/Loteria.sol\":1615:1651  uint returnValue = msg.value - costo */\n      swap1\n      pop\n        /* \"LOTERIA/Loteria.sol\":1712:1722  msg.sender */\n      caller\n        /* \"LOTERIA/Loteria.sol\":1704:1732  payable(msg.sender).transfer */\n      0xffffffffffffffffffffffffffffffffffffffff\n      and\n        /* \"LOTERIA/Loteria.sol\":1704:1745  payable(msg.sender).transfer(returnValue) */\n      0x08fc\n        /* \"LOTERIA/Loteria.sol\":1733:1744  returnValue */\n      dup3\n        /* \"LOTERIA/Loteria.sol\":1704:1745  payable(msg.sender).transfer(returnValue) */\n      swap1\n      dup2\n      iszero\n      mul\n      swap1\n      mload(0x40)\n      0x00\n      mload(0x40)\n      dup1\n      dup4\n      sub\n      dup2\n      dup6\n      dup9\n      dup9\n      call\n      swap4\n      pop\n      pop\n      pop\n      pop\n      iszero\n      dup1\n      iszero\n      tag_76\n      jumpi\n      returndatasize\n      0x00\n      dup1\n      returndatacopy\n      revert(0x00, returndatasize)\n    tag_76:\n      pop\n        /* \"LOTERIA/Loteria.sol\":1809:1821  uint balance */\n      0x00\n        /* \"LOTERIA/Loteria.sol\":1824:1843  TokensDisponibles() */\n      tag_77\n        /* \"LOTERIA/Loteria.sol\":1824:1841  TokensDisponibles */\n      tag_43\n        /* \"LOTERIA/Loteria.sol\":1824:1843  TokensDisponibles() */\n      jump\t// in\n    tag_77:\n        /* \"LOTERIA/Loteria.sol\":1809:1843  uint balance = TokensDisponibles() */\n      swap1\n      pop\n        /* \"LOTERIA/Loteria.sol\":1957:1964  balance */\n      dup1\n        /* \"LOTERIA/Loteria.sol\":1943:1953  _numTokens */\n      dup5\n        /* \"LOTERIA/Loteria.sol\":1943:1964  _numTokens <= balance */\n      gt\n      iszero\n        /* \"LOTERIA/Loteria.sol\":1935:2004  require(_numTokens <= balance,\"Compra un numero de Tokens adecuado.\") */\n      tag_78\n      jumpi\n      mload(0x40)\n      0x08c379a000000000000000000000000000000000000000000000000000000000\n      dup2\n      mstore\n      0x04\n      add\n      tag_79\n      swap1\n      tag_80\n      jump\t// in\n    tag_79:\n      mload(0x40)\n      dup1\n      swap2\n      sub\n      swap1\n      revert\n    tag_78:\n        /* \"LOTERIA/Loteria.sol\":2063:2068  token */\n      0x00\n      dup1\n      sload\n      swap1\n      0x0100\n      exp\n      swap1\n      div\n      0xffffffffffffffffffffffffffffffffffffffff\n      and\n        /* \"LOTERIA/Loteria.sol\":2063:2077  token.transfer */\n      0xffffffffffffffffffffffffffffffffffffffff\n      and\n      0xa9059cbb\n        /* \"LOTERIA/Loteria.sol\":2078:2088  msg.sender */\n      caller\n        /* \"LOTERIA/Loteria.sol\":2090:2100  _numTokens */\n      dup7\n        /* \"LOTERIA/Loteria.sol\":2063:2101  token.transfer(msg.sender, _numTokens) */\n      mload(0x40)\n      dup4\n      0xffffffff\n      and\n      0xe0\n      shl\n      dup2\n      mstore\n      0x04\n      add\n      tag_81\n      swap3\n      swap2\n      swap1\n      tag_82\n      jump\t// in\n    tag_81:\n      0x20\n      mload(0x40)\n      dup1\n      dup4\n      sub\n      dup2\n      0x00\n      dup8\n      dup1\n      extcodesize\n      iszero\n      dup1\n      iszero\n      tag_83\n      jumpi\n      0x00\n      dup1\n      revert\n    tag_83:\n      pop\n      gas\n      call\n      iszero\n      dup1\n      iszero\n      tag_85\n      jumpi\n      returndatasize\n      0x00\n      dup1\n      returndatacopy\n      revert(0x00, returndatasize)\n    tag_85:\n      pop\n      pop\n      pop\n      pop\n      mload(0x40)\n      returndatasize\n      not(0x1f)\n      0x1f\n      dup3\n      add\n      and\n      dup3\n      add\n      dup1\n      0x40\n      mstore\n      pop\n      dup2\n      add\n      swap1\n      tag_86\n      swap2\n      swap1\n      tag_87\n      jump\t// in\n    tag_86:\n      pop\n        /* \"LOTERIA/Loteria.sol\":2162:2201  ComprandoTokens(_numTokens, msg.sender) */\n      0xc5d46be962adb867acf29dce93ab611e9064bffee951e4db9e52c693f73f4c38\n        /* \"LOTERIA/Loteria.sol\":2178:2188  _numTokens */\n      dup5\n        /* \"LOTERIA/Loteria.sol\":2190:2200  msg.sender */\n      caller\n        /* \"LOTERIA/Loteria.sol\":2162:2201  ComprandoTokens(_numTokens, msg.sender) */\n      mload(0x40)\n      tag_88\n      swap3\n      swap2\n      swap1\n      tag_89\n      jump\t// in\n    tag_88:\n      mload(0x40)\n      dup1\n      swap2\n      sub\n      swap1\n      log1\n        /* \"LOTERIA/Loteria.sol\":1329:2209  {\r... */\n      pop\n      pop\n      pop\n        /* \"LOTERIA/Loteria.sol\":1275:2209  function ComprarTokens(uint _numTokens) public payable{\r... */\n      pop\n      jump\t// out\n        /* \"LOTERIA/Loteria.sol\":268:291  address public contrato */\n    tag_39:\n      0x02\n      0x00\n      swap1\n      sload\n      swap1\n      0x0100\n      exp\n      swap1\n      div\n      0xffffffffffffffffffffffffffffffffffffffff\n      and\n      dup2\n      jump\t// out\n        /* \"LOTERIA/Loteria.sol\":2268:2373  function TokensDisponibles() public view returns(uint){\r... */\n    tag_43:\n        /* \"LOTERIA/Loteria.sol\":2317:2321  uint */\n      0x00\n        /* \"LOTERIA/Loteria.sol\":2340:2345  token */\n      dup1\n      0x00\n      swap1\n      sload\n      swap1\n      0x0100\n      exp\n      swap1\n      div\n      0xffffffffffffffffffffffffffffffffffffffff\n      and\n        /* \"LOTERIA/Loteria.sol\":2340:2355  token.balanceOf */\n      0xffffffffffffffffffffffffffffffffffffffff\n      and\n      0x70a08231\n        /* \"LOTERIA/Loteria.sol\":2356:2364  contrato */\n      0x02\n      0x00\n      swap1\n      sload\n      swap1\n      0x0100\n      exp\n      swap1\n      div\n      0xffffffffffffffffffffffffffffffffffffffff\n      and\n        /* \"LOTERIA/Loteria.sol\":2340:2365  token.balanceOf(contrato) */\n      mload(0x40)\n      dup3\n      0xffffffff\n      and\n      0xe0\n      shl\n      dup2\n      mstore\n      0x04\n      add\n      tag_91\n      swap2\n      swap1\n      tag_33\n      jump\t// in\n    tag_91:\n      0x20\n      mload(0x40)\n      dup1\n      dup4\n      sub\n      dup2\n      dup7\n      dup1\n      extcodesize\n      iszero\n      dup1\n      iszero\n      tag_92\n      jumpi\n      0x00\n      dup1\n      revert\n    tag_92:\n      pop\n      gas\n      staticcall\n      iszero\n      dup1\n      iszero\n      tag_94\n      jumpi\n      returndatasize\n      0x00\n      dup1\n      returndatacopy\n      revert(0x00, returndatasize)\n    tag_94:\n      pop\n      pop\n      pop\n      pop\n      mload(0x40)\n      returndatasize\n      not(0x1f)\n      0x1f\n      dup3\n      add\n      and\n      dup3\n      add\n      dup1\n      0x40\n      mstore\n      pop\n      dup2\n      add\n      swap1\n      tag_95\n      swap2\n      swap1\n      tag_51\n      jump\t// in\n    tag_95:\n        /* \"LOTERIA/Loteria.sol\":2333:2365  return token.balanceOf(contrato) */\n      swap1\n      pop\n        /* \"LOTERIA/Loteria.sol\":2268:2373  function TokensDisponibles() public view returns(uint){\r... */\n      swap1\n      jump\t// out\n        /* \"LOTERIA/Loteria.sol\":754:869  function PrecioToken(uint _numTokens) internal pure returns(uint){\r... */\n    tag_69:\n        /* \"LOTERIA/Loteria.sol\":814:818  uint */\n      0x00\n        /* \"LOTERIA/Loteria.sol\":849:860  0.001 ether */\n      0x038d7ea4c68000\n        /* \"LOTERIA/Loteria.sol\":837:847  _numTokens */\n      dup3\n        /* \"LOTERIA/Loteria.sol\":837:861  _numTokens*(0.001 ether) */\n      tag_97\n      swap2\n      swap1\n      tag_98\n      jump\t// in\n    tag_97:\n        /* \"LOTERIA/Loteria.sol\":830:861  return _numTokens*(0.001 ether) */\n      swap1\n      pop\n        /* \"LOTERIA/Loteria.sol\":754:869  function PrecioToken(uint _numTokens) internal pure returns(uint){\r... */\n      swap2\n      swap1\n      pop\n      jump\t// out\n        /* \"#utility.yul\":7:144   */\n    tag_100:\n        /* \"#utility.yul\":61:66   */\n      0x00\n        /* \"#utility.yul\":92:98   */\n      dup2\n        /* \"#utility.yul\":86:99   */\n      mload\n        /* \"#utility.yul\":77:99   */\n      swap1\n      pop\n        /* \"#utility.yul\":108:138   */\n      tag_102\n        /* \"#utility.yul\":132:137   */\n      dup2\n        /* \"#utility.yul\":108:138   */\n      tag_103\n      jump\t// in\n    tag_102:\n        /* \"#utility.yul\":7:144   */\n      swap3\n      swap2\n      pop\n      pop\n      jump\t// out\n        /* \"#utility.yul\":150:289   */\n    tag_104:\n        /* \"#utility.yul\":196:201   */\n      0x00\n        /* \"#utility.yul\":234:240   */\n      dup2\n        /* \"#utility.yul\":221:241   */\n      calldataload\n        /* \"#utility.yul\":212:241   */\n      swap1\n      pop\n        /* \"#utility.yul\":250:283   */\n      tag_106\n        /* \"#utility.yul\":277:282   */\n      dup2\n        /* \"#utility.yul\":250:283   */\n      tag_107\n      jump\t// in\n    tag_106:\n        /* \"#utility.yul\":150:289   */\n      swap3\n      swap2\n      pop\n      pop\n      jump\t// out\n        /* \"#utility.yul\":295:438   */\n    tag_108:\n        /* \"#utility.yul\":352:357   */\n      0x00\n        /* \"#utility.yul\":383:389   */\n      dup2\n        /* \"#utility.yul\":377:390   */\n      mload\n        /* \"#utility.yul\":368:390   */\n      swap1\n      pop\n        /* \"#utility.yul\":399:432   */\n      tag_110\n        /* \"#utility.yul\":426:431   */\n      dup2\n        /* \"#utility.yul\":399:432   */\n      tag_107\n      jump\t// in\n    tag_110:\n        /* \"#utility.yul\":295:438   */\n      swap3\n      swap2\n      pop\n      pop\n      jump\t// out\n        /* \"#utility.yul\":444:789   */\n    tag_87:\n        /* \"#utility.yul\":511:517   */\n      0x00\n        /* \"#utility.yul\":560:562   */\n      0x20\n        /* \"#utility.yul\":548:557   */\n      dup3\n        /* \"#utility.yul\":539:546   */\n      dup5\n        /* \"#utility.yul\":535:558   */\n      sub\n        /* \"#utility.yul\":531:563   */\n      slt\n        /* \"#utility.yul\":528:647   */\n      iszero\n      tag_112\n      jumpi\n        /* \"#utility.yul\":566:645   */\n      tag_113\n      tag_114\n      jump\t// in\n    tag_113:\n        /* \"#utility.yul\":528:647   */\n    tag_112:\n        /* \"#utility.yul\":686:687   */\n      0x00\n        /* \"#utility.yul\":711:772   */\n      tag_115\n        /* \"#utility.yul\":764:771   */\n      dup5\n        /* \"#utility.yul\":755:761   */\n      dup3\n        /* \"#utility.yul\":744:753   */\n      dup6\n        /* \"#utility.yul\":740:762   */\n      add\n        /* \"#utility.yul\":711:772   */\n      tag_100\n      jump\t// in\n    tag_115:\n        /* \"#utility.yul\":701:772   */\n      swap2\n      pop\n        /* \"#utility.yul\":657:782   */\n      pop\n        /* \"#utility.yul\":444:789   */\n      swap3\n      swap2\n      pop\n      pop\n      jump\t// out\n        /* \"#utility.yul\":795:1124   */\n    tag_23:\n        /* \"#utility.yul\":854:860   */\n      0x00\n        /* \"#utility.yul\":903:905   */\n      0x20\n        /* \"#utility.yul\":891:900   */\n      dup3\n        /* \"#utility.yul\":882:889   */\n      dup5\n        /* \"#utility.yul\":878:901   */\n      sub\n        /* \"#utility.yul\":874:906   */\n      slt\n        /* \"#utility.yul\":871:990   */\n      iszero\n      tag_117\n      jumpi\n        /* \"#utility.yul\":909:988   */\n      tag_118\n      tag_114\n      jump\t// in\n    tag_118:\n        /* \"#utility.yul\":871:990   */\n    tag_117:\n        /* \"#utility.yul\":1029:1030   */\n      0x00\n        /* \"#utility.yul\":1054:1107   */\n      tag_119\n        /* \"#utility.yul\":1099:1106   */\n      dup5\n        /* \"#utility.yul\":1090:1096   */\n      dup3\n        /* \"#utility.yul\":1079:1088   */\n      dup6\n        /* \"#utility.yul\":1075:1097   */\n      add\n        /* \"#utility.yul\":1054:1107   */\n      tag_104\n      jump\t// in\n    tag_119:\n        /* \"#utility.yul\":1044:1107   */\n      swap2\n      pop\n        /* \"#utility.yul\":1000:1117   */\n      pop\n        /* \"#utility.yul\":795:1124   */\n      swap3\n      swap2\n      pop\n      pop\n      jump\t// out\n        /* \"#utility.yul\":1130:1481   */\n    tag_51:\n        /* \"#utility.yul\":1200:1206   */\n      0x00\n        /* \"#utility.yul\":1249:1251   */\n      0x20\n        /* \"#utility.yul\":1237:1246   */\n      dup3\n        /* \"#utility.yul\":1228:1235   */\n      dup5\n        /* \"#utility.yul\":1224:1247   */\n      sub\n        /* \"#utility.yul\":1220:1252   */\n      slt\n        /* \"#utility.yul\":1217:1336   */\n      iszero\n      tag_121\n      jumpi\n        /* \"#utility.yul\":1255:1334   */\n      tag_122\n      tag_114\n      jump\t// in\n    tag_122:\n        /* \"#utility.yul\":1217:1336   */\n    tag_121:\n        /* \"#utility.yul\":1375:1376   */\n      0x00\n        /* \"#utility.yul\":1400:1464   */\n      tag_123\n        /* \"#utility.yul\":1456:1463   */\n      dup5\n        /* \"#utility.yul\":1447:1453   */\n      dup3\n        /* \"#utility.yul\":1436:1445   */\n      dup6\n        /* \"#utility.yul\":1432:1454   */\n      add\n        /* \"#utility.yul\":1400:1464   */\n      tag_108\n      jump\t// in\n    tag_123:\n        /* \"#utility.yul\":1390:1464   */\n      swap2\n      pop\n        /* \"#utility.yul\":1346:1474   */\n      pop\n        /* \"#utility.yul\":1130:1481   */\n      swap3\n      swap2\n      pop\n      pop\n      jump\t// out\n        /* \"#utility.yul\":1487:1605   */\n    tag_124:\n        /* \"#utility.yul\":1574:1598   */\n      tag_126\n        /* \"#utility.yul\":1592:1597   */\n      dup2\n        /* \"#utility.yul\":1574:1598   */\n      tag_127\n      jump\t// in\n    tag_126:\n        /* \"#utility.yul\":1569:1572   */\n      dup3\n        /* \"#utility.yul\":1562:1599   */\n      mstore\n        /* \"#utility.yul\":1487:1605   */\n      pop\n      pop\n      jump\t// out\n        /* \"#utility.yul\":1611:1977   */\n    tag_128:\n        /* \"#utility.yul\":1753:1756   */\n      0x00\n        /* \"#utility.yul\":1774:1841   */\n      tag_130\n        /* \"#utility.yul\":1838:1840   */\n      0x24\n        /* \"#utility.yul\":1833:1836   */\n      dup4\n        /* \"#utility.yul\":1774:1841   */\n      tag_131\n      jump\t// in\n    tag_130:\n        /* \"#utility.yul\":1767:1841   */\n      swap2\n      pop\n        /* \"#utility.yul\":1850:1943   */\n      tag_132\n        /* \"#utility.yul\":1939:1942   */\n      dup3\n        /* \"#utility.yul\":1850:1943   */\n      tag_133\n      jump\t// in\n    tag_132:\n        /* \"#utility.yul\":1968:1970   */\n      0x40\n        /* \"#utility.yul\":1963:1966   */\n      dup3\n        /* \"#utility.yul\":1959:1971   */\n      add\n        /* \"#utility.yul\":1952:1971   */\n      swap1\n      pop\n        /* \"#utility.yul\":1611:1977   */\n      swap2\n      swap1\n      pop\n      jump\t// out\n        /* \"#utility.yul\":1983:2349   */\n    tag_134:\n        /* \"#utility.yul\":2125:2128   */\n      0x00\n        /* \"#utility.yul\":2146:2213   */\n      tag_136\n        /* \"#utility.yul\":2210:2212   */\n      0x2e\n        /* \"#utility.yul\":2205:2208   */\n      dup4\n        /* \"#utility.yul\":2146:2213   */\n      tag_131\n      jump\t// in\n    tag_136:\n        /* \"#utility.yul\":2139:2213   */\n      swap2\n      pop\n        /* \"#utility.yul\":2222:2315   */\n      tag_137\n        /* \"#utility.yul\":2311:2314   */\n      dup3\n        /* \"#utility.yul\":2222:2315   */\n      tag_138\n      jump\t// in\n    tag_137:\n        /* \"#utility.yul\":2340:2342   */\n      0x40\n        /* \"#utility.yul\":2335:2338   */\n      dup3\n        /* \"#utility.yul\":2331:2343   */\n      add\n        /* \"#utility.yul\":2324:2343   */\n      swap1\n      pop\n        /* \"#utility.yul\":1983:2349   */\n      swap2\n      swap1\n      pop\n      jump\t// out\n        /* \"#utility.yul\":2355:2721   */\n    tag_139:\n        /* \"#utility.yul\":2497:2500   */\n      0x00\n        /* \"#utility.yul\":2518:2585   */\n      tag_141\n        /* \"#utility.yul\":2582:2584   */\n      0x28\n        /* \"#utility.yul\":2577:2580   */\n      dup4\n        /* \"#utility.yul\":2518:2585   */\n      tag_131\n      jump\t// in\n    tag_141:\n        /* \"#utility.yul\":2511:2585   */\n      swap2\n      pop\n        /* \"#utility.yul\":2594:2687   */\n      tag_142\n        /* \"#utility.yul\":2683:2686   */\n      dup3\n        /* \"#utility.yul\":2594:2687   */\n      tag_143\n      jump\t// in\n    tag_142:\n        /* \"#utility.yul\":2712:2714   */\n      0x40\n        /* \"#utility.yul\":2707:2710   */\n      dup3\n        /* \"#utility.yul\":2703:2715   */\n      add\n        /* \"#utility.yul\":2696:2715   */\n      swap1\n      pop\n        /* \"#utility.yul\":2355:2721   */\n      swap2\n      swap1\n      pop\n      jump\t// out\n        /* \"#utility.yul\":2727:2845   */\n    tag_144:\n        /* \"#utility.yul\":2814:2838   */\n      tag_146\n        /* \"#utility.yul\":2832:2837   */\n      dup2\n        /* \"#utility.yul\":2814:2838   */\n      tag_147\n      jump\t// in\n    tag_146:\n        /* \"#utility.yul\":2809:2812   */\n      dup3\n        /* \"#utility.yul\":2802:2839   */\n      mstore\n        /* \"#utility.yul\":2727:2845   */\n      pop\n      pop\n      jump\t// out\n        /* \"#utility.yul\":2851:3073   */\n    tag_33:\n        /* \"#utility.yul\":2944:2948   */\n      0x00\n        /* \"#utility.yul\":2982:2984   */\n      0x20\n        /* \"#utility.yul\":2971:2980   */\n      dup3\n        /* \"#utility.yul\":2967:2985   */\n      add\n        /* \"#utility.yul\":2959:2985   */\n      swap1\n      pop\n        /* \"#utility.yul\":2995:3066   */\n      tag_149\n        /* \"#utility.yul\":3063:3064   */\n      0x00\n        /* \"#utility.yul\":3052:3061   */\n      dup4\n        /* \"#utility.yul\":3048:3065   */\n      add\n        /* \"#utility.yul\":3039:3045   */\n      dup5\n        /* \"#utility.yul\":2995:3066   */\n      tag_124\n      jump\t// in\n    tag_149:\n        /* \"#utility.yul\":2851:3073   */\n      swap3\n      swap2\n      pop\n      pop\n      jump\t// out\n        /* \"#utility.yul\":3079:3411   */\n    tag_82:\n        /* \"#utility.yul\":3200:3204   */\n      0x00\n        /* \"#utility.yul\":3238:3240   */\n      0x40\n        /* \"#utility.yul\":3227:3236   */\n      dup3\n        /* \"#utility.yul\":3223:3241   */\n      add\n        /* \"#utility.yul\":3215:3241   */\n      swap1\n      pop\n        /* \"#utility.yul\":3251:3322   */\n      tag_151\n        /* \"#utility.yul\":3319:3320   */\n      0x00\n        /* \"#utility.yul\":3308:3317   */\n      dup4\n        /* \"#utility.yul\":3304:3321   */\n      add\n        /* \"#utility.yul\":3295:3301   */\n      dup6\n        /* \"#utility.yul\":3251:3322   */\n      tag_124\n      jump\t// in\n    tag_151:\n        /* \"#utility.yul\":3332:3404   */\n      tag_152\n        /* \"#utility.yul\":3400:3402   */\n      0x20\n        /* \"#utility.yul\":3389:3398   */\n      dup4\n        /* \"#utility.yul\":3385:3403   */\n      add\n        /* \"#utility.yul\":3376:3382   */\n      dup5\n        /* \"#utility.yul\":3332:3404   */\n      tag_144\n      jump\t// in\n    tag_152:\n        /* \"#utility.yul\":3079:3411   */\n      swap4\n      swap3\n      pop\n      pop\n      pop\n      jump\t// out\n        /* \"#utility.yul\":3417:3836   */\n    tag_80:\n        /* \"#utility.yul\":3583:3587   */\n      0x00\n        /* \"#utility.yul\":3621:3623   */\n      0x20\n        /* \"#utility.yul\":3610:3619   */\n      dup3\n        /* \"#utility.yul\":3606:3624   */\n      add\n        /* \"#utility.yul\":3598:3624   */\n      swap1\n      pop\n        /* \"#utility.yul\":3670:3679   */\n      dup2\n        /* \"#utility.yul\":3664:3668   */\n      dup2\n        /* \"#utility.yul\":3660:3680   */\n      sub\n        /* \"#utility.yul\":3656:3657   */\n      0x00\n        /* \"#utility.yul\":3645:3654   */\n      dup4\n        /* \"#utility.yul\":3641:3658   */\n      add\n        /* \"#utility.yul\":3634:3681   */\n      mstore\n        /* \"#utility.yul\":3698:3829   */\n      tag_154\n        /* \"#utility.yul\":3824:3828   */\n      dup2\n        /* \"#utility.yul\":3698:3829   */\n      tag_128\n      jump\t// in\n    tag_154:\n        /* \"#utility.yul\":3690:3829   */\n      swap1\n      pop\n        /* \"#utility.yul\":3417:3836   */\n      swap2\n      swap1\n      pop\n      jump\t// out\n        /* \"#utility.yul\":3842:4261   */\n    tag_55:\n        /* \"#utility.yul\":4008:4012   */\n      0x00\n        /* \"#utility.yul\":4046:4048   */\n      0x20\n        /* \"#utility.yul\":4035:4044   */\n      dup3\n        /* \"#utility.yul\":4031:4049   */\n      add\n        /* \"#utility.yul\":4023:4049   */\n      swap1\n      pop\n        /* \"#utility.yul\":4095:4104   */\n      dup2\n        /* \"#utility.yul\":4089:4093   */\n      dup2\n        /* \"#utility.yul\":4085:4105   */\n      sub\n        /* \"#utility.yul\":4081:4082   */\n      0x00\n        /* \"#utility.yul\":4070:4079   */\n      dup4\n        /* \"#utility.yul\":4066:4083   */\n      add\n        /* \"#utility.yul\":4059:4106   */\n      mstore\n        /* \"#utility.yul\":4123:4254   */\n      tag_156\n        /* \"#utility.yul\":4249:4253   */\n      dup2\n        /* \"#utility.yul\":4123:4254   */\n      tag_134\n      jump\t// in\n    tag_156:\n        /* \"#utility.yul\":4115:4254   */\n      swap1\n      pop\n        /* \"#utility.yul\":3842:4261   */\n      swap2\n      swap1\n      pop\n      jump\t// out\n        /* \"#utility.yul\":4267:4686   */\n    tag_72:\n        /* \"#utility.yul\":4433:4437   */\n      0x00\n        /* \"#utility.yul\":4471:4473   */\n      0x20\n        /* \"#utility.yul\":4460:4469   */\n      dup3\n        /* \"#utility.yul\":4456:4474   */\n      add\n        /* \"#utility.yul\":4448:4474   */\n      swap1\n      pop\n        /* \"#utility.yul\":4520:4529   */\n      dup2\n        /* \"#utility.yul\":4514:4518   */\n      dup2\n        /* \"#utility.yul\":4510:4530   */\n      sub\n        /* \"#utility.yul\":4506:4507   */\n      0x00\n        /* \"#utility.yul\":4495:4504   */\n      dup4\n        /* \"#utility.yul\":4491:4508   */\n      add\n        /* \"#utility.yul\":4484:4531   */\n      mstore\n        /* \"#utility.yul\":4548:4679   */\n      tag_158\n        /* \"#utility.yul\":4674:4678   */\n      dup2\n        /* \"#utility.yul\":4548:4679   */\n      tag_139\n      jump\t// in\n    tag_158:\n        /* \"#utility.yul\":4540:4679   */\n      swap1\n      pop\n        /* \"#utility.yul\":4267:4686   */\n      swap2\n      swap1\n      pop\n      jump\t// out\n        /* \"#utility.yul\":4692:4914   */\n    tag_15:\n        /* \"#utility.yul\":4785:4789   */\n      0x00\n        /* \"#utility.yul\":4823:4825   */\n      0x20\n        /* \"#utility.yul\":4812:4821   */\n      dup3\n        /* \"#utility.yul\":4808:4826   */\n      add\n        /* \"#utility.yul\":4800:4826   */\n      swap1\n      pop\n        /* \"#utility.yul\":4836:4907   */\n      tag_160\n        /* \"#utility.yul\":4904:4905   */\n      0x00\n        /* \"#utility.yul\":4893:4902   */\n      dup4\n        /* \"#utility.yul\":4889:4906   */\n      add\n        /* \"#utility.yul\":4880:4886   */\n      dup5\n        /* \"#utility.yul\":4836:4907   */\n      tag_144\n      jump\t// in\n    tag_160:\n        /* \"#utility.yul\":4692:4914   */\n      swap3\n      swap2\n      pop\n      pop\n      jump\t// out\n        /* \"#utility.yul\":4920:5252   */\n    tag_89:\n        /* \"#utility.yul\":5041:5045   */\n      0x00\n        /* \"#utility.yul\":5079:5081   */\n      0x40\n        /* \"#utility.yul\":5068:5077   */\n      dup3\n        /* \"#utility.yul\":5064:5082   */\n      add\n        /* \"#utility.yul\":5056:5082   */\n      swap1\n      pop\n        /* \"#utility.yul\":5092:5163   */\n      tag_162\n        /* \"#utility.yul\":5160:5161   */\n      0x00\n        /* \"#utility.yul\":5149:5158   */\n      dup4\n        /* \"#utility.yul\":5145:5162   */\n      add\n        /* \"#utility.yul\":5136:5142   */\n      dup6\n        /* \"#utility.yul\":5092:5163   */\n      tag_144\n      jump\t// in\n    tag_162:\n        /* \"#utility.yul\":5173:5245   */\n      tag_163\n        /* \"#utility.yul\":5241:5243   */\n      0x20\n        /* \"#utility.yul\":5230:5239   */\n      dup4\n        /* \"#utility.yul\":5226:5244   */\n      add\n        /* \"#utility.yul\":5217:5223   */\n      dup5\n        /* \"#utility.yul\":5173:5245   */\n      tag_124\n      jump\t// in\n    tag_163:\n        /* \"#utility.yul\":4920:5252   */\n      swap4\n      swap3\n      pop\n      pop\n      pop\n      jump\t// out\n        /* \"#utility.yul\":5339:5508   */\n    tag_131:\n        /* \"#utility.yul\":5423:5434   */\n      0x00\n        /* \"#utility.yul\":5457:5463   */\n      dup3\n        /* \"#utility.yul\":5452:5455   */\n      dup3\n        /* \"#utility.yul\":5445:5464   */\n      mstore\n        /* \"#utility.yul\":5497:5501   */\n      0x20\n        /* \"#utility.yul\":5492:5495   */\n      dup3\n        /* \"#utility.yul\":5488:5502   */\n      add\n        /* \"#utility.yul\":5473:5502   */\n      swap1\n      pop\n        /* \"#utility.yul\":5339:5508   */\n      swap3\n      swap2\n      pop\n      pop\n      jump\t// out\n        /* \"#utility.yul\":5514:5862   */\n    tag_98:\n        /* \"#utility.yul\":5554:5561   */\n      0x00\n        /* \"#utility.yul\":5577:5597   */\n      tag_168\n        /* \"#utility.yul\":5595:5596   */\n      dup3\n        /* \"#utility.yul\":5577:5597   */\n      tag_147\n      jump\t// in\n    tag_168:\n        /* \"#utility.yul\":5572:5597   */\n      swap2\n      pop\n        /* \"#utility.yul\":5611:5631   */\n      tag_169\n        /* \"#utility.yul\":5629:5630   */\n      dup4\n        /* \"#utility.yul\":5611:5631   */\n      tag_147\n      jump\t// in\n    tag_169:\n        /* \"#utility.yul\":5606:5631   */\n      swap3\n      pop\n        /* \"#utility.yul\":5799:5800   */\n      dup2\n        /* \"#utility.yul\":5731:5797   */\n      0xffffffffffffffffffffffffffffffffffffffffffffffffffffffffffffffff\n        /* \"#utility.yul\":5727:5801   */\n      div\n        /* \"#utility.yul\":5724:5725   */\n      dup4\n        /* \"#utility.yul\":5721:5802   */\n      gt\n        /* \"#utility.yul\":5716:5717   */\n      dup3\n        /* \"#utility.yul\":5709:5718   */\n      iszero\n        /* \"#utility.yul\":5702:5719   */\n      iszero\n        /* \"#utility.yul\":5698:5803   */\n      and\n        /* \"#utility.yul\":5695:5826   */\n      iszero\n      tag_170\n      jumpi\n        /* \"#utility.yul\":5806:5824   */\n      tag_171\n      tag_172\n      jump\t// in\n    tag_171:\n        /* \"#utility.yul\":5695:5826   */\n    tag_170:\n        /* \"#utility.yul\":5854:5855   */\n      dup3\n        /* \"#utility.yul\":5851:5852   */\n      dup3\n        /* \"#utility.yul\":5847:5856   */\n      mul\n        /* \"#utility.yul\":5836:5856   */\n      swap1\n      pop\n        /* \"#utility.yul\":5514:5862   */\n      swap3\n      swap2\n      pop\n      pop\n      jump\t// out\n        /* \"#utility.yul\":5868:6059   */\n    tag_74:\n        /* \"#utility.yul\":5908:5912   */\n      0x00\n        /* \"#utility.yul\":5928:5948   */\n      tag_174\n        /* \"#utility.yul\":5946:5947   */\n      dup3\n        /* \"#utility.yul\":5928:5948   */\n      tag_147\n      jump\t// in\n    tag_174:\n        /* \"#utility.yul\":5923:5948   */\n      swap2\n      pop\n        /* \"#utility.yul\":5962:5982   */\n      tag_175\n        /* \"#utility.yul\":5980:5981   */\n      dup4\n        /* \"#utility.yul\":5962:5982   */\n      tag_147\n      jump\t// in\n    tag_175:\n        /* \"#utility.yul\":5957:5982   */\n      swap3\n      pop\n        /* \"#utility.yul\":6001:6002   */\n      dup3\n        /* \"#utility.yul\":5998:5999   */\n      dup3\n        /* \"#utility.yul\":5995:6003   */\n      lt\n        /* \"#utility.yul\":5992:6026   */\n      iszero\n      tag_176\n      jumpi\n        /* \"#utility.yul\":6006:6024   */\n      tag_177\n      tag_172\n      jump\t// in\n    tag_177:\n        /* \"#utility.yul\":5992:6026   */\n    tag_176:\n        /* \"#utility.yul\":6051:6052   */\n      dup3\n        /* \"#utility.yul\":6048:6049   */\n      dup3\n        /* \"#utility.yul\":6044:6053   */\n      sub\n        /* \"#utility.yul\":6036:6053   */\n      swap1\n      pop\n        /* \"#utility.yul\":5868:6059   */\n      swap3\n      swap2\n      pop\n      pop\n      jump\t// out\n        /* \"#utility.yul\":6065:6161   */\n    tag_127:\n        /* \"#utility.yul\":6102:6109   */\n      0x00\n        /* \"#utility.yul\":6131:6155   */\n      tag_179\n        /* \"#utility.yul\":6149:6154   */\n      dup3\n        /* \"#utility.yul\":6131:6155   */\n      tag_180\n      jump\t// in\n    tag_179:\n        /* \"#utility.yul\":6120:6155   */\n      swap1\n      pop\n        /* \"#utility.yul\":6065:6161   */\n      swap2\n      swap1\n      pop\n      jump\t// out\n        /* \"#utility.yul\":6167:6257   */\n    tag_181:\n        /* \"#utility.yul\":6201:6208   */\n      0x00\n        /* \"#utility.yul\":6244:6249   */\n      dup2\n        /* \"#utility.yul\":6237:6250   */\n      iszero\n        /* \"#utility.yul\":6230:6251   */\n      iszero\n        /* \"#utility.yul\":6219:6251   */\n      swap1\n      pop\n        /* \"#utility.yul\":6167:6257   */\n      swap2\n      swap1\n      pop\n      jump\t// out\n        /* \"#utility.yul\":6263:6389   */\n    tag_180:\n        /* \"#utility.yul\":6300:6307   */\n      0x00\n        /* \"#utility.yul\":6340:6382   */\n      0xffffffffffffffffffffffffffffffffffffffff\n        /* \"#utility.yul\":6333:6338   */\n      dup3\n        /* \"#utility.yul\":6329:6383   */\n      and\n        /* \"#utility.yul\":6318:6383   */\n      swap1\n      pop\n        /* \"#utility.yul\":6263:6389   */\n      swap2\n      swap1\n      pop\n      jump\t// out\n        /* \"#utility.yul\":6395:6472   */\n    tag_147:\n        /* \"#utility.yul\":6432:6439   */\n      0x00\n        /* \"#utility.yul\":6461:6466   */\n      dup2\n        /* \"#utility.yul\":6450:6466   */\n      swap1\n      pop\n        /* \"#utility.yul\":6395:6472   */\n      swap2\n      swap1\n      pop\n      jump\t// out\n        /* \"#utility.yul\":6478:6658   */\n    tag_172:\n        /* \"#utility.yul\":6526:6603   */\n      0x4e487b7100000000000000000000000000000000000000000000000000000000\n        /* \"#utility.yul\":6523:6524   */\n      0x00\n        /* \"#utility.yul\":6516:6604   */\n      mstore\n        /* \"#utility.yul\":6623:6627   */\n      0x11\n        /* \"#utility.yul\":6620:6621   */\n      0x04\n        /* \"#utility.yul\":6613:6628   */\n      mstore\n        /* \"#utility.yul\":6647:6651   */\n      0x24\n        /* \"#utility.yul\":6644:6645   */\n      0x00\n        /* \"#utility.yul\":6637:6652   */\n      revert\n        /* \"#utility.yul\":6787:6904   */\n    tag_114:\n        /* \"#utility.yul\":6896:6897   */\n      0x00\n        /* \"#utility.yul\":6893:6894   */\n      dup1\n        /* \"#utility.yul\":6886:6898   */\n      revert\n        /* \"#utility.yul\":6910:7133   */\n    tag_133:\n        /* \"#utility.yul\":7050:7084   */\n      0x436f6d70726120756e206e756d65726f20646520546f6b656e73206164656375\n        /* \"#utility.yul\":7046:7047   */\n      0x00\n        /* \"#utility.yul\":7038:7044   */\n      dup3\n        /* \"#utility.yul\":7034:7048   */\n      add\n        /* \"#utility.yul\":7027:7085   */\n      mstore\n        /* \"#utility.yul\":7119:7125   */\n      0x61646f2e00000000000000000000000000000000000000000000000000000000\n        /* \"#utility.yul\":7114:7116   */\n      0x20\n        /* \"#utility.yul\":7106:7112   */\n      dup3\n        /* \"#utility.yul\":7102:7117   */\n      add\n        /* \"#utility.yul\":7095:7126   */\n      mstore\n        /* \"#utility.yul\":6910:7133   */\n      pop\n      jump\t// out\n        /* \"#utility.yul\":7139:7372   */\n    tag_138:\n        /* \"#utility.yul\":7279:7313   */\n      0x4e6f207469656e6573207065726d69736f73207061726120656a656375746172\n        /* \"#utility.yul\":7275:7276   */\n      0x00\n        /* \"#utility.yul\":7267:7273   */\n      dup3\n        /* \"#utility.yul\":7263:7277   */\n      add\n        /* \"#utility.yul\":7256:7314   */\n      mstore\n        /* \"#utility.yul\":7348:7364   */\n      0x20657374612066756e63696f6e2e000000000000000000000000000000000000\n        /* \"#utility.yul\":7343:7345   */\n      0x20\n        /* \"#utility.yul\":7335:7341   */\n      dup3\n        /* \"#utility.yul\":7331:7346   */\n      add\n        /* \"#utility.yul\":7324:7365   */\n      mstore\n        /* \"#utility.yul\":7139:7372   */\n      pop\n      jump\t// out\n        /* \"#utility.yul\":7378:7605   */\n    tag_143:\n        /* \"#utility.yul\":7518:7552   */\n      0x436f6d707261206d656e6f7320546f6b656e73206f207061676120636f6e206d\n        /* \"#utility.yul\":7514:7515   */\n      0x00\n        /* \"#utility.yul\":7506:7512   */\n      dup3\n        /* \"#utility.yul\":7502:7516   */\n      add\n        /* \"#utility.yul\":7495:7553   */\n      mstore\n        /* \"#utility.yul\":7587:7597   */\n      0x6173204574686572000000000000000000000000000000000000000000000000\n        /* \"#utility.yul\":7582:7584   */\n      0x20\n        /* \"#utility.yul\":7574:7580   */\n      dup3\n        /* \"#utility.yul\":7570:7585   */\n      add\n        /* \"#utility.yul\":7563:7598   */\n      mstore\n        /* \"#utility.yul\":7378:7605   */\n      pop\n      jump\t// out\n        /* \"#utility.yul\":7611:7727   */\n    tag_103:\n        /* \"#utility.yul\":7681:7702   */\n      tag_193\n        /* \"#utility.yul\":7696:7701   */\n      dup2\n        /* \"#utility.yul\":7681:7702   */\n      tag_181\n      jump\t// in\n    tag_193:\n        /* \"#utility.yul\":7674:7679   */\n      dup2\n        /* \"#utility.yul\":7671:7703   */\n      eq\n        /* \"#utility.yul\":7661:7721   */\n      tag_194\n      jumpi\n        /* \"#utility.yul\":7717:7718   */\n      0x00\n        /* \"#utility.yul\":7714:7715   */\n      dup1\n        /* \"#utility.yul\":7707:7719   */\n      revert\n        /* \"#utility.yul\":7661:7721   */\n    tag_194:\n        /* \"#utility.yul\":7611:7727   */\n      pop\n      jump\t// out\n        /* \"#utility.yul\":7733:7855   */\n    tag_107:\n        /* \"#utility.yul\":7806:7830   */\n      tag_196\n        /* \"#utility.yul\":7824:7829   */\n      dup2\n        /* \"#utility.yul\":7806:7830   */\n      tag_147\n      jump\t// in\n    tag_196:\n        /* \"#utility.yul\":7799:7804   */\n      dup2\n        /* \"#utility.yul\":7796:7831   */\n      eq\n        /* \"#utility.yul\":7786:7849   */\n      tag_197\n      jumpi\n        /* \"#utility.yul\":7845:7846   */\n      0x00\n        /* \"#utility.yul\":7842:7843   */\n      dup1\n        /* \"#utility.yul\":7835:7847   */\n      revert\n        /* \"#utility.yul\":7786:7849   */\n    tag_197:\n        /* \"#utility.yul\":7733:7855   */\n      pop\n      jump\t// out\n\n    auxdata: 0xa26469706673582212205cc42bb521c6c90b1ca2d8cf29a6a65127b820a0cc92d27f06cb0b79561c107264736f6c63430008070033\n}\n\nsub_1: assembly {\n        /* \"LOTERIA/ERC20.sol\":1775:4463  contract ERC20Basic is IERC20{\r... */\n      mstore(0x40, 0x80)\n        /* \"LOTERIA/ERC20.sol\":2292:2427  constructor (uint256 initialSupply) public{\r... */\n      callvalue\n      dup1\n      iszero\n      tag_1\n      jumpi\n      0x00\n      dup1\n      revert\n    tag_1:\n      pop\n      mload(0x40)\n      sub(codesize, bytecodeSize)\n      dup1\n      bytecodeSize\n      dup4\n      codecopy\n      dup2\n      dup2\n      add\n      0x40\n      mstore\n      dup2\n      add\n      swap1\n      tag_2\n      swap2\n      swap1\n      tag_3\n      jump\t// in\n    tag_2:\n        /* \"LOTERIA/ERC20.sol\":2360:2373  initialSupply */\n      dup1\n        /* \"LOTERIA/ERC20.sol\":2345:2357  totalSupply_ */\n      0x02\n        /* \"LOTERIA/ERC20.sol\":2345:2373  totalSupply_ = initialSupply */\n      dup2\n      swap1\n      sstore\n      pop\n        /* \"LOTERIA/ERC20.sol\":2407:2419  totalSupply_ */\n      sload(0x02)\n        /* \"LOTERIA/ERC20.sol\":2384:2392  balances */\n      0x00\n        /* \"LOTERIA/ERC20.sol\":2384:2404  balances[msg.sender] */\n      dup1\n        /* \"LOTERIA/ERC20.sol\":2393:2403  msg.sender */\n      caller\n        /* \"LOTERIA/ERC20.sol\":2384:2404  balances[msg.sender] */\n      0xffffffffffffffffffffffffffffffffffffffff\n      and\n      0xffffffffffffffffffffffffffffffffffffffff\n      and\n      dup2\n      mstore\n      0x20\n      add\n      swap1\n      dup2\n      mstore\n      0x20\n      add\n      0x00\n      keccak256\n        /* \"LOTERIA/ERC20.sol\":2384:2419  balances[msg.sender] = totalSupply_ */\n      dup2\n      swap1\n      sstore\n      pop\n        /* \"LOTERIA/ERC20.sol\":2292:2427  constructor (uint256 initialSupply) public{\r... */\n      pop\n        /* \"LOTERIA/ERC20.sol\":1775:4463  contract ERC20Basic is IERC20{\r... */\n      jump(tag_6)\n        /* \"#utility.yul\":7:150   */\n    tag_8:\n        /* \"#utility.yul\":64:69   */\n      0x00\n        /* \"#utility.yul\":95:101   */\n      dup2\n        /* \"#utility.yul\":89:102   */\n      mload\n        /* \"#utility.yul\":80:102   */\n      swap1\n      pop\n        /* \"#utility.yul\":111:144   */\n      tag_10\n        /* \"#utility.yul\":138:143   */\n      dup2\n        /* \"#utility.yul\":111:144   */\n      tag_11\n      jump\t// in\n    tag_10:\n        /* \"#utility.yul\":7:150   */\n      swap3\n      swap2\n      pop\n      pop\n      jump\t// out\n        /* \"#utility.yul\":156:507   */\n    tag_3:\n        /* \"#utility.yul\":226:232   */\n      0x00\n        /* \"#utility.yul\":275:277   */\n      0x20\n        /* \"#utility.yul\":263:272   */\n      dup3\n        /* \"#utility.yul\":254:261   */\n      dup5\n        /* \"#utility.yul\":250:273   */\n      sub\n        /* \"#utility.yul\":246:278   */\n      slt\n        /* \"#utility.yul\":243:362   */\n      iszero\n      tag_13\n      jumpi\n        /* \"#utility.yul\":281:360   */\n      tag_14\n      tag_15\n      jump\t// in\n    tag_14:\n        /* \"#utility.yul\":243:362   */\n    tag_13:\n        /* \"#utility.yul\":401:402   */\n      0x00\n        /* \"#utility.yul\":426:490   */\n      tag_16\n        /* \"#utility.yul\":482:489   */\n      dup5\n        /* \"#utility.yul\":473:479   */\n      dup3\n        /* \"#utility.yul\":462:471   */\n      dup6\n        /* \"#utility.yul\":458:480   */\n      add\n        /* \"#utility.yul\":426:490   */\n      tag_8\n      jump\t// in\n    tag_16:\n        /* \"#utility.yul\":416:490   */\n      swap2\n      pop\n        /* \"#utility.yul\":372:500   */\n      pop\n        /* \"#utility.yul\":156:507   */\n      swap3\n      swap2\n      pop\n      pop\n      jump\t// out\n        /* \"#utility.yul\":594:671   */\n    tag_19:\n        /* \"#utility.yul\":631:638   */\n      0x00\n        /* \"#utility.yul\":660:665   */\n      dup2\n        /* \"#utility.yul\":649:665   */\n      swap1\n      pop\n        /* \"#utility.yul\":594:671   */\n      swap2\n      swap1\n      pop\n      jump\t// out\n        /* \"#utility.yul\":800:917   */\n    tag_15:\n        /* \"#utility.yul\":909:910   */\n      0x00\n        /* \"#utility.yul\":906:907   */\n      dup1\n        /* \"#utility.yul\":899:911   */\n      revert\n        /* \"#utility.yul\":923:1045   */\n    tag_11:\n        /* \"#utility.yul\":996:1020   */\n      tag_25\n        /* \"#utility.yul\":1014:1019   */\n      dup2\n        /* \"#utility.yul\":996:1020   */\n      tag_19\n      jump\t// in\n    tag_25:\n        /* \"#utility.yul\":989:994   */\n      dup2\n        /* \"#utility.yul\":986:1021   */\n      eq\n        /* \"#utility.yul\":976:1039   */\n      tag_26\n      jumpi\n        /* \"#utility.yul\":1035:1036   */\n      0x00\n        /* \"#utility.yul\":1032:1033   */\n      dup1\n        /* \"#utility.yul\":1025:1037   */\n      revert\n        /* \"#utility.yul\":976:1039   */\n    tag_26:\n        /* \"#utility.yul\":923:1045   */\n      pop\n      jump\t// out\n        /* \"LOTERIA/ERC20.sol\":1775:4463  contract ERC20Basic is IERC20{\r... */\n    tag_6:\n      dataSize(sub_0)\n      dup1\n      dataOffset(sub_0)\n      0x00\n      codecopy\n      0x00\n      return\n    stop\n\n    sub_0: assembly {\n            /* \"LOTERIA/ERC20.sol\":1775:4463  contract ERC20Basic is IERC20{\r... */\n          mstore(0x40, 0x80)\n          callvalue\n          dup1\n          iszero\n          tag_1\n          jumpi\n          0x00\n          dup1\n          revert\n        tag_1:\n          pop\n          jumpi(tag_2, lt(calldatasize, 0x04))\n          shr(0xe0, calldataload(0x00))\n          dup1\n          0x313ce567\n          gt\n          tag_14\n          jumpi\n          dup1\n          0x313ce567\n          eq\n          tag_8\n          jumpi\n          dup1\n          0x3b83e3cd\n          eq\n          tag_9\n          jumpi\n          dup1\n          0x70a08231\n          eq\n          tag_10\n          jumpi\n          dup1\n          0x95d89b41\n          eq\n          tag_11\n          jumpi\n          dup1\n          0xa9059cbb\n          eq\n          tag_12\n          jumpi\n          dup1\n          0xdd62ed3e\n          eq\n          tag_13\n          jumpi\n          jump(tag_2)\n        tag_14:\n          dup1\n          0x06fdde03\n          eq\n          tag_3\n          jumpi\n          dup1\n          0x095ea7b3\n          eq\n          tag_4\n          jumpi\n          dup1\n          0x18160ddd\n          eq\n          tag_5\n          jumpi\n          dup1\n          0x1d43cc98\n          eq\n          tag_6\n          jumpi\n          dup1\n          0x23b872dd\n          eq\n          tag_7\n          jumpi\n        tag_2:\n          0x00\n          dup1\n          revert\n            /* \"LOTERIA/ERC20.sol\":1813:1862  string public constant name = \"ERC20BlockchainAZ\" */\n        tag_3:\n          tag_15\n          tag_16\n          jump\t// in\n        tag_15:\n          mload(0x40)\n          tag_17\n          swap2\n          swap1\n          tag_18\n          jump\t// in\n        tag_17:\n          mload(0x40)\n          dup1\n          swap2\n          sub\n          swap1\n          return\n            /* \"LOTERIA/ERC20.sol\":3738:3962  function approve(address delegate, uint256 numTokens) public override returns(bool){\r... */\n        tag_4:\n          tag_19\n          0x04\n          dup1\n          calldatasize\n          sub\n          dup2\n          add\n          swap1\n          tag_20\n          swap2\n          swap1\n          tag_21\n          jump\t// in\n        tag_20:\n          tag_22\n          jump\t// in\n        tag_19:\n          mload(0x40)\n          tag_23\n          swap2\n          swap1\n          tag_24\n          jump\t// in\n        tag_23:\n          mload(0x40)\n          dup1\n          swap2\n          sub\n          swap1\n          return\n            /* \"LOTERIA/ERC20.sol\":2435:2533  function totalSupply() public override view returns(uint256){\r... */\n        tag_5:\n          tag_25\n          tag_26\n          jump\t// in\n        tag_25:\n          mload(0x40)\n          tag_27\n          swap2\n          swap1\n          tag_28\n          jump\t// in\n        tag_27:\n          mload(0x40)\n          dup1\n          swap2\n          sub\n          swap1\n          return\n            /* \"LOTERIA/ERC20.sol\":2541:2699  function increaseTotalSupply(uint newTokensAmount) public {\r... */\n        tag_6:\n          tag_29\n          0x04\n          dup1\n          calldatasize\n          sub\n          dup2\n          add\n          swap1\n          tag_30\n          swap2\n          swap1\n          tag_31\n          jump\t// in\n        tag_30:\n          tag_32\n          jump\t// in\n        tag_29:\n          stop\n            /* \"LOTERIA/ERC20.sol\":3970:4458  function transferFrom(address owner, address buyer, uint256 numTokens) public override returns(bool){\r... */\n        tag_7:\n          tag_33\n          0x04\n          dup1\n          calldatasize\n          sub\n          dup2\n          add\n          swap1\n          tag_34\n          swap2\n          swap1\n          tag_35\n          jump\t// in\n        tag_34:\n          tag_36\n          jump\t// in\n        tag_33:\n          mload(0x40)\n          tag_37\n          swap2\n          swap1\n          tag_24\n          jump\t// in\n        tag_37:\n          mload(0x40)\n          dup1\n          swap2\n          sub\n          swap1\n          return\n            /* \"LOTERIA/ERC20.sol\":1913:1947  uint8 public constant decimals = 2 */\n        tag_8:\n          tag_38\n          tag_39\n          jump\t// in\n        tag_38:\n          mload(0x40)\n          tag_40\n          swap2\n          swap1\n          tag_41\n          jump\t// in\n        tag_40:\n          mload(0x40)\n          dup1\n          swap2\n          sub\n          swap1\n          return\n            /* \"LOTERIA/ERC20.sol\":3355:3730  function transfer_dinsey( address _client, address recipient, uint256 numTokens) public override returns(bool){\r... */\n        tag_9:\n          tag_42\n          0x04\n          dup1\n          calldatasize\n          sub\n          dup2\n          add\n          swap1\n          tag_43\n          swap2\n          swap1\n          tag_35\n          jump\t// in\n        tag_43:\n          tag_44\n          jump\t// in\n        tag_42:\n          mload(0x40)\n          tag_45\n          swap2\n          swap1\n          tag_24\n          jump\t// in\n        tag_45:\n          mload(0x40)\n          dup1\n          swap2\n          sub\n          swap1\n          return\n            /* \"LOTERIA/ERC20.sol\":2707:2829  function balanceOf(address tokenOwner) public override view returns(uint256){\r... */\n        tag_10:\n          tag_46\n          0x04\n          dup1\n          calldatasize\n          sub\n          dup2\n          add\n          swap1\n          tag_47\n          swap2\n          swap1\n          tag_48\n          jump\t// in\n        tag_47:\n          tag_49\n          jump\t// in\n        tag_46:\n          mload(0x40)\n          tag_50\n          swap2\n          swap1\n          tag_28\n          jump\t// in\n        tag_50:\n          mload(0x40)\n          dup1\n          swap2\n          sub\n          swap1\n          return\n            /* \"LOTERIA/ERC20.sol\":1869:1906  string public constant symbol = \"ERC\" */\n        tag_11:\n          tag_51\n          tag_52\n          jump\t// in\n        tag_51:\n          mload(0x40)\n          tag_53\n          swap2\n          swap1\n          tag_18\n          jump\t// in\n        tag_53:\n          mload(0x40)\n          dup1\n          swap2\n          sub\n          swap1\n          return\n            /* \"LOTERIA/ERC20.sol\":2984:3347  function transfer( address recipient, uint256 numTokens) public override returns(bool){\r... */\n        tag_12:\n          tag_54\n          0x04\n          dup1\n          calldatasize\n          sub\n          dup2\n          add\n          swap1\n          tag_55\n          swap2\n          swap1\n          tag_21\n          jump\t// in\n        tag_55:\n          tag_56\n          jump\t// in\n        tag_54:\n          mload(0x40)\n          tag_57\n          swap2\n          swap1\n          tag_24\n          jump\t// in\n        tag_57:\n          mload(0x40)\n          dup1\n          swap2\n          sub\n          swap1\n          return\n            /* \"LOTERIA/ERC20.sol\":2837:2976  function allowance(address owner, address delegate) public override view returns(uint256){\r... */\n        tag_13:\n          tag_58\n          0x04\n          dup1\n          calldatasize\n          sub\n          dup2\n          add\n          swap1\n          tag_59\n          swap2\n          swap1\n          tag_60\n          jump\t// in\n        tag_59:\n          tag_61\n          jump\t// in\n        tag_58:\n          mload(0x40)\n          tag_62\n          swap2\n          swap1\n          tag_28\n          jump\t// in\n        tag_62:\n          mload(0x40)\n          dup1\n          swap2\n          sub\n          swap1\n          return\n            /* \"LOTERIA/ERC20.sol\":1813:1862  string public constant name = \"ERC20BlockchainAZ\" */\n        tag_16:\n          mload(0x40)\n          dup1\n          0x40\n          add\n          0x40\n          mstore\n          dup1\n          0x11\n          dup2\n          mstore\n          0x20\n          add\n          0x4552433230426c6f636b636861696e415a000000000000000000000000000000\n          dup2\n          mstore\n          pop\n          dup2\n          jump\t// out\n            /* \"LOTERIA/ERC20.sol\":3738:3962  function approve(address delegate, uint256 numTokens) public override returns(bool){\r... */\n        tag_22:\n            /* \"LOTERIA/ERC20.sol\":3816:3820  bool */\n          0x00\n            /* \"LOTERIA/ERC20.sol\":3864:3873  numTokens */\n          dup2\n            /* \"LOTERIA/ERC20.sol\":3832:3839  allowed */\n          0x01\n            /* \"LOTERIA/ERC20.sol\":3832:3851  allowed[msg.sender] */\n          0x00\n            /* \"LOTERIA/ERC20.sol\":3840:3850  msg.sender */\n          caller\n            /* \"LOTERIA/ERC20.sol\":3832:3851  allowed[msg.sender] */\n          0xffffffffffffffffffffffffffffffffffffffff\n          and\n          0xffffffffffffffffffffffffffffffffffffffff\n          and\n          dup2\n          mstore\n          0x20\n          add\n          swap1\n          dup2\n          mstore\n          0x20\n          add\n          0x00\n          keccak256\n            /* \"LOTERIA/ERC20.sol\":3832:3861  allowed[msg.sender][delegate] */\n          0x00\n            /* \"LOTERIA/ERC20.sol\":3852:3860  delegate */\n          dup6\n            /* \"LOTERIA/ERC20.sol\":3832:3861  allowed[msg.sender][delegate] */\n          0xffffffffffffffffffffffffffffffffffffffff\n          and\n          0xffffffffffffffffffffffffffffffffffffffff\n          and\n          dup2\n          mstore\n          0x20\n          add\n          swap1\n          dup2\n          mstore\n          0x20\n          add\n          0x00\n          keccak256\n            /* \"LOTERIA/ERC20.sol\":3832:3873  allowed[msg.sender][delegate] = numTokens */\n          dup2\n          swap1\n          sstore\n          pop\n            /* \"LOTERIA/ERC20.sol\":3910:3918  delegate */\n          dup3\n            /* \"LOTERIA/ERC20.sol\":3889:3930  Approval(msg.sender, delegate, numTokens) */\n          0xffffffffffffffffffffffffffffffffffffffff\n          and\n            /* \"LOTERIA/ERC20.sol\":3898:3908  msg.sender */\n          caller\n            /* \"LOTERIA/ERC20.sol\":3889:3930  Approval(msg.sender, delegate, numTokens) */\n          0xffffffffffffffffffffffffffffffffffffffff\n          and\n          0x8c5be1e5ebec7d5bd14f71427d1e84f3dd0314c0f7b2291e5b200ac8c7c3b925\n            /* \"LOTERIA/ERC20.sol\":3920:3929  numTokens */\n          dup5\n            /* \"LOTERIA/ERC20.sol\":3889:3930  Approval(msg.sender, delegate, numTokens) */\n          mload(0x40)\n          tag_64\n          swap2\n          swap1\n          tag_28\n          jump\t// in\n        tag_64:\n          mload(0x40)\n          dup1\n          swap2\n          sub\n          swap1\n          log3\n            /* \"LOTERIA/ERC20.sol\":3950:3954  true */\n          0x01\n            /* \"LOTERIA/ERC20.sol\":3943:3954  return true */\n          swap1\n          pop\n            /* \"LOTERIA/ERC20.sol\":3738:3962  function approve(address delegate, uint256 numTokens) public override returns(bool){\r... */\n          swap3\n          swap2\n          pop\n          pop\n          jump\t// out\n            /* \"LOTERIA/ERC20.sol\":2435:2533  function totalSupply() public override view returns(uint256){\r... */\n        tag_26:\n            /* \"LOTERIA/ERC20.sol\":2487:2494  uint256 */\n          0x00\n            /* \"LOTERIA/ERC20.sol\":2513:2525  totalSupply_ */\n          sload(0x02)\n            /* \"LOTERIA/ERC20.sol\":2506:2525  return totalSupply_ */\n          swap1\n          pop\n            /* \"LOTERIA/ERC20.sol\":2435:2533  function totalSupply() public override view returns(uint256){\r... */\n          swap1\n          jump\t// out\n            /* \"LOTERIA/ERC20.sol\":2541:2699  function increaseTotalSupply(uint newTokensAmount) public {\r... */\n        tag_32:\n            /* \"LOTERIA/ERC20.sol\":2626:2641  newTokensAmount */\n          dup1\n            /* \"LOTERIA/ERC20.sol\":2610:2622  totalSupply_ */\n          0x02\n          0x00\n            /* \"LOTERIA/ERC20.sol\":2610:2641  totalSupply_ += newTokensAmount */\n          dup3\n          dup3\n          sload\n          tag_67\n          swap2\n          swap1\n          tag_68\n          jump\t// in\n        tag_67:\n          swap3\n          pop\n          pop\n          dup2\n          swap1\n          sstore\n          pop\n            /* \"LOTERIA/ERC20.sol\":2676:2691  newTokensAmount */\n          dup1\n            /* \"LOTERIA/ERC20.sol\":2652:2660  balances */\n          0x00\n            /* \"LOTERIA/ERC20.sol\":2652:2672  balances[msg.sender] */\n          dup1\n            /* \"LOTERIA/ERC20.sol\":2661:2671  msg.sender */\n          caller\n            /* \"LOTERIA/ERC20.sol\":2652:2672  balances[msg.sender] */\n          0xffffffffffffffffffffffffffffffffffffffff\n          and\n          0xffffffffffffffffffffffffffffffffffffffff\n          and\n          dup2\n          mstore\n          0x20\n          add\n          swap1\n          dup2\n          mstore\n          0x20\n          add\n          0x00\n          keccak256\n          0x00\n            /* \"LOTERIA/ERC20.sol\":2652:2691  balances[msg.sender] += newTokensAmount */\n          dup3\n          dup3\n          sload\n          tag_69\n          swap2\n          swap1\n          tag_68\n          jump\t// in\n        tag_69:\n          swap3\n          pop\n          pop\n          dup2\n          swap1\n          sstore\n          pop\n            /* \"LOTERIA/ERC20.sol\":2541:2699  function increaseTotalSupply(uint newTokensAmount) public {\r... */\n          pop\n          jump\t// out\n            /* \"LOTERIA/ERC20.sol\":3970:4458  function transferFrom(address owner, address buyer, uint256 numTokens) public override returns(bool){\r... */\n        tag_36:\n            /* \"LOTERIA/ERC20.sol\":4065:4069  bool */\n          0x00\n            /* \"LOTERIA/ERC20.sol\":4103:4111  balances */\n          dup1\n            /* \"LOTERIA/ERC20.sol\":4103:4118  balances[owner] */\n          0x00\n            /* \"LOTERIA/ERC20.sol\":4112:4117  owner */\n          dup6\n            /* \"LOTERIA/ERC20.sol\":4103:4118  balances[owner] */\n          0xffffffffffffffffffffffffffffffffffffffff\n          and\n          0xffffffffffffffffffffffffffffffffffffffff\n          and\n          dup2\n          mstore\n          0x20\n          add\n          swap1\n          dup2\n          mstore\n          0x20\n          add\n          0x00\n          keccak256\n          sload\n            /* \"LOTERIA/ERC20.sol\":4090:4099  numTokens */\n          dup3\n            /* \"LOTERIA/ERC20.sol\":4090:4118  numTokens <= balances[owner] */\n          gt\n          iszero\n            /* \"LOTERIA/ERC20.sol\":4081:4119  require( numTokens <= balances[owner]) */\n          tag_71\n          jumpi\n          0x00\n          dup1\n          revert\n        tag_71:\n            /* \"LOTERIA/ERC20.sol\":4151:4158  allowed */\n          0x01\n            /* \"LOTERIA/ERC20.sol\":4151:4165  allowed[owner] */\n          0x00\n            /* \"LOTERIA/ERC20.sol\":4159:4164  owner */\n          dup6\n            /* \"LOTERIA/ERC20.sol\":4151:4165  allowed[owner] */\n          0xffffffffffffffffffffffffffffffffffffffff\n          and\n          0xffffffffffffffffffffffffffffffffffffffff\n          and\n          dup2\n          mstore\n          0x20\n          add\n          swap1\n          dup2\n          mstore\n          0x20\n          add\n          0x00\n          keccak256\n            /* \"LOTERIA/ERC20.sol\":4151:4177  allowed[owner][msg.sender] */\n          0x00\n            /* \"LOTERIA/ERC20.sol\":4166:4176  msg.sender */\n          caller\n            /* \"LOTERIA/ERC20.sol\":4151:4177  allowed[owner][msg.sender] */\n          0xffffffffffffffffffffffffffffffffffffffff\n          and\n          0xffffffffffffffffffffffffffffffffffffffff\n          and\n          dup2\n          mstore\n          0x20\n          add\n          swap1\n          dup2\n          mstore\n          0x20\n          add\n          0x00\n          keccak256\n          sload\n            /* \"LOTERIA/ERC20.sol\":4138:4147  numTokens */\n          dup3\n            /* \"LOTERIA/ERC20.sol\":4138:4177  numTokens <= allowed[owner][msg.sender] */\n          gt\n          iszero\n            /* \"LOTERIA/ERC20.sol\":4130:4178  require(numTokens <= allowed[owner][msg.sender]) */\n          tag_72\n          jumpi\n          0x00\n          dup1\n          revert\n        tag_72:\n            /* \"LOTERIA/ERC20.sol\":4209:4239  balances[owner].sub(numTokens) */\n          tag_73\n            /* \"LOTERIA/ERC20.sol\":4229:4238  numTokens */\n          dup3\n            /* \"LOTERIA/ERC20.sol\":4209:4217  balances */\n          0x00\n            /* \"LOTERIA/ERC20.sol\":4209:4224  balances[owner] */\n          dup1\n            /* \"LOTERIA/ERC20.sol\":4218:4223  owner */\n          dup8\n            /* \"LOTERIA/ERC20.sol\":4209:4224  balances[owner] */\n          0xffffffffffffffffffffffffffffffffffffffff\n          and\n          0xffffffffffffffffffffffffffffffffffffffff\n          and\n          dup2\n          mstore\n          0x20\n          add\n          swap1\n          dup2\n          mstore\n          0x20\n          add\n          0x00\n          keccak256\n          sload\n            /* \"LOTERIA/ERC20.sol\":4209:4228  balances[owner].sub */\n          tag_74\n          swap1\n            /* \"LOTERIA/ERC20.sol\":4209:4239  balances[owner].sub(numTokens) */\n          swap2\n          swap1\n          0xffffffff\n          and\n          jump\t// in\n        tag_73:\n            /* \"LOTERIA/ERC20.sol\":4191:4199  balances */\n          0x00\n            /* \"LOTERIA/ERC20.sol\":4191:4206  balances[owner] */\n          dup1\n            /* \"LOTERIA/ERC20.sol\":4200:4205  owner */\n          dup7\n            /* \"LOTERIA/ERC20.sol\":4191:4206  balances[owner] */\n          0xffffffffffffffffffffffffffffffffffffffff\n          and\n          0xffffffffffffffffffffffffffffffffffffffff\n          and\n          dup2\n          mstore\n          0x20\n          add\n          swap1\n          dup2\n          mstore\n          0x20\n          add\n          0x00\n          keccak256\n            /* \"LOTERIA/ERC20.sol\":4191:4239  balances[owner] = balances[owner].sub(numTokens) */\n          dup2\n          swap1\n          sstore\n          pop\n            /* \"LOTERIA/ERC20.sol\":4279:4320  allowed[owner][msg.sender].sub(numTokens) */\n          tag_75\n            /* \"LOTERIA/ERC20.sol\":4310:4319  numTokens */\n          dup3\n            /* \"LOTERIA/ERC20.sol\":4279:4286  allowed */\n          0x01\n            /* \"LOTERIA/ERC20.sol\":4279:4293  allowed[owner] */\n          0x00\n            /* \"LOTERIA/ERC20.sol\":4287:4292  owner */\n          dup8\n            /* \"LOTERIA/ERC20.sol\":4279:4293  allowed[owner] */\n          0xffffffffffffffffffffffffffffffffffffffff\n          and\n          0xffffffffffffffffffffffffffffffffffffffff\n          and\n          dup2\n          mstore\n          0x20\n          add\n          swap1\n          dup2\n          mstore\n          0x20\n          add\n          0x00\n          keccak256\n            /* \"LOTERIA/ERC20.sol\":4279:4305  allowed[owner][msg.sender] */\n          0x00\n            /* \"LOTERIA/ERC20.sol\":4294:4304  msg.sender */\n          caller\n            /* \"LOTERIA/ERC20.sol\":4279:4305  allowed[owner][msg.sender] */\n          0xffffffffffffffffffffffffffffffffffffffff\n          and\n          0xffffffffffffffffffffffffffffffffffffffff\n          and\n          dup2\n          mstore\n          0x20\n          add\n          swap1\n          dup2\n          mstore\n          0x20\n          add\n          0x00\n          keccak256\n          sload\n            /* \"LOTERIA/ERC20.sol\":4279:4309  allowed[owner][msg.sender].sub */\n          tag_74\n          swap1\n            /* \"LOTERIA/ERC20.sol\":4279:4320  allowed[owner][msg.sender].sub(numTokens) */\n          swap2\n          swap1\n          0xffffffff\n          and\n          jump\t// in\n        tag_75:\n            /* \"LOTERIA/ERC20.sol\":4250:4257  allowed */\n          0x01\n            /* \"LOTERIA/ERC20.sol\":4250:4264  allowed[owner] */\n          0x00\n            /* \"LOTERIA/ERC20.sol\":4258:4263  owner */\n          dup7\n            /* \"LOTERIA/ERC20.sol\":4250:4264  allowed[owner] */\n          0xffffffffffffffffffffffffffffffffffffffff\n          and\n          0xffffffffffffffffffffffffffffffffffffffff\n          and\n          dup2\n          mstore\n          0x20\n          add\n          swap1\n          dup2\n          mstore\n          0x20\n          add\n          0x00\n          keccak256\n            /* \"LOTERIA/ERC20.sol\":4250:4276  allowed[owner][msg.sender] */\n          0x00\n            /* \"LOTERIA/ERC20.sol\":4265:4275  msg.sender */\n          caller\n            /* \"LOTERIA/ERC20.sol\":4250:4276  allowed[owner][msg.sender] */\n          0xffffffffffffffffffffffffffffffffffffffff\n          and\n          0xffffffffffffffffffffffffffffffffffffffff\n          and\n          dup2\n          mstore\n          0x20\n          add\n          swap1\n          dup2\n          mstore\n          0x20\n          add\n          0x00\n          keccak256\n            /* \"LOTERIA/ERC20.sol\":4250:4320  allowed[owner][msg.sender] = allowed[owner][msg.sender].sub(numTokens) */\n          dup2\n          swap1\n          sstore\n          pop\n            /* \"LOTERIA/ERC20.sol\":4349:4379  balances[buyer].add(numTokens) */\n          tag_76\n            /* \"LOTERIA/ERC20.sol\":4369:4378  numTokens */\n          dup3\n            /* \"LOTERIA/ERC20.sol\":4349:4357  balances */\n          0x00\n            /* \"LOTERIA/ERC20.sol\":4349:4364  balances[buyer] */\n          dup1\n            /* \"LOTERIA/ERC20.sol\":4358:4363  buyer */\n          dup7\n            /* \"LOTERIA/ERC20.sol\":4349:4364  balances[buyer] */\n          0xffffffffffffffffffffffffffffffffffffffff\n          and\n          0xffffffffffffffffffffffffffffffffffffffff\n          and\n          dup2\n          mstore\n          0x20\n          add\n          swap1\n          dup2\n          mstore\n          0x20\n          add\n          0x00\n          keccak256\n          sload\n            /* \"LOTERIA/ERC20.sol\":4349:4368  balances[buyer].add */\n          tag_77\n          swap1\n            /* \"LOTERIA/ERC20.sol\":4349:4379  balances[buyer].add(numTokens) */\n          swap2\n          swap1\n          0xffffffff\n          and\n          jump\t// in\n        tag_76:\n            /* \"LOTERIA/ERC20.sol\":4331:4339  balances */\n          0x00\n            /* \"LOTERIA/ERC20.sol\":4331:4346  balances[buyer] */\n          dup1\n            /* \"LOTERIA/ERC20.sol\":4340:4345  buyer */\n          dup6\n            /* \"LOTERIA/ERC20.sol\":4331:4346  balances[buyer] */\n          0xffffffffffffffffffffffffffffffffffffffff\n          and\n          0xffffffffffffffffffffffffffffffffffffffff\n          and\n          dup2\n          mstore\n          0x20\n          add\n          swap1\n          dup2\n          mstore\n          0x20\n          add\n          0x00\n          keccak256\n            /* \"LOTERIA/ERC20.sol\":4331:4379  balances[buyer] = balances[buyer].add(numTokens) */\n          dup2\n          swap1\n          sstore\n          pop\n            /* \"LOTERIA/ERC20.sol\":4411:4416  buyer */\n          dup3\n            /* \"LOTERIA/ERC20.sol\":4395:4428  Transfer(owner, buyer, numTokens) */\n          0xffffffffffffffffffffffffffffffffffffffff\n          and\n            /* \"LOTERIA/ERC20.sol\":4404:4409  owner */\n          dup5\n            /* \"LOTERIA/ERC20.sol\":4395:4428  Transfer(owner, buyer, numTokens) */\n          0xffffffffffffffffffffffffffffffffffffffff\n          and\n          0xddf252ad1be2c89b69c2b068fc378daa952ba7f163c4a11628f55a4df523b3ef\n            /* \"LOTERIA/ERC20.sol\":4418:4427  numTokens */\n          dup5\n            /* \"LOTERIA/ERC20.sol\":4395:4428  Transfer(owner, buyer, numTokens) */\n          mload(0x40)\n          tag_78\n          swap2\n          swap1\n          tag_28\n          jump\t// in\n        tag_78:\n          mload(0x40)\n          dup1\n          swap2\n          sub\n          swap1\n          log3\n            /* \"LOTERIA/ERC20.sol\":4446:4450  true */\n          0x01\n            /* \"LOTERIA/ERC20.sol\":4439:4450  return true */\n          swap1\n          pop\n            /* \"LOTERIA/ERC20.sol\":3970:4458  function transferFrom(address owner, address buyer, uint256 numTokens) public override returns(bool){\r... */\n          swap4\n          swap3\n          pop\n          pop\n          pop\n          jump\t// out\n            /* \"LOTERIA/ERC20.sol\":1913:1947  uint8 public constant decimals = 2 */\n        tag_39:\n            /* \"LOTERIA/ERC20.sol\":1946:1947  2 */\n          0x02\n            /* \"LOTERIA/ERC20.sol\":1913:1947  uint8 public constant decimals = 2 */\n          dup2\n          jump\t// out\n            /* \"LOTERIA/ERC20.sol\":3355:3730  function transfer_dinsey( address _client, address recipient, uint256 numTokens) public override returns(bool){\r... */\n        tag_44:\n            /* \"LOTERIA/ERC20.sol\":3460:3464  bool */\n          0x00\n            /* \"LOTERIA/ERC20.sol\":3497:3505  balances */\n          dup1\n            /* \"LOTERIA/ERC20.sol\":3497:3514  balances[_client] */\n          0x00\n            /* \"LOTERIA/ERC20.sol\":3506:3513  _client */\n          dup6\n            /* \"LOTERIA/ERC20.sol\":3497:3514  balances[_client] */\n          0xffffffffffffffffffffffffffffffffffffffff\n          and\n          0xffffffffffffffffffffffffffffffffffffffff\n          and\n          dup2\n          mstore\n          0x20\n          add\n          swap1\n          dup2\n          mstore\n          0x20\n          add\n          0x00\n          keccak256\n          sload\n            /* \"LOTERIA/ERC20.sol\":3484:3493  numTokens */\n          dup3\n            /* \"LOTERIA/ERC20.sol\":3484:3514  numTokens <= balances[_client] */\n          gt\n          iszero\n            /* \"LOTERIA/ERC20.sol\":3476:3515  require(numTokens <= balances[_client]) */\n          tag_80\n          jumpi\n          0x00\n          dup1\n          revert\n        tag_80:\n            /* \"LOTERIA/ERC20.sol\":3546:3578  balances[_client].sub(numTokens) */\n          tag_81\n            /* \"LOTERIA/ERC20.sol\":3568:3577  numTokens */\n          dup3\n            /* \"LOTERIA/ERC20.sol\":3546:3554  balances */\n          0x00\n            /* \"LOTERIA/ERC20.sol\":3546:3563  balances[_client] */\n          dup1\n            /* \"LOTERIA/ERC20.sol\":3555:3562  _client */\n          dup8\n            /* \"LOTERIA/ERC20.sol\":3546:3563  balances[_client] */\n          0xffffffffffffffffffffffffffffffffffffffff\n          and\n          0xffffffffffffffffffffffffffffffffffffffff\n          and\n          dup2\n          mstore\n          0x20\n          add\n          swap1\n          dup2\n          mstore\n          0x20\n          add\n          0x00\n          keccak256\n          sload\n            /* \"LOTERIA/ERC20.sol\":3546:3567  balances[_client].sub */\n          tag_74\n          swap1\n            /* \"LOTERIA/ERC20.sol\":3546:3578  balances[_client].sub(numTokens) */\n          swap2\n          swap1\n          0xffffffff\n          and\n          jump\t// in\n        tag_81:\n            /* \"LOTERIA/ERC20.sol\":3526:3534  balances */\n          0x00\n            /* \"LOTERIA/ERC20.sol\":3526:3543  balances[_client] */\n          dup1\n            /* \"LOTERIA/ERC20.sol\":3535:3542  _client */\n          dup7\n            /* \"LOTERIA/ERC20.sol\":3526:3543  balances[_client] */\n          0xffffffffffffffffffffffffffffffffffffffff\n          and\n          0xffffffffffffffffffffffffffffffffffffffff\n          and\n          dup2\n          mstore\n          0x20\n          add\n          swap1\n          dup2\n          mstore\n          0x20\n          add\n          0x00\n          keccak256\n            /* \"LOTERIA/ERC20.sol\":3526:3578  balances[_client] = balances[_client].sub(numTokens) */\n          dup2\n          swap1\n          sstore\n          pop\n            /* \"LOTERIA/ERC20.sol\":3611:3645  balances[recipient].add(numTokens) */\n          tag_82\n            /* \"LOTERIA/ERC20.sol\":3635:3644  numTokens */\n          dup3\n            /* \"LOTERIA/ERC20.sol\":3611:3619  balances */\n          0x00\n            /* \"LOTERIA/ERC20.sol\":3611:3630  balances[recipient] */\n          dup1\n            /* \"LOTERIA/ERC20.sol\":3620:3629  recipient */\n          dup7\n            /* \"LOTERIA/ERC20.sol\":3611:3630  balances[recipient] */\n          0xffffffffffffffffffffffffffffffffffffffff\n          and\n          0xffffffffffffffffffffffffffffffffffffffff\n          and\n          dup2\n          mstore\n          0x20\n          add\n          swap1\n          dup2\n          mstore\n          0x20\n          add\n          0x00\n          keccak256\n          sload\n            /* \"LOTERIA/ERC20.sol\":3611:3634  balances[recipient].add */\n          tag_77\n          swap1\n            /* \"LOTERIA/ERC20.sol\":3611:3645  balances[recipient].add(numTokens) */\n          swap2\n          swap1\n          0xffffffff\n          and\n          jump\t// in\n        tag_82:\n            /* \"LOTERIA/ERC20.sol\":3589:3597  balances */\n          0x00\n            /* \"LOTERIA/ERC20.sol\":3589:3608  balances[recipient] */\n          dup1\n            /* \"LOTERIA/ERC20.sol\":3598:3607  recipient */\n          dup6\n            /* \"LOTERIA/ERC20.sol\":3589:3608  balances[recipient] */\n          0xffffffffffffffffffffffffffffffffffffffff\n          and\n          0xffffffffffffffffffffffffffffffffffffffff\n          and\n          dup2\n          mstore\n          0x20\n          add\n          swap1\n          dup2\n          mstore\n          0x20\n          add\n          0x00\n          keccak256\n            /* \"LOTERIA/ERC20.sol\":3589:3645  balances[recipient] = balances[recipient].add(numTokens) */\n          dup2\n          swap1\n          sstore\n          pop\n            /* \"LOTERIA/ERC20.sol\":3679:3688  recipient */\n          dup3\n            /* \"LOTERIA/ERC20.sol\":3661:3700  Transfer(_client, recipient, numTokens) */\n          0xffffffffffffffffffffffffffffffffffffffff\n          and\n            /* \"LOTERIA/ERC20.sol\":3670:3677  _client */\n          dup5\n            /* \"LOTERIA/ERC20.sol\":3661:3700  Transfer(_client, recipient, numTokens) */\n          0xffffffffffffffffffffffffffffffffffffffff\n          and\n          0xddf252ad1be2c89b69c2b068fc378daa952ba7f163c4a11628f55a4df523b3ef\n            /* \"LOTERIA/ERC20.sol\":3690:3699  numTokens */\n          dup5\n            /* \"LOTERIA/ERC20.sol\":3661:3700  Transfer(_client, recipient, numTokens) */\n          mload(0x40)\n          tag_83\n          swap2\n          swap1\n          tag_28\n          jump\t// in\n        tag_83:\n          mload(0x40)\n          dup1\n          swap2\n          sub\n          swap1\n          log3\n            /* \"LOTERIA/ERC20.sol\":3718:3722  true */\n          0x01\n            /* \"LOTERIA/ERC20.sol\":3711:3722  return true */\n          swap1\n          pop\n            /* \"LOTERIA/ERC20.sol\":3355:3730  function transfer_dinsey( address _client, address recipient, uint256 numTokens) public override returns(bool){\r... */\n          swap4\n          swap3\n          pop\n          pop\n          pop\n          jump\t// out\n            /* \"LOTERIA/ERC20.sol\":2707:2829  function balanceOf(address tokenOwner) public override view returns(uint256){\r... */\n        tag_49:\n            /* \"LOTERIA/ERC20.sol\":2775:2782  uint256 */\n          0x00\n            /* \"LOTERIA/ERC20.sol\":2801:2809  balances */\n          dup1\n            /* \"LOTERIA/ERC20.sol\":2801:2821  balances[tokenOwner] */\n          0x00\n            /* \"LOTERIA/ERC20.sol\":2810:2820  tokenOwner */\n          dup4\n            /* \"LOTERIA/ERC20.sol\":2801:2821  balances[tokenOwner] */\n          0xffffffffffffffffffffffffffffffffffffffff\n          and\n          0xffffffffffffffffffffffffffffffffffffffff\n          and\n          dup2\n          mstore\n          0x20\n          add\n          swap1\n          dup2\n          mstore\n          0x20\n          add\n          0x00\n          keccak256\n          sload\n            /* \"LOTERIA/ERC20.sol\":2794:2821  return balances[tokenOwner] */\n          swap1\n          pop\n            /* \"LOTERIA/ERC20.sol\":2707:2829  function balanceOf(address tokenOwner) public override view returns(uint256){\r... */\n          swap2\n          swap1\n          pop\n          jump\t// out\n            /* \"LOTERIA/ERC20.sol\":1869:1906  string public constant symbol = \"ERC\" */\n        tag_52:\n          mload(0x40)\n          dup1\n          0x40\n          add\n          0x40\n          mstore\n          dup1\n          0x03\n          dup2\n          mstore\n          0x20\n          add\n          0x4552430000000000000000000000000000000000000000000000000000000000\n          dup2\n          mstore\n          pop\n          dup2\n          jump\t// out\n            /* \"LOTERIA/ERC20.sol\":2984:3347  function transfer( address recipient, uint256 numTokens) public override returns(bool){\r... */\n        tag_56:\n            /* \"LOTERIA/ERC20.sol\":3065:3069  bool */\n          0x00\n            /* \"LOTERIA/ERC20.sol\":3102:3110  balances */\n          dup1\n            /* \"LOTERIA/ERC20.sol\":3102:3122  balances[msg.sender] */\n          0x00\n            /* \"LOTERIA/ERC20.sol\":3111:3121  msg.sender */\n          caller\n            /* \"LOTERIA/ERC20.sol\":3102:3122  balances[msg.sender] */\n          0xffffffffffffffffffffffffffffffffffffffff\n          and\n          0xffffffffffffffffffffffffffffffffffffffff\n          and\n          dup2\n          mstore\n          0x20\n          add\n          swap1\n          dup2\n          mstore\n          0x20\n          add\n          0x00\n          keccak256\n          sload\n            /* \"LOTERIA/ERC20.sol\":3089:3098  numTokens */\n          dup3\n            /* \"LOTERIA/ERC20.sol\":3089:3122  numTokens <= balances[msg.sender] */\n          gt\n          iszero\n            /* \"LOTERIA/ERC20.sol\":3081:3123  require(numTokens <= balances[msg.sender]) */\n          tag_86\n          jumpi\n          0x00\n          dup1\n          revert\n        tag_86:\n            /* \"LOTERIA/ERC20.sol\":3157:3192  balances[msg.sender].sub(numTokens) */\n          tag_87\n            /* \"LOTERIA/ERC20.sol\":3182:3191  numTokens */\n          dup3\n            /* \"LOTERIA/ERC20.sol\":3157:3165  balances */\n          0x00\n            /* \"LOTERIA/ERC20.sol\":3157:3177  balances[msg.sender] */\n          dup1\n            /* \"LOTERIA/ERC20.sol\":3166:3176  msg.sender */\n          caller\n            /* \"LOTERIA/ERC20.sol\":3157:3177  balances[msg.sender] */\n          0xffffffffffffffffffffffffffffffffffffffff\n          and\n          0xffffffffffffffffffffffffffffffffffffffff\n          and\n          dup2\n          mstore\n          0x20\n          add\n          swap1\n          dup2\n          mstore\n          0x20\n          add\n          0x00\n          keccak256\n          sload\n            /* \"LOTERIA/ERC20.sol\":3157:3181  balances[msg.sender].sub */\n          tag_74\n          swap1\n            /* \"LOTERIA/ERC20.sol\":3157:3192  balances[msg.sender].sub(numTokens) */\n          swap2\n          swap1\n          0xffffffff\n          and\n          jump\t// in\n        tag_87:\n            /* \"LOTERIA/ERC20.sol\":3134:3142  balances */\n          0x00\n            /* \"LOTERIA/ERC20.sol\":3134:3154  balances[msg.sender] */\n          dup1\n            /* \"LOTERIA/ERC20.sol\":3143:3153  msg.sender */\n          caller\n            /* \"LOTERIA/ERC20.sol\":3134:3154  balances[msg.sender] */\n          0xffffffffffffffffffffffffffffffffffffffff\n          and\n          0xffffffffffffffffffffffffffffffffffffffff\n          and\n          dup2\n          mstore\n          0x20\n          add\n          swap1\n          dup2\n          mstore\n          0x20\n          add\n          0x00\n          keccak256\n            /* \"LOTERIA/ERC20.sol\":3134:3192  balances[msg.sender] = balances[msg.sender].sub(numTokens) */\n          dup2\n          swap1\n          sstore\n          pop\n            /* \"LOTERIA/ERC20.sol\":3225:3259  balances[recipient].add(numTokens) */\n          tag_88\n            /* \"LOTERIA/ERC20.sol\":3249:3258  numTokens */\n          dup3\n            /* \"LOTERIA/ERC20.sol\":3225:3233  balances */\n          0x00\n            /* \"LOTERIA/ERC20.sol\":3225:3244  balances[recipient] */\n          dup1\n            /* \"LOTERIA/ERC20.sol\":3234:3243  recipient */\n          dup7\n            /* \"LOTERIA/ERC20.sol\":3225:3244  balances[recipient] */\n          0xffffffffffffffffffffffffffffffffffffffff\n          and\n          0xffffffffffffffffffffffffffffffffffffffff\n          and\n          dup2\n          mstore\n          0x20\n          add\n          swap1\n          dup2\n          mstore\n          0x20\n          add\n          0x00\n          keccak256\n          sload\n            /* \"LOTERIA/ERC20.sol\":3225:3248  balances[recipient].add */\n          tag_77\n          swap1\n            /* \"LOTERIA/ERC20.sol\":3225:3259  balances[recipient].add(numTokens) */\n          swap2\n          swap1\n          0xffffffff\n          and\n          jump\t// in\n        tag_88:\n            /* \"LOTERIA/ERC20.sol\":3203:3211  balances */\n          0x00\n            /* \"LOTERIA/ERC20.sol\":3203:3222  balances[recipient] */\n          dup1\n            /* \"LOTERIA/ERC20.sol\":3212:3221  recipient */\n          dup6\n            /* \"LOTERIA/ERC20.sol\":3203:3222  balances[recipient] */\n          0xffffffffffffffffffffffffffffffffffffffff\n          and\n          0xffffffffffffffffffffffffffffffffffffffff\n          and\n          dup2\n          mstore\n          0x20\n          add\n          swap1\n          dup2\n          mstore\n          0x20\n          add\n          0x00\n          keccak256\n            /* \"LOTERIA/ERC20.sol\":3203:3259  balances[recipient] = balances[recipient].add(numTokens) */\n          dup2\n          swap1\n          sstore\n          pop\n            /* \"LOTERIA/ERC20.sol\":3296:3305  recipient */\n          dup3\n            /* \"LOTERIA/ERC20.sol\":3275:3317  Transfer(msg.sender, recipient, numTokens) */\n          0xffffffffffffffffffffffffffffffffffffffff\n          and\n            /* \"LOTERIA/ERC20.sol\":3284:3294  msg.sender */\n          caller\n            /* \"LOTERIA/ERC20.sol\":3275:3317  Transfer(msg.sender, recipient, numTokens) */\n          0xffffffffffffffffffffffffffffffffffffffff\n          and\n          0xddf252ad1be2c89b69c2b068fc378daa952ba7f163c4a11628f55a4df523b3ef\n            /* \"LOTERIA/ERC20.sol\":3307:3316  numTokens */\n          dup5\n            /* \"LOTERIA/ERC20.sol\":3275:3317  Transfer(msg.sender, recipient, numTokens) */\n          mload(0x40)\n          tag_89\n          swap2\n          swap1\n          tag_28\n          jump\t// in\n        tag_89:\n          mload(0x40)\n          dup1\n          swap2\n          sub\n          swap1\n          log3\n            /* \"LOTERIA/ERC20.sol\":3335:3339  true */\n          0x01\n            /* \"LOTERIA/ERC20.sol\":3328:3339  return true */\n          swap1\n          pop\n            /* \"LOTERIA/ERC20.sol\":2984:3347  function transfer( address recipient, uint256 numTokens) public override returns(bool){\r... */\n          swap3\n          swap2\n          pop\n          pop\n          jump\t// out\n            /* \"LOTERIA/ERC20.sol\":2837:2976  function allowance(address owner, address delegate) public override view returns(uint256){\r... */\n        tag_61:\n            /* \"LOTERIA/ERC20.sol\":2918:2925  uint256 */\n          0x00\n            /* \"LOTERIA/ERC20.sol\":2944:2951  allowed */\n          0x01\n            /* \"LOTERIA/ERC20.sol\":2944:2958  allowed[owner] */\n          0x00\n            /* \"LOTERIA/ERC20.sol\":2952:2957  owner */\n          dup5\n            /* \"LOTERIA/ERC20.sol\":2944:2958  allowed[owner] */\n          0xffffffffffffffffffffffffffffffffffffffff\n          and\n          0xffffffffffffffffffffffffffffffffffffffff\n          and\n          dup2\n          mstore\n          0x20\n          add\n          swap1\n          dup2\n          mstore\n          0x20\n          add\n          0x00\n          keccak256\n            /* \"LOTERIA/ERC20.sol\":2944:2968  allowed[owner][delegate] */\n          0x00\n            /* \"LOTERIA/ERC20.sol\":2959:2967  delegate */\n          dup4\n            /* \"LOTERIA/ERC20.sol\":2944:2968  allowed[owner][delegate] */\n          0xffffffffffffffffffffffffffffffffffffffff\n          and\n          0xffffffffffffffffffffffffffffffffffffffff\n          and\n          dup2\n          mstore\n          0x20\n          add\n          swap1\n          dup2\n          mstore\n          0x20\n          add\n          0x00\n          keccak256\n          sload\n            /* \"LOTERIA/ERC20.sol\":2937:2968  return allowed[owner][delegate] */\n          swap1\n          pop\n            /* \"LOTERIA/ERC20.sol\":2837:2976  function allowance(address owner, address delegate) public override view returns(uint256){\r... */\n          swap3\n          swap2\n          pop\n          pop\n          jump\t// out\n            /* \"LOTERIA/SafeMath.sol\":318:437  function sub(uint256 a, uint256 b) internal pure returns (uint256) {\r... */\n        tag_74:\n            /* \"LOTERIA/SafeMath.sol\":376:383  uint256 */\n          0x00\n            /* \"LOTERIA/SafeMath.sol\":406:407  a */\n          dup3\n            /* \"LOTERIA/SafeMath.sol\":401:402  b */\n          dup3\n            /* \"LOTERIA/SafeMath.sol\":401:407  b <= a */\n          gt\n          iszero\n            /* \"LOTERIA/SafeMath.sol\":394:408  assert(b <= a) */\n          tag_92\n          jumpi\n          tag_93\n          tag_94\n          jump\t// in\n        tag_93:\n        tag_92:\n            /* \"LOTERIA/SafeMath.sol\":428:429  b */\n          dup2\n            /* \"LOTERIA/SafeMath.sol\":424:425  a */\n          dup4\n            /* \"LOTERIA/SafeMath.sol\":424:429  a - b */\n          tag_95\n          swap2\n          swap1\n          tag_96\n          jump\t// in\n        tag_95:\n            /* \"LOTERIA/SafeMath.sol\":417:429  return a - b */\n          swap1\n          pop\n            /* \"LOTERIA/SafeMath.sol\":318:437  function sub(uint256 a, uint256 b) internal pure returns (uint256) {\r... */\n          swap3\n          swap2\n          pop\n          pop\n          jump\t// out\n            /* \"LOTERIA/SafeMath.sol\":463:604  function add(uint256 a, uint256 b) internal pure returns (uint256) {\r... */\n        tag_77:\n            /* \"LOTERIA/SafeMath.sol\":521:528  uint256 */\n          0x00\n            /* \"LOTERIA/SafeMath.sol\":539:548  uint256 c */\n          dup1\n            /* \"LOTERIA/SafeMath.sol\":555:556  b */\n          dup3\n            /* \"LOTERIA/SafeMath.sol\":551:552  a */\n          dup5\n            /* \"LOTERIA/SafeMath.sol\":551:556  a + b */\n          tag_98\n          swap2\n          swap1\n          tag_68\n          jump\t// in\n        tag_98:\n            /* \"LOTERIA/SafeMath.sol\":539:556  uint256 c = a + b */\n          swap1\n          pop\n            /* \"LOTERIA/SafeMath.sol\":577:578  a */\n          dup4\n            /* \"LOTERIA/SafeMath.sol\":572:573  c */\n          dup2\n            /* \"LOTERIA/SafeMath.sol\":572:578  c >= a */\n          lt\n          iszero\n            /* \"LOTERIA/SafeMath.sol\":565:579  assert(c >= a) */\n          tag_99\n          jumpi\n          tag_100\n          tag_94\n          jump\t// in\n        tag_100:\n        tag_99:\n            /* \"LOTERIA/SafeMath.sol\":595:596  c */\n          dup1\n            /* \"LOTERIA/SafeMath.sol\":588:596  return c */\n          swap2\n          pop\n          pop\n            /* \"LOTERIA/SafeMath.sol\":463:604  function add(uint256 a, uint256 b) internal pure returns (uint256) {\r... */\n          swap3\n          swap2\n          pop\n          pop\n          jump\t// out\n            /* \"#utility.yul\":7:146   */\n        tag_102:\n            /* \"#utility.yul\":53:58   */\n          0x00\n            /* \"#utility.yul\":91:97   */\n          dup2\n            /* \"#utility.yul\":78:98   */\n          calldataload\n            /* \"#utility.yul\":69:98   */\n          swap1\n          pop\n            /* \"#utility.yul\":107:140   */\n          tag_104\n            /* \"#utility.yul\":134:139   */\n          dup2\n            /* \"#utility.yul\":107:140   */\n          tag_105\n          jump\t// in\n        tag_104:\n            /* \"#utility.yul\":7:146   */\n          swap3\n          swap2\n          pop\n          pop\n          jump\t// out\n            /* \"#utility.yul\":152:291   */\n        tag_106:\n            /* \"#utility.yul\":198:203   */\n          0x00\n            /* \"#utility.yul\":236:242   */\n          dup2\n            /* \"#utility.yul\":223:243   */\n          calldataload\n            /* \"#utility.yul\":214:243   */\n          swap1\n          pop\n            /* \"#utility.yul\":252:285   */\n          tag_108\n            /* \"#utility.yul\":279:284   */\n          dup2\n            /* \"#utility.yul\":252:285   */\n          tag_109\n          jump\t// in\n        tag_108:\n            /* \"#utility.yul\":152:291   */\n          swap3\n          swap2\n          pop\n          pop\n          jump\t// out\n            /* \"#utility.yul\":297:626   */\n        tag_48:\n            /* \"#utility.yul\":356:362   */\n          0x00\n            /* \"#utility.yul\":405:407   */\n          0x20\n            /* \"#utility.yul\":393:402   */\n          dup3\n            /* \"#utility.yul\":384:391   */\n          dup5\n            /* \"#utility.yul\":380:403   */\n          sub\n            /* \"#utility.yul\":376:408   */\n          slt\n            /* \"#utility.yul\":373:492   */\n          iszero\n          tag_111\n          jumpi\n            /* \"#utility.yul\":411:490   */\n          tag_112\n          tag_113\n          jump\t// in\n        tag_112:\n            /* \"#utility.yul\":373:492   */\n        tag_111:\n            /* \"#utility.yul\":531:532   */\n          0x00\n            /* \"#utility.yul\":556:609   */\n          tag_114\n            /* \"#utility.yul\":601:608   */\n          dup5\n            /* \"#utility.yul\":592:598   */\n          dup3\n            /* \"#utility.yul\":581:590   */\n          dup6\n            /* \"#utility.yul\":577:599   */\n          add\n            /* \"#utility.yul\":556:609   */\n          tag_102\n          jump\t// in\n        tag_114:\n            /* \"#utility.yul\":546:609   */\n          swap2\n          pop\n            /* \"#utility.yul\":502:619   */\n          pop\n            /* \"#utility.yul\":297:626   */\n          swap3\n          swap2\n          pop\n          pop\n          jump\t// out\n            /* \"#utility.yul\":632:1106   */\n        tag_60:\n            /* \"#utility.yul\":700:706   */\n          0x00\n            /* \"#utility.yul\":708:714   */\n          dup1\n            /* \"#utility.yul\":757:759   */\n          0x40\n            /* \"#utility.yul\":745:754   */\n          dup4\n            /* \"#utility.yul\":736:743   */\n          dup6\n            /* \"#utility.yul\":732:755   */\n          sub\n            /* \"#utility.yul\":728:760   */\n          slt\n            /* \"#utility.yul\":725:844   */\n          iszero\n          tag_116\n          jumpi\n            /* \"#utility.yul\":763:842   */\n          tag_117\n          tag_113\n          jump\t// in\n        tag_117:\n            /* \"#utility.yul\":725:844   */\n        tag_116:\n            /* \"#utility.yul\":883:884   */\n          0x00\n            /* \"#utility.yul\":908:961   */\n          tag_118\n            /* \"#utility.yul\":953:960   */\n          dup6\n            /* \"#utility.yul\":944:950   */\n          dup3\n            /* \"#utility.yul\":933:942   */\n          dup7\n            /* \"#utility.yul\":929:951   */\n          add\n            /* \"#utility.yul\":908:961   */\n          tag_102\n          jump\t// in\n        tag_118:\n            /* \"#utility.yul\":898:961   */\n          swap3\n          pop\n            /* \"#utility.yul\":854:971   */\n          pop\n            /* \"#utility.yul\":1010:1012   */\n          0x20\n            /* \"#utility.yul\":1036:1089   */\n          tag_119\n            /* \"#utility.yul\":1081:1088   */\n          dup6\n            /* \"#utility.yul\":1072:1078   */\n          dup3\n            /* \"#utility.yul\":1061:1070   */\n          dup7\n            /* \"#utility.yul\":1057:1079   */\n          add\n            /* \"#utility.yul\":1036:1089   */\n          tag_102\n          jump\t// in\n        tag_119:\n            /* \"#utility.yul\":1026:1089   */\n          swap2\n          pop\n            /* \"#utility.yul\":981:1099   */\n          pop\n            /* \"#utility.yul\":632:1106   */\n          swap3\n          pop\n          swap3\n          swap1\n          pop\n          jump\t// out\n            /* \"#utility.yul\":1112:1731   */\n        tag_35:\n            /* \"#utility.yul\":1189:1195   */\n          0x00\n            /* \"#utility.yul\":1197:1203   */\n          dup1\n            /* \"#utility.yul\":1205:1211   */\n          0x00\n            /* \"#utility.yul\":1254:1256   */\n          0x60\n            /* \"#utility.yul\":1242:1251   */\n          dup5\n            /* \"#utility.yul\":1233:1240   */\n          dup7\n            /* \"#utility.yul\":1229:1252   */\n          sub\n            /* \"#utility.yul\":1225:1257   */\n          slt\n            /* \"#utility.yul\":1222:1341   */\n          iszero\n          tag_121\n          jumpi\n            /* \"#utility.yul\":1260:1339   */\n          tag_122\n          tag_113\n          jump\t// in\n        tag_122:\n            /* \"#utility.yul\":1222:1341   */\n        tag_121:\n            /* \"#utility.yul\":1380:1381   */\n          0x00\n            /* \"#utility.yul\":1405:1458   */\n          tag_123\n            /* \"#utility.yul\":1450:1457   */\n          dup7\n            /* \"#utility.yul\":1441:1447   */\n          dup3\n            /* \"#utility.yul\":1430:1439   */\n          dup8\n            /* \"#utility.yul\":1426:1448   */\n          add\n            /* \"#utility.yul\":1405:1458   */\n          tag_102\n          jump\t// in\n        tag_123:\n            /* \"#utility.yul\":1395:1458   */\n          swap4\n          pop\n            /* \"#utility.yul\":1351:1468   */\n          pop\n            /* \"#utility.yul\":1507:1509   */\n          0x20\n            /* \"#utility.yul\":1533:1586   */\n          tag_124\n            /* \"#utility.yul\":1578:1585   */\n          dup7\n            /* \"#utility.yul\":1569:1575   */\n          dup3\n            /* \"#utility.yul\":1558:1567   */\n          dup8\n            /* \"#utility.yul\":1554:1576   */\n          add\n            /* \"#utility.yul\":1533:1586   */\n          tag_102\n          jump\t// in\n        tag_124:\n            /* \"#utility.yul\":1523:1586   */\n          swap3\n          pop\n            /* \"#utility.yul\":1478:1596   */\n          pop\n            /* \"#utility.yul\":1635:1637   */\n          0x40\n            /* \"#utility.yul\":1661:1714   */\n          tag_125\n            /* \"#utility.yul\":1706:1713   */\n          dup7\n            /* \"#utility.yul\":1697:1703   */\n          dup3\n            /* \"#utility.yul\":1686:1695   */\n          dup8\n            /* \"#utility.yul\":1682:1704   */\n          add\n            /* \"#utility.yul\":1661:1714   */\n          tag_106\n          jump\t// in\n        tag_125:\n            /* \"#utility.yul\":1651:1714   */\n          swap2\n          pop\n            /* \"#utility.yul\":1606:1724   */\n          pop\n            /* \"#utility.yul\":1112:1731   */\n          swap3\n          pop\n          swap3\n          pop\n          swap3\n          jump\t// out\n            /* \"#utility.yul\":1737:2211   */\n        tag_21:\n            /* \"#utility.yul\":1805:1811   */\n          0x00\n            /* \"#utility.yul\":1813:1819   */\n          dup1\n            /* \"#utility.yul\":1862:1864   */\n          0x40\n            /* \"#utility.yul\":1850:1859   */\n          dup4\n            /* \"#utility.yul\":1841:1848   */\n          dup6\n            /* \"#utility.yul\":1837:1860   */\n          sub\n            /* \"#utility.yul\":1833:1865   */\n          slt\n            /* \"#utility.yul\":1830:1949   */\n          iszero\n          tag_127\n          jumpi\n            /* \"#utility.yul\":1868:1947   */\n          tag_128\n          tag_113\n          jump\t// in\n        tag_128:\n            /* \"#utility.yul\":1830:1949   */\n        tag_127:\n            /* \"#utility.yul\":1988:1989   */\n          0x00\n            /* \"#utility.yul\":2013:2066   */\n          tag_129\n            /* \"#utility.yul\":2058:2065   */\n          dup6\n            /* \"#utility.yul\":2049:2055   */\n          dup3\n            /* \"#utility.yul\":2038:2047   */\n          dup7\n            /* \"#utility.yul\":2034:2056   */\n          add\n            /* \"#utility.yul\":2013:2066   */\n          tag_102\n          jump\t// in\n        tag_129:\n            /* \"#utility.yul\":2003:2066   */\n          swap3\n          pop\n            /* \"#utility.yul\":1959:2076   */\n          pop\n            /* \"#utility.yul\":2115:2117   */\n          0x20\n            /* \"#utility.yul\":2141:2194   */\n          tag_130\n            /* \"#utility.yul\":2186:2193   */\n          dup6\n            /* \"#utility.yul\":2177:2183   */\n          dup3\n            /* \"#utility.yul\":2166:2175   */\n          dup7\n            /* \"#utility.yul\":2162:2184   */\n          add\n            /* \"#utility.yul\":2141:2194   */\n          tag_106\n          jump\t// in\n        tag_130:\n            /* \"#utility.yul\":2131:2194   */\n          swap2\n          pop\n            /* \"#utility.yul\":2086:2204   */\n          pop\n            /* \"#utility.yul\":1737:2211   */\n          swap3\n          pop\n          swap3\n          swap1\n          pop\n          jump\t// out\n            /* \"#utility.yul\":2217:2546   */\n        tag_31:\n            /* \"#utility.yul\":2276:2282   */\n          0x00\n            /* \"#utility.yul\":2325:2327   */\n          0x20\n            /* \"#utility.yul\":2313:2322   */\n          dup3\n            /* \"#utility.yul\":2304:2311   */\n          dup5\n            /* \"#utility.yul\":2300:2323   */\n          sub\n            /* \"#utility.yul\":2296:2328   */\n          slt\n            /* \"#utility.yul\":2293:2412   */\n          iszero\n          tag_132\n          jumpi\n            /* \"#utility.yul\":2331:2410   */\n          tag_133\n          tag_113\n          jump\t// in\n        tag_133:\n            /* \"#utility.yul\":2293:2412   */\n        tag_132:\n            /* \"#utility.yul\":2451:2452   */\n          0x00\n            /* \"#utility.yul\":2476:2529   */\n          tag_134\n            /* \"#utility.yul\":2521:2528   */\n          dup5\n            /* \"#utility.yul\":2512:2518   */\n          dup3\n            /* \"#utility.yul\":2501:2510   */\n          dup6\n            /* \"#utility.yul\":2497:2519   */\n          add\n            /* \"#utility.yul\":2476:2529   */\n          tag_106\n          jump\t// in\n        tag_134:\n            /* \"#utility.yul\":2466:2529   */\n          swap2\n          pop\n            /* \"#utility.yul\":2422:2539   */\n          pop\n            /* \"#utility.yul\":2217:2546   */\n          swap3\n          swap2\n          pop\n          pop\n          jump\t// out\n            /* \"#utility.yul\":2552:2661   */\n        tag_135:\n            /* \"#utility.yul\":2633:2654   */\n          tag_137\n            /* \"#utility.yul\":2648:2653   */\n          dup2\n            /* \"#utility.yul\":2633:2654   */\n          tag_138\n          jump\t// in\n        tag_137:\n            /* \"#utility.yul\":2628:2631   */\n          dup3\n            /* \"#utility.yul\":2621:2655   */\n          mstore\n            /* \"#utility.yul\":2552:2661   */\n          pop\n          pop\n          jump\t// out\n            /* \"#utility.yul\":2667:3031   */\n        tag_139:\n            /* \"#utility.yul\":2755:2758   */\n          0x00\n            /* \"#utility.yul\":2783:2822   */\n          tag_141\n            /* \"#utility.yul\":2816:2821   */\n          dup3\n            /* \"#utility.yul\":2783:2822   */\n          tag_142\n          jump\t// in\n        tag_141:\n            /* \"#utility.yul\":2838:2909   */\n          tag_143\n            /* \"#utility.yul\":2902:2908   */\n          dup2\n            /* \"#utility.yul\":2897:2900   */\n          dup6\n            /* \"#utility.yul\":2838:2909   */\n          tag_144\n          jump\t// in\n        tag_143:\n            /* \"#utility.yul\":2831:2909   */\n          swap4\n          pop\n            /* \"#utility.yul\":2918:2970   */\n          tag_145\n            /* \"#utility.yul\":2963:2969   */\n          dup2\n            /* \"#utility.yul\":2958:2961   */\n          dup6\n            /* \"#utility.yul\":2951:2955   */\n          0x20\n            /* \"#utility.yul\":2944:2949   */\n          dup7\n            /* \"#utility.yul\":2940:2956   */\n          add\n            /* \"#utility.yul\":2918:2970   */\n          tag_146\n          jump\t// in\n        tag_145:\n            /* \"#utility.yul\":2995:3024   */\n          tag_147\n            /* \"#utility.yul\":3017:3023   */\n          dup2\n            /* \"#utility.yul\":2995:3024   */\n          tag_148\n          jump\t// in\n        tag_147:\n            /* \"#utility.yul\":2990:2993   */\n          dup5\n            /* \"#utility.yul\":2986:3025   */\n          add\n            /* \"#utility.yul\":2979:3025   */\n          swap2\n          pop\n            /* \"#utility.yul\":2759:3031   */\n          pop\n            /* \"#utility.yul\":2667:3031   */\n          swap3\n          swap2\n          pop\n          pop\n          jump\t// out\n            /* \"#utility.yul\":3037:3155   */\n        tag_149:\n            /* \"#utility.yul\":3124:3148   */\n          tag_151\n            /* \"#utility.yul\":3142:3147   */\n          dup2\n            /* \"#utility.yul\":3124:3148   */\n          tag_152\n          jump\t// in\n        tag_151:\n            /* \"#utility.yul\":3119:3122   */\n          dup3\n            /* \"#utility.yul\":3112:3149   */\n          mstore\n            /* \"#utility.yul\":3037:3155   */\n          pop\n          pop\n          jump\t// out\n            /* \"#utility.yul\":3161:3273   */\n        tag_153:\n            /* \"#utility.yul\":3244:3266   */\n          tag_155\n            /* \"#utility.yul\":3260:3265   */\n          dup2\n            /* \"#utility.yul\":3244:3266   */\n          tag_156\n          jump\t// in\n        tag_155:\n            /* \"#utility.yul\":3239:3242   */\n          dup3\n            /* \"#utility.yul\":3232:3267   */\n          mstore\n            /* \"#utility.yul\":3161:3273   */\n          pop\n          pop\n          jump\t// out\n            /* \"#utility.yul\":3279:3489   */\n        tag_24:\n            /* \"#utility.yul\":3366:3370   */\n          0x00\n            /* \"#utility.yul\":3404:3406   */\n          0x20\n            /* \"#utility.yul\":3393:3402   */\n          dup3\n            /* \"#utility.yul\":3389:3407   */\n          add\n            /* \"#utility.yul\":3381:3407   */\n          swap1\n          pop\n            /* \"#utility.yul\":3417:3482   */\n          tag_158\n            /* \"#utility.yul\":3479:3480   */\n          0x00\n            /* \"#utility.yul\":3468:3477   */\n          dup4\n            /* \"#utility.yul\":3464:3481   */\n          add\n            /* \"#utility.yul\":3455:3461   */\n          dup5\n            /* \"#utility.yul\":3417:3482   */\n          tag_135\n          jump\t// in\n        tag_158:\n            /* \"#utility.yul\":3279:3489   */\n          swap3\n          swap2\n          pop\n          pop\n          jump\t// out\n            /* \"#utility.yul\":3495:3808   */\n        tag_18:\n            /* \"#utility.yul\":3608:3612   */\n          0x00\n            /* \"#utility.yul\":3646:3648   */\n          0x20\n            /* \"#utility.yul\":3635:3644   */\n          dup3\n            /* \"#utility.yul\":3631:3649   */\n          add\n            /* \"#utility.yul\":3623:3649   */\n          swap1\n          pop\n            /* \"#utility.yul\":3695:3704   */\n          dup2\n            /* \"#utility.yul\":3689:3693   */\n          dup2\n            /* \"#utility.yul\":3685:3705   */\n          sub\n            /* \"#utility.yul\":3681:3682   */\n          0x00\n            /* \"#utility.yul\":3670:3679   */\n          dup4\n            /* \"#utility.yul\":3666:3683   */\n          add\n            /* \"#utility.yul\":3659:3706   */\n          mstore\n            /* \"#utility.yul\":3723:3801   */\n          tag_160\n            /* \"#utility.yul\":3796:3800   */\n          dup2\n            /* \"#utility.yul\":3787:3793   */\n          dup5\n            /* \"#utility.yul\":3723:3801   */\n          tag_139\n          jump\t// in\n        tag_160:\n            /* \"#utility.yul\":3715:3801   */\n          swap1\n          pop\n            /* \"#utility.yul\":3495:3808   */\n          swap3\n          swap2\n          pop\n          pop\n          jump\t// out\n            /* \"#utility.yul\":3814:4036   */\n        tag_28:\n            /* \"#utility.yul\":3907:3911   */\n          0x00\n            /* \"#utility.yul\":3945:3947   */\n          0x20\n            /* \"#utility.yul\":3934:3943   */\n          dup3\n            /* \"#utility.yul\":3930:3948   */\n          add\n            /* \"#utility.yul\":3922:3948   */\n          swap1\n          pop\n            /* \"#utility.yul\":3958:4029   */\n          tag_162\n            /* \"#utility.yul\":4026:4027   */\n          0x00\n            /* \"#utility.yul\":4015:4024   */\n          dup4\n            /* \"#utility.yul\":4011:4028   */\n          add\n            /* \"#utility.yul\":4002:4008   */\n          dup5\n            /* \"#utility.yul\":3958:4029   */\n          tag_149\n          jump\t// in\n        tag_162:\n            /* \"#utility.yul\":3814:4036   */\n          swap3\n          swap2\n          pop\n          pop\n          jump\t// out\n            /* \"#utility.yul\":4042:4256   */\n        tag_41:\n            /* \"#utility.yul\":4131:4135   */\n          0x00\n            /* \"#utility.yul\":4169:4171   */\n          0x20\n            /* \"#utility.yul\":4158:4167   */\n          dup3\n            /* \"#utility.yul\":4154:4172   */\n          add\n            /* \"#utility.yul\":4146:4172   */\n          swap1\n          pop\n            /* \"#utility.yul\":4182:4249   */\n          tag_164\n            /* \"#utility.yul\":4246:4247   */\n          0x00\n            /* \"#utility.yul\":4235:4244   */\n          dup4\n            /* \"#utility.yul\":4231:4248   */\n          add\n            /* \"#utility.yul\":4222:4228   */\n          dup5\n            /* \"#utility.yul\":4182:4249   */\n          tag_153\n          jump\t// in\n        tag_164:\n            /* \"#utility.yul\":4042:4256   */\n          swap3\n          swap2\n          pop\n          pop\n          jump\t// out\n            /* \"#utility.yul\":4343:4442   */\n        tag_142:\n            /* \"#utility.yul\":4395:4401   */\n          0x00\n            /* \"#utility.yul\":4429:4434   */\n          dup2\n            /* \"#utility.yul\":4423:4435   */\n          mload\n            /* \"#utility.yul\":4413:4435   */\n          swap1\n          pop\n            /* \"#utility.yul\":4343:4442   */\n          swap2\n          swap1\n          pop\n          jump\t// out\n            /* \"#utility.yul\":4448:4617   */\n        tag_144:\n            /* \"#utility.yul\":4532:4543   */\n          0x00\n            /* \"#utility.yul\":4566:4572   */\n          dup3\n            /* \"#utility.yul\":4561:4564   */\n          dup3\n            /* \"#utility.yul\":4554:4573   */\n          mstore\n            /* \"#utility.yul\":4606:4610   */\n          0x20\n            /* \"#utility.yul\":4601:4604   */\n          dup3\n            /* \"#utility.yul\":4597:4611   */\n          add\n            /* \"#utility.yul\":4582:4611   */\n          swap1\n          pop\n            /* \"#utility.yul\":4448:4617   */\n          swap3\n          swap2\n          pop\n          pop\n          jump\t// out\n            /* \"#utility.yul\":4623:4928   */\n        tag_68:\n            /* \"#utility.yul\":4663:4666   */\n          0x00\n            /* \"#utility.yul\":4682:4702   */\n          tag_170\n            /* \"#utility.yul\":4700:4701   */\n          dup3\n            /* \"#utility.yul\":4682:4702   */\n          tag_152\n          jump\t// in\n        tag_170:\n            /* \"#utility.yul\":4677:4702   */\n          swap2\n          pop\n            /* \"#utility.yul\":4716:4736   */\n          tag_171\n            /* \"#utility.yul\":4734:4735   */\n          dup4\n            /* \"#utility.yul\":4716:4736   */\n          tag_152\n          jump\t// in\n        tag_171:\n            /* \"#utility.yul\":4711:4736   */\n          swap3\n          pop\n            /* \"#utility.yul\":4870:4871   */\n          dup3\n            /* \"#utility.yul\":4802:4868   */\n          0xffffffffffffffffffffffffffffffffffffffffffffffffffffffffffffffff\n            /* \"#utility.yul\":4798:4872   */\n          sub\n            /* \"#utility.yul\":4795:4796   */\n          dup3\n            /* \"#utility.yul\":4792:4873   */\n          gt\n            /* \"#utility.yul\":4789:4896   */\n          iszero\n          tag_172\n          jumpi\n            /* \"#utility.yul\":4876:4894   */\n          tag_173\n          tag_174\n          jump\t// in\n        tag_173:\n            /* \"#utility.yul\":4789:4896   */\n        tag_172:\n            /* \"#utility.yul\":4920:4921   */\n          dup3\n            /* \"#utility.yul\":4917:4918   */\n          dup3\n            /* \"#utility.yul\":4913:4922   */\n          add\n            /* \"#utility.yul\":4906:4922   */\n          swap1\n          pop\n            /* \"#utility.yul\":4623:4928   */\n          swap3\n          swap2\n          pop\n          pop\n          jump\t// out\n            /* \"#utility.yul\":4934:5125   */\n        tag_96:\n            /* \"#utility.yul\":4974:4978   */\n          0x00\n            /* \"#utility.yul\":4994:5014   */\n          tag_176\n            /* \"#utility.yul\":5012:5013   */\n          dup3\n            /* \"#utility.yul\":4994:5014   */\n          tag_152\n          jump\t// in\n        tag_176:\n            /* \"#utility.yul\":4989:5014   */\n          swap2\n          pop\n            /* \"#utility.yul\":5028:5048   */\n          tag_177\n            /* \"#utility.yul\":5046:5047   */\n          dup4\n            /* \"#utility.yul\":5028:5048   */\n          tag_152\n          jump\t// in\n        tag_177:\n            /* \"#utility.yul\":5023:5048   */\n          swap3\n          pop\n            /* \"#utility.yul\":5067:5068   */\n          dup3\n            /* \"#utility.yul\":5064:5065   */\n          dup3\n            /* \"#utility.yul\":5061:5069   */\n          lt\n            /* \"#utility.yul\":5058:5092   */\n          iszero\n          tag_178\n          jumpi\n            /* \"#utility.yul\":5072:5090   */\n          tag_179\n          tag_174\n          jump\t// in\n        tag_179:\n            /* \"#utility.yul\":5058:5092   */\n        tag_178:\n            /* \"#utility.yul\":5117:5118   */\n          dup3\n            /* \"#utility.yul\":5114:5115   */\n          dup3\n            /* \"#utility.yul\":5110:5119   */\n          sub\n            /* \"#utility.yul\":5102:5119   */\n          swap1\n          pop\n            /* \"#utility.yul\":4934:5125   */\n          swap3\n          swap2\n          pop\n          pop\n          jump\t// out\n            /* \"#utility.yul\":5131:5227   */\n        tag_180:\n            /* \"#utility.yul\":5168:5175   */\n          0x00\n            /* \"#utility.yul\":5197:5221   */\n          tag_182\n            /* \"#utility.yul\":5215:5220   */\n          dup3\n            /* \"#utility.yul\":5197:5221   */\n          tag_183\n          jump\t// in\n        tag_182:\n            /* \"#utility.yul\":5186:5221   */\n          swap1\n          pop\n            /* \"#utility.yul\":5131:5227   */\n          swap2\n          swap1\n          pop\n          jump\t// out\n            /* \"#utility.yul\":5233:5323   */\n        tag_138:\n            /* \"#utility.yul\":5267:5274   */\n          0x00\n            /* \"#utility.yul\":5310:5315   */\n          dup2\n            /* \"#utility.yul\":5303:5316   */\n          iszero\n            /* \"#utility.yul\":5296:5317   */\n          iszero\n            /* \"#utility.yul\":5285:5317   */\n          swap1\n          pop\n            /* \"#utility.yul\":5233:5323   */\n          swap2\n          swap1\n          pop\n          jump\t// out\n            /* \"#utility.yul\":5329:5455   */\n        tag_183:\n            /* \"#utility.yul\":5366:5373   */\n          0x00\n            /* \"#utility.yul\":5406:5448   */\n          0xffffffffffffffffffffffffffffffffffffffff\n            /* \"#utility.yul\":5399:5404   */\n          dup3\n            /* \"#utility.yul\":5395:5449   */\n          and\n            /* \"#utility.yul\":5384:5449   */\n          swap1\n          pop\n            /* \"#utility.yul\":5329:5455   */\n          swap2\n          swap1\n          pop\n          jump\t// out\n            /* \"#utility.yul\":5461:5538   */\n        tag_152:\n            /* \"#utility.yul\":5498:5505   */\n          0x00\n            /* \"#utility.yul\":5527:5532   */\n          dup2\n            /* \"#utility.yul\":5516:5532   */\n          swap1\n          pop\n            /* \"#utility.yul\":5461:5538   */\n          swap2\n          swap1\n          pop\n          jump\t// out\n            /* \"#utility.yul\":5544:5630   */\n        tag_156:\n            /* \"#utility.yul\":5579:5586   */\n          0x00\n            /* \"#utility.yul\":5619:5623   */\n          0xff\n            /* \"#utility.yul\":5612:5617   */\n          dup3\n            /* \"#utility.yul\":5608:5624   */\n          and\n            /* \"#utility.yul\":5597:5624   */\n          swap1\n          pop\n            /* \"#utility.yul\":5544:5630   */\n          swap2\n          swap1\n          pop\n          jump\t// out\n            /* \"#utility.yul\":5636:5943   */\n        tag_146:\n            /* \"#utility.yul\":5704:5705   */\n          0x00\n            /* \"#utility.yul\":5714:5827   */\n        tag_189:\n            /* \"#utility.yul\":5728:5734   */\n          dup4\n            /* \"#utility.yul\":5725:5726   */\n          dup2\n            /* \"#utility.yul\":5722:5735   */\n          lt\n            /* \"#utility.yul\":5714:5827   */\n          iszero\n          tag_191\n          jumpi\n            /* \"#utility.yul\":5813:5814   */\n          dup1\n            /* \"#utility.yul\":5808:5811   */\n          dup3\n            /* \"#utility.yul\":5804:5815   */\n          add\n            /* \"#utility.yul\":5798:5816   */\n          mload\n            /* \"#utility.yul\":5794:5795   */\n          dup2\n            /* \"#utility.yul\":5789:5792   */\n          dup5\n            /* \"#utility.yul\":5785:5796   */\n          add\n            /* \"#utility.yul\":5778:5817   */\n          mstore\n            /* \"#utility.yul\":5750:5752   */\n          0x20\n            /* \"#utility.yul\":5747:5748   */\n          dup2\n            /* \"#utility.yul\":5743:5753   */\n          add\n            /* \"#utility.yul\":5738:5753   */\n          swap1\n          pop\n            /* \"#utility.yul\":5714:5827   */\n          jump(tag_189)\n        tag_191:\n            /* \"#utility.yul\":5845:5851   */\n          dup4\n            /* \"#utility.yul\":5842:5843   */\n          dup2\n            /* \"#utility.yul\":5839:5852   */\n          gt\n            /* \"#utility.yul\":5836:5937   */\n          iszero\n          tag_192\n          jumpi\n            /* \"#utility.yul\":5925:5926   */\n          0x00\n            /* \"#utility.yul\":5916:5922   */\n          dup5\n            /* \"#utility.yul\":5911:5914   */\n          dup5\n            /* \"#utility.yul\":5907:5923   */\n          add\n            /* \"#utility.yul\":5900:5927   */\n          mstore\n            /* \"#utility.yul\":5836:5937   */\n        tag_192:\n            /* \"#utility.yul\":5685:5943   */\n          pop\n            /* \"#utility.yul\":5636:5943   */\n          pop\n          pop\n          pop\n          jump\t// out\n            /* \"#utility.yul\":5949:6129   */\n        tag_94:\n            /* \"#utility.yul\":5997:6074   */\n          0x4e487b7100000000000000000000000000000000000000000000000000000000\n            /* \"#utility.yul\":5994:5995   */\n          0x00\n            /* \"#utility.yul\":5987:6075   */\n          mstore\n            /* \"#utility.yul\":6094:6098   */\n          0x01\n            /* \"#utility.yul\":6091:6092   */\n          0x04\n            /* \"#utility.yul\":6084:6099   */\n          mstore\n            /* \"#utility.yul\":6118:6122   */\n          0x24\n            /* \"#utility.yul\":6115:6116   */\n          0x00\n            /* \"#utility.yul\":6108:6123   */\n          revert\n            /* \"#utility.yul\":6135:6315   */\n        tag_174:\n            /* \"#utility.yul\":6183:6260   */\n          0x4e487b7100000000000000000000000000000000000000000000000000000000\n            /* \"#utility.yul\":6180:6181   */\n          0x00\n            /* \"#utility.yul\":6173:6261   */\n          mstore\n            /* \"#utility.yul\":6280:6284   */\n          0x11\n            /* \"#utility.yul\":6277:6278   */\n          0x04\n            /* \"#utility.yul\":6270:6285   */\n          mstore\n            /* \"#utility.yul\":6304:6308   */\n          0x24\n            /* \"#utility.yul\":6301:6302   */\n          0x00\n            /* \"#utility.yul\":6294:6309   */\n          revert\n            /* \"#utility.yul\":6444:6561   */\n        tag_113:\n            /* \"#utility.yul\":6553:6554   */\n          0x00\n            /* \"#utility.yul\":6550:6551   */\n          dup1\n            /* \"#utility.yul\":6543:6555   */\n          revert\n            /* \"#utility.yul\":6567:6669   */\n        tag_148:\n            /* \"#utility.yul\":6608:6614   */\n          0x00\n            /* \"#utility.yul\":6659:6661   */\n          0x1f\n            /* \"#utility.yul\":6655:6662   */\n          not\n            /* \"#utility.yul\":6650:6652   */\n          0x1f\n            /* \"#utility.yul\":6643:6648   */\n          dup4\n            /* \"#utility.yul\":6639:6653   */\n          add\n            /* \"#utility.yul\":6635:6663   */\n          and\n            /* \"#utility.yul\":6625:6663   */\n          swap1\n          pop\n            /* \"#utility.yul\":6567:6669   */\n          swap2\n          swap1\n          pop\n          jump\t// out\n            /* \"#utility.yul\":6675:6797   */\n        tag_105:\n            /* \"#utility.yul\":6748:6772   */\n          tag_200\n            /* \"#utility.yul\":6766:6771   */\n          dup2\n            /* \"#utility.yul\":6748:6772   */\n          tag_180\n          jump\t// in\n        tag_200:\n            /* \"#utility.yul\":6741:6746   */\n          dup2\n            /* \"#utility.yul\":6738:6773   */\n          eq\n            /* \"#utility.yul\":6728:6791   */\n          tag_201\n          jumpi\n            /* \"#utility.yul\":6787:6788   */\n          0x00\n            /* \"#utility.yul\":6784:6785   */\n          dup1\n            /* \"#utility.yul\":6777:6789   */\n          revert\n            /* \"#utility.yul\":6728:6791   */\n        tag_201:\n            /* \"#utility.yul\":6675:6797   */\n          pop\n          jump\t// out\n            /* \"#utility.yul\":6803:6925   */\n        tag_109:\n            /* \"#utility.yul\":6876:6900   */\n          tag_203\n            /* \"#utility.yul\":6894:6899   */\n          dup2\n            /* \"#utility.yul\":6876:6900   */\n          tag_152\n          jump\t// in\n        tag_203:\n            /* \"#utility.yul\":6869:6874   */\n          dup2\n            /* \"#utility.yul\":6866:6901   */\n          eq\n            /* \"#utility.yul\":6856:6919   */\n          tag_204\n          jumpi\n            /* \"#utility.yul\":6915:6916   */\n          0x00\n            /* \"#utility.yul\":6912:6913   */\n          dup1\n            /* \"#utility.yul\":6905:6917   */\n          revert\n            /* \"#utility.yul\":6856:6919   */\n        tag_204:\n            /* \"#utility.yul\":6803:6925   */\n          pop\n          jump\t// out\n\n        auxdata: 0xa26469706673582212204fee6cccede80284d2212a6fb7a113091179edf4965bafcb5e03ddf5cdbfb15b64736f6c63430008070033\n    }\n}\n",
				"bytecode": {
					"linkReferences": {},
					"object": "60806040526127106003556005600455600060075534801561002057600080fd5b506003546040516100309061011d565b61003a9190610139565b604051809103906000f080158015610056573d6000803e3d6000fd5b506000806101000a81548173ffffffffffffffffffffffffffffffffffffffff021916908373ffffffffffffffffffffffffffffffffffffffff16021790555033600160006101000a81548173ffffffffffffffffffffffffffffffffffffffff021916908373ffffffffffffffffffffffffffffffffffffffff16021790555030600260006101000a81548173ffffffffffffffffffffffffffffffffffffffff021916908373ffffffffffffffffffffffffffffffffffffffff16021790555061015e565b6111dc80610d9d83390190565b61013381610154565b82525050565b600060208201905061014e600083018461012a565b92915050565b6000819050919050565b610c308061016d6000396000f3fe60806040526004361061007b5760003560e01c80638da5cb5b1161004e5780638da5cb5b1461012a578063d1931ccf14610155578063e1a01e6714610171578063fd889ff51461019c5761007b565b80632315c54a1461008057806327909f27146100ab5780637c1b38bf146100d65780638a8a3eaa146100ff575b600080fd5b34801561008c57600080fd5b506100956101c7565b6040516100a29190610980565b60405180910390f35b3480156100b757600080fd5b506100c0610278565b6040516100cd9190610980565b60405180910390f35b3480156100e257600080fd5b506100fd60048036038101906100f891906107fb565b61027e565b005b34801561010b57600080fd5b5061011461039e565b6040516101219190610980565b60405180910390f35b34801561013657600080fd5b5061013f610471565b60405161014c91906108dc565b60405180910390f35b61016f600480360381019061016a91906107fb565b610497565b005b34801561017d57600080fd5b5061018661067a565b60405161019391906108dc565b60405180910390f35b3480156101a857600080fd5b506101b16106a0565b6040516101be9190610980565b60405180910390f35b60008060009054906101000a900473ffffffffffffffffffffffffffffffffffffffff1673ffffffffffffffffffffffffffffffffffffffff166370a08231336040518263ffffffff1660e01b815260040161022391906108dc565b60206040518083038186803b15801561023b57600080fd5b505afa15801561024f573d6000803e3d6000fd5b505050506040513d601f19601f820116820180604052508101906102739190610828565b905090565b60045481565b33600160009054906101000a900473ffffffffffffffffffffffffffffffffffffffff1673ffffffffffffffffffffffffffffffffffffffff168173ffffffffffffffffffffffffffffffffffffffff161461030f576040517f08c379a000000000000000000000000000000000000000000000000000000000815260040161030690610940565b60405180910390fd5b60008054906101000a900473ffffffffffffffffffffffffffffffffffffffff1673ffffffffffffffffffffffffffffffffffffffff16631d43cc98836040518263ffffffff1660e01b81526004016103689190610980565b600060405180830381600087803b15801561038257600080fd5b505af1158015610396573d6000803e3d6000fd5b505050505050565b60008060009054906101000a900473ffffffffffffffffffffffffffffffffffffffff1673ffffffffffffffffffffffffffffffffffffffff166370a08231600160009054906101000a900473ffffffffffffffffffffffffffffffffffffffff166040518263ffffffff1660e01b815260040161041c91906108dc565b60206040518083038186803b15801561043457600080fd5b505afa158015610448573d6000803e3d6000fd5b505050506040513d601f19601f8201168201806040525081019061046c9190610828565b905090565b600160009054906101000a900473ffffffffffffffffffffffffffffffffffffffff1681565b60006104a282610773565b9050803410156104e7576040517f08c379a00000000000000000000000000000000000000000000000000000000081526004016104de90610960565b60405180910390fd5b600081346104f59190610a2f565b90503373ffffffffffffffffffffffffffffffffffffffff166108fc829081150290604051600060405180830381858888f1935050505015801561053d573d6000803e3d6000fd5b5060006105486106a0565b90508084111561058d576040517f08c379a000000000000000000000000000000000000000000000000000000000815260040161058490610920565b60405180910390fd5b60008054906101000a900473ffffffffffffffffffffffffffffffffffffffff1673ffffffffffffffffffffffffffffffffffffffff1663a9059cbb33866040518363ffffffff1660e01b81526004016105e89291906108f7565b602060405180830381600087803b15801561060257600080fd5b505af1158015610616573d6000803e3d6000fd5b505050506040513d601f19601f8201168201806040525081019061063a91906107ce565b507fc5d46be962adb867acf29dce93ab611e9064bffee951e4db9e52c693f73f4c38843360405161066c92919061099b565b60405180910390a150505050565b600260009054906101000a900473ffffffffffffffffffffffffffffffffffffffff1681565b60008060009054906101000a900473ffffffffffffffffffffffffffffffffffffffff1673ffffffffffffffffffffffffffffffffffffffff166370a08231600260009054906101000a900473ffffffffffffffffffffffffffffffffffffffff166040518263ffffffff1660e01b815260040161071e91906108dc565b60206040518083038186803b15801561073657600080fd5b505afa15801561074a573d6000803e3d6000fd5b505050506040513d601f19601f8201168201806040525081019061076e9190610828565b905090565b600066038d7ea4c680008261078891906109d5565b9050919050565b60008151905061079e81610bcc565b92915050565b6000813590506107b381610be3565b92915050565b6000815190506107c881610be3565b92915050565b6000602082840312156107e4576107e3610ada565b5b60006107f28482850161078f565b91505092915050565b60006020828403121561081157610810610ada565b5b600061081f848285016107a4565b91505092915050565b60006020828403121561083e5761083d610ada565b5b600061084c848285016107b9565b91505092915050565b61085e81610a63565b82525050565b60006108716024836109c4565b915061087c82610adf565b604082019050919050565b6000610894602e836109c4565b915061089f82610b2e565b604082019050919050565b60006108b76028836109c4565b91506108c282610b7d565b604082019050919050565b6108d681610aa1565b82525050565b60006020820190506108f16000830184610855565b92915050565b600060408201905061090c6000830185610855565b61091960208301846108cd565b9392505050565b6000602082019050818103600083015261093981610864565b9050919050565b6000602082019050818103600083015261095981610887565b9050919050565b60006020820190508181036000830152610979816108aa565b9050919050565b600060208201905061099560008301846108cd565b92915050565b60006040820190506109b060008301856108cd565b6109bd6020830184610855565b9392505050565b600082825260208201905092915050565b60006109e082610aa1565b91506109eb83610aa1565b9250817fffffffffffffffffffffffffffffffffffffffffffffffffffffffffffffffff0483118215151615610a2457610a23610aab565b5b828202905092915050565b6000610a3a82610aa1565b9150610a4583610aa1565b925082821015610a5857610a57610aab565b5b828203905092915050565b6000610a6e82610a81565b9050919050565b60008115159050919050565b600073ffffffffffffffffffffffffffffffffffffffff82169050919050565b6000819050919050565b7f4e487b7100000000000000000000000000000000000000000000000000000000600052601160045260246000fd5b600080fd5b7f436f6d70726120756e206e756d65726f20646520546f6b656e7320616465637560008201527f61646f2e00000000000000000000000000000000000000000000000000000000602082015250565b7f4e6f207469656e6573207065726d69736f73207061726120656a65637574617260008201527f20657374612066756e63696f6e2e000000000000000000000000000000000000602082015250565b7f436f6d707261206d656e6f7320546f6b656e73206f207061676120636f6e206d60008201527f6173204574686572000000000000000000000000000000000000000000000000602082015250565b610bd581610a75565b8114610be057600080fd5b50565b610bec81610aa1565b8114610bf757600080fd5b5056fea26469706673582212205cc42bb521c6c90b1ca2d8cf29a6a65127b820a0cc92d27f06cb0b79561c107264736f6c63430008070033608060405234801561001057600080fd5b50604051620011dc380380620011dc8339818101604052810190610034919061009b565b806002819055506002546000803373ffffffffffffffffffffffffffffffffffffffff1673ffffffffffffffffffffffffffffffffffffffff16815260200190815260200160002081905550506100ee565b600081519050610095816100d7565b92915050565b6000602082840312156100b1576100b06100d2565b5b60006100bf84828501610086565b91505092915050565b6000819050919050565b600080fd5b6100e0816100c8565b81146100eb57600080fd5b50565b6110de80620000fe6000396000f3fe608060405234801561001057600080fd5b50600436106100a95760003560e01c8063313ce56711610071578063313ce567146101665780633b83e3cd1461018457806370a08231146101b457806395d89b41146101e4578063a9059cbb14610202578063dd62ed3e14610232576100a9565b806306fdde03146100ae578063095ea7b3146100cc57806318160ddd146100fc5780631d43cc981461011a57806323b872dd14610136575b600080fd5b6100b6610262565b6040516100c39190610e80565b60405180910390f35b6100e660048036038101906100e19190610d92565b61029b565b6040516100f39190610e65565b60405180910390f35b61010461038d565b6040516101119190610ea2565b60405180910390f35b610134600480360381019061012f9190610dd2565b610397565b005b610150600480360381019061014b9190610d3f565b610408565b60405161015d9190610e65565b60405180910390f35b61016e610783565b60405161017b9190610ebd565b60405180910390f35b61019e60048036038101906101999190610d3f565b610788565b6040516101ab9190610e65565b60405180910390f35b6101ce60048036038101906101c99190610cd2565b61096b565b6040516101db9190610ea2565b60405180910390f35b6101ec6109b3565b6040516101f99190610e80565b60405180910390f35b61021c60048036038101906102179190610d92565b6109ec565b6040516102299190610e65565b60405180910390f35b61024c60048036038101906102479190610cff565b610bce565b6040516102599190610ea2565b60405180910390f35b6040518060400160405280601181526020017f4552433230426c6f636b636861696e415a00000000000000000000000000000081525081565b600081600160003373ffffffffffffffffffffffffffffffffffffffff1673ffffffffffffffffffffffffffffffffffffffff16815260200190815260200160002060008573ffffffffffffffffffffffffffffffffffffffff1673ffffffffffffffffffffffffffffffffffffffff168152602001908152602001600020819055508273ffffffffffffffffffffffffffffffffffffffff163373ffffffffffffffffffffffffffffffffffffffff167f8c5be1e5ebec7d5bd14f71427d1e84f3dd0314c0f7b2291e5b200ac8c7c3b9258460405161037b9190610ea2565b60405180910390a36001905092915050565b6000600254905090565b80600260008282546103a99190610ef4565b92505081905550806000803373ffffffffffffffffffffffffffffffffffffffff1673ffffffffffffffffffffffffffffffffffffffff16815260200190815260200160002060008282546103fe9190610ef4565b9250508190555050565b60008060008573ffffffffffffffffffffffffffffffffffffffff1673ffffffffffffffffffffffffffffffffffffffff1681526020019081526020016000205482111561045557600080fd5b600160008573ffffffffffffffffffffffffffffffffffffffff1673ffffffffffffffffffffffffffffffffffffffff16815260200190815260200160002060003373ffffffffffffffffffffffffffffffffffffffff1673ffffffffffffffffffffffffffffffffffffffff168152602001908152602001600020548211156104de57600080fd5b61052f826000808773ffffffffffffffffffffffffffffffffffffffff1673ffffffffffffffffffffffffffffffffffffffff16815260200190815260200160002054610c5590919063ffffffff16565b6000808673ffffffffffffffffffffffffffffffffffffffff1673ffffffffffffffffffffffffffffffffffffffff1681526020019081526020016000208190555061060082600160008773ffffffffffffffffffffffffffffffffffffffff1673ffffffffffffffffffffffffffffffffffffffff16815260200190815260200160002060003373ffffffffffffffffffffffffffffffffffffffff1673ffffffffffffffffffffffffffffffffffffffff16815260200190815260200160002054610c5590919063ffffffff16565b600160008673ffffffffffffffffffffffffffffffffffffffff1673ffffffffffffffffffffffffffffffffffffffff16815260200190815260200160002060003373ffffffffffffffffffffffffffffffffffffffff1673ffffffffffffffffffffffffffffffffffffffff168152602001908152602001600020819055506106d1826000808673ffffffffffffffffffffffffffffffffffffffff1673ffffffffffffffffffffffffffffffffffffffff16815260200190815260200160002054610c7c90919063ffffffff16565b6000808573ffffffffffffffffffffffffffffffffffffffff1673ffffffffffffffffffffffffffffffffffffffff168152602001908152602001600020819055508273ffffffffffffffffffffffffffffffffffffffff168473ffffffffffffffffffffffffffffffffffffffff167fddf252ad1be2c89b69c2b068fc378daa952ba7f163c4a11628f55a4df523b3ef846040516107709190610ea2565b60405180910390a3600190509392505050565b600281565b60008060008573ffffffffffffffffffffffffffffffffffffffff1673ffffffffffffffffffffffffffffffffffffffff168152602001908152602001600020548211156107d557600080fd5b610826826000808773ffffffffffffffffffffffffffffffffffffffff1673ffffffffffffffffffffffffffffffffffffffff16815260200190815260200160002054610c5590919063ffffffff16565b6000808673ffffffffffffffffffffffffffffffffffffffff1673ffffffffffffffffffffffffffffffffffffffff168152602001908152602001600020819055506108b9826000808673ffffffffffffffffffffffffffffffffffffffff1673ffffffffffffffffffffffffffffffffffffffff16815260200190815260200160002054610c7c90919063ffffffff16565b6000808573ffffffffffffffffffffffffffffffffffffffff1673ffffffffffffffffffffffffffffffffffffffff168152602001908152602001600020819055508273ffffffffffffffffffffffffffffffffffffffff168473ffffffffffffffffffffffffffffffffffffffff167fddf252ad1be2c89b69c2b068fc378daa952ba7f163c4a11628f55a4df523b3ef846040516109589190610ea2565b60405180910390a3600190509392505050565b60008060008373ffffffffffffffffffffffffffffffffffffffff1673ffffffffffffffffffffffffffffffffffffffff168152602001908152602001600020549050919050565b6040518060400160405280600381526020017f455243000000000000000000000000000000000000000000000000000000000081525081565b60008060003373ffffffffffffffffffffffffffffffffffffffff1673ffffffffffffffffffffffffffffffffffffffff16815260200190815260200160002054821115610a3957600080fd5b610a8a826000803373ffffffffffffffffffffffffffffffffffffffff1673ffffffffffffffffffffffffffffffffffffffff16815260200190815260200160002054610c5590919063ffffffff16565b6000803373ffffffffffffffffffffffffffffffffffffffff1673ffffffffffffffffffffffffffffffffffffffff16815260200190815260200160002081905550610b1d826000808673ffffffffffffffffffffffffffffffffffffffff1673ffffffffffffffffffffffffffffffffffffffff16815260200190815260200160002054610c7c90919063ffffffff16565b6000808573ffffffffffffffffffffffffffffffffffffffff1673ffffffffffffffffffffffffffffffffffffffff168152602001908152602001600020819055508273ffffffffffffffffffffffffffffffffffffffff163373ffffffffffffffffffffffffffffffffffffffff167fddf252ad1be2c89b69c2b068fc378daa952ba7f163c4a11628f55a4df523b3ef84604051610bbc9190610ea2565b60405180910390a36001905092915050565b6000600160008473ffffffffffffffffffffffffffffffffffffffff1673ffffffffffffffffffffffffffffffffffffffff16815260200190815260200160002060008373ffffffffffffffffffffffffffffffffffffffff1673ffffffffffffffffffffffffffffffffffffffff16815260200190815260200160002054905092915050565b600082821115610c6857610c67611006565b5b8183610c749190610f4a565b905092915050565b6000808284610c8b9190610ef4565b905083811015610c9e57610c9d611006565b5b8091505092915050565b600081359050610cb78161107a565b92915050565b600081359050610ccc81611091565b92915050565b600060208284031215610ce857610ce7611064565b5b6000610cf684828501610ca8565b91505092915050565b60008060408385031215610d1657610d15611064565b5b6000610d2485828601610ca8565b9250506020610d3585828601610ca8565b9150509250929050565b600080600060608486031215610d5857610d57611064565b5b6000610d6686828701610ca8565b9350506020610d7786828701610ca8565b9250506040610d8886828701610cbd565b9150509250925092565b60008060408385031215610da957610da8611064565b5b6000610db785828601610ca8565b9250506020610dc885828601610cbd565b9150509250929050565b600060208284031215610de857610de7611064565b5b6000610df684828501610cbd565b91505092915050565b610e0881610f90565b82525050565b6000610e1982610ed8565b610e238185610ee3565b9350610e33818560208601610fd3565b610e3c81611069565b840191505092915050565b610e5081610fbc565b82525050565b610e5f81610fc6565b82525050565b6000602082019050610e7a6000830184610dff565b92915050565b60006020820190508181036000830152610e9a8184610e0e565b905092915050565b6000602082019050610eb76000830184610e47565b92915050565b6000602082019050610ed26000830184610e56565b92915050565b600081519050919050565b600082825260208201905092915050565b6000610eff82610fbc565b9150610f0a83610fbc565b9250827fffffffffffffffffffffffffffffffffffffffffffffffffffffffffffffffff03821115610f3f57610f3e611035565b5b828201905092915050565b6000610f5582610fbc565b9150610f6083610fbc565b925082821015610f7357610f72611035565b5b828203905092915050565b6000610f8982610f9c565b9050919050565b60008115159050919050565b600073ffffffffffffffffffffffffffffffffffffffff82169050919050565b6000819050919050565b600060ff82169050919050565b60005b83811015610ff1578082015181840152602081019050610fd6565b83811115611000576000848401525b50505050565b7f4e487b7100000000000000000000000000000000000000000000000000000000600052600160045260246000fd5b7f4e487b7100000000000000000000000000000000000000000000000000000000600052601160045260246000fd5b600080fd5b6000601f19601f8301169050919050565b61108381610f7e565b811461108e57600080fd5b50565b61109a81610fbc565b81146110a557600080fd5b5056fea26469706673582212204fee6cccede80284d2212a6fb7a113091179edf4965bafcb5e03ddf5cdbfb15b64736f6c63430008070033",
					"opcodes": "PUSH1 0x80 PUSH1 0x40 MSTORE PUSH2 0x2710 PUSH1 0x3 SSTORE PUSH1 0x5 PUSH1 0x4 SSTORE PUSH1 0x0 PUSH1 0x7 SSTORE CALLVALUE DUP1 ISZERO PUSH2 0x20 JUMPI PUSH1 0x0 DUP1 REVERT JUMPDEST POP PUSH1 0x3 SLOAD PUSH1 0x40 MLOAD PUSH2 0x30 SWAP1 PUSH2 0x11D JUMP JUMPDEST PUSH2 0x3A SWAP2 SWAP1 PUSH2 0x139 JUMP JUMPDEST PUSH1 0x40 MLOAD DUP1 SWAP2 SUB SWAP1 PUSH1 0x0 CREATE DUP1 ISZERO DUP1 ISZERO PUSH2 0x56 JUMPI RETURNDATASIZE PUSH1 0x0 DUP1 RETURNDATACOPY RETURNDATASIZE PUSH1 0x0 REVERT JUMPDEST POP PUSH1 0x0 DUP1 PUSH2 0x100 EXP DUP2 SLOAD DUP2 PUSH20 0xFFFFFFFFFFFFFFFFFFFFFFFFFFFFFFFFFFFFFFFF MUL NOT AND SWAP1 DUP4 PUSH20 0xFFFFFFFFFFFFFFFFFFFFFFFFFFFFFFFFFFFFFFFF AND MUL OR SWAP1 SSTORE POP CALLER PUSH1 0x1 PUSH1 0x0 PUSH2 0x100 EXP DUP2 SLOAD DUP2 PUSH20 0xFFFFFFFFFFFFFFFFFFFFFFFFFFFFFFFFFFFFFFFF MUL NOT AND SWAP1 DUP4 PUSH20 0xFFFFFFFFFFFFFFFFFFFFFFFFFFFFFFFFFFFFFFFF AND MUL OR SWAP1 SSTORE POP ADDRESS PUSH1 0x2 PUSH1 0x0 PUSH2 0x100 EXP DUP2 SLOAD DUP2 PUSH20 0xFFFFFFFFFFFFFFFFFFFFFFFFFFFFFFFFFFFFFFFF MUL NOT AND SWAP1 DUP4 PUSH20 0xFFFFFFFFFFFFFFFFFFFFFFFFFFFFFFFFFFFFFFFF AND MUL OR SWAP1 SSTORE POP PUSH2 0x15E JUMP JUMPDEST PUSH2 0x11DC DUP1 PUSH2 0xD9D DUP4 CODECOPY ADD SWAP1 JUMP JUMPDEST PUSH2 0x133 DUP2 PUSH2 0x154 JUMP JUMPDEST DUP3 MSTORE POP POP JUMP JUMPDEST PUSH1 0x0 PUSH1 0x20 DUP3 ADD SWAP1 POP PUSH2 0x14E PUSH1 0x0 DUP4 ADD DUP5 PUSH2 0x12A JUMP JUMPDEST SWAP3 SWAP2 POP POP JUMP JUMPDEST PUSH1 0x0 DUP2 SWAP1 POP SWAP2 SWAP1 POP JUMP JUMPDEST PUSH2 0xC30 DUP1 PUSH2 0x16D PUSH1 0x0 CODECOPY PUSH1 0x0 RETURN INVALID PUSH1 0x80 PUSH1 0x40 MSTORE PUSH1 0x4 CALLDATASIZE LT PUSH2 0x7B JUMPI PUSH1 0x0 CALLDATALOAD PUSH1 0xE0 SHR DUP1 PUSH4 0x8DA5CB5B GT PUSH2 0x4E JUMPI DUP1 PUSH4 0x8DA5CB5B EQ PUSH2 0x12A JUMPI DUP1 PUSH4 0xD1931CCF EQ PUSH2 0x155 JUMPI DUP1 PUSH4 0xE1A01E67 EQ PUSH2 0x171 JUMPI DUP1 PUSH4 0xFD889FF5 EQ PUSH2 0x19C JUMPI PUSH2 0x7B JUMP JUMPDEST DUP1 PUSH4 0x2315C54A EQ PUSH2 0x80 JUMPI DUP1 PUSH4 0x27909F27 EQ PUSH2 0xAB JUMPI DUP1 PUSH4 0x7C1B38BF EQ PUSH2 0xD6 JUMPI DUP1 PUSH4 0x8A8A3EAA EQ PUSH2 0xFF JUMPI JUMPDEST PUSH1 0x0 DUP1 REVERT JUMPDEST CALLVALUE DUP1 ISZERO PUSH2 0x8C JUMPI PUSH1 0x0 DUP1 REVERT JUMPDEST POP PUSH2 0x95 PUSH2 0x1C7 JUMP JUMPDEST PUSH1 0x40 MLOAD PUSH2 0xA2 SWAP2 SWAP1 PUSH2 0x980 JUMP JUMPDEST PUSH1 0x40 MLOAD DUP1 SWAP2 SUB SWAP1 RETURN JUMPDEST CALLVALUE DUP1 ISZERO PUSH2 0xB7 JUMPI PUSH1 0x0 DUP1 REVERT JUMPDEST POP PUSH2 0xC0 PUSH2 0x278 JUMP JUMPDEST PUSH1 0x40 MLOAD PUSH2 0xCD SWAP2 SWAP1 PUSH2 0x980 JUMP JUMPDEST PUSH1 0x40 MLOAD DUP1 SWAP2 SUB SWAP1 RETURN JUMPDEST CALLVALUE DUP1 ISZERO PUSH2 0xE2 JUMPI PUSH1 0x0 DUP1 REVERT JUMPDEST POP PUSH2 0xFD PUSH1 0x4 DUP1 CALLDATASIZE SUB DUP2 ADD SWAP1 PUSH2 0xF8 SWAP2 SWAP1 PUSH2 0x7FB JUMP JUMPDEST PUSH2 0x27E JUMP JUMPDEST STOP JUMPDEST CALLVALUE DUP1 ISZERO PUSH2 0x10B JUMPI PUSH1 0x0 DUP1 REVERT JUMPDEST POP PUSH2 0x114 PUSH2 0x39E JUMP JUMPDEST PUSH1 0x40 MLOAD PUSH2 0x121 SWAP2 SWAP1 PUSH2 0x980 JUMP JUMPDEST PUSH1 0x40 MLOAD DUP1 SWAP2 SUB SWAP1 RETURN JUMPDEST CALLVALUE DUP1 ISZERO PUSH2 0x136 JUMPI PUSH1 0x0 DUP1 REVERT JUMPDEST POP PUSH2 0x13F PUSH2 0x471 JUMP JUMPDEST PUSH1 0x40 MLOAD PUSH2 0x14C SWAP2 SWAP1 PUSH2 0x8DC JUMP JUMPDEST PUSH1 0x40 MLOAD DUP1 SWAP2 SUB SWAP1 RETURN JUMPDEST PUSH2 0x16F PUSH1 0x4 DUP1 CALLDATASIZE SUB DUP2 ADD SWAP1 PUSH2 0x16A SWAP2 SWAP1 PUSH2 0x7FB JUMP JUMPDEST PUSH2 0x497 JUMP JUMPDEST STOP JUMPDEST CALLVALUE DUP1 ISZERO PUSH2 0x17D JUMPI PUSH1 0x0 DUP1 REVERT JUMPDEST POP PUSH2 0x186 PUSH2 0x67A JUMP JUMPDEST PUSH1 0x40 MLOAD PUSH2 0x193 SWAP2 SWAP1 PUSH2 0x8DC JUMP JUMPDEST PUSH1 0x40 MLOAD DUP1 SWAP2 SUB SWAP1 RETURN JUMPDEST CALLVALUE DUP1 ISZERO PUSH2 0x1A8 JUMPI PUSH1 0x0 DUP1 REVERT JUMPDEST POP PUSH2 0x1B1 PUSH2 0x6A0 JUMP JUMPDEST PUSH1 0x40 MLOAD PUSH2 0x1BE SWAP2 SWAP1 PUSH2 0x980 JUMP JUMPDEST PUSH1 0x40 MLOAD DUP1 SWAP2 SUB SWAP1 RETURN JUMPDEST PUSH1 0x0 DUP1 PUSH1 0x0 SWAP1 SLOAD SWAP1 PUSH2 0x100 EXP SWAP1 DIV PUSH20 0xFFFFFFFFFFFFFFFFFFFFFFFFFFFFFFFFFFFFFFFF AND PUSH20 0xFFFFFFFFFFFFFFFFFFFFFFFFFFFFFFFFFFFFFFFF AND PUSH4 0x70A08231 CALLER PUSH1 0x40 MLOAD DUP3 PUSH4 0xFFFFFFFF AND PUSH1 0xE0 SHL DUP2 MSTORE PUSH1 0x4 ADD PUSH2 0x223 SWAP2 SWAP1 PUSH2 0x8DC JUMP JUMPDEST PUSH1 0x20 PUSH1 0x40 MLOAD DUP1 DUP4 SUB DUP2 DUP7 DUP1 EXTCODESIZE ISZERO DUP1 ISZERO PUSH2 0x23B JUMPI PUSH1 0x0 DUP1 REVERT JUMPDEST POP GAS STATICCALL ISZERO DUP1 ISZERO PUSH2 0x24F JUMPI RETURNDATASIZE PUSH1 0x0 DUP1 RETURNDATACOPY RETURNDATASIZE PUSH1 0x0 REVERT JUMPDEST POP POP POP POP PUSH1 0x40 MLOAD RETURNDATASIZE PUSH1 0x1F NOT PUSH1 0x1F DUP3 ADD AND DUP3 ADD DUP1 PUSH1 0x40 MSTORE POP DUP2 ADD SWAP1 PUSH2 0x273 SWAP2 SWAP1 PUSH2 0x828 JUMP JUMPDEST SWAP1 POP SWAP1 JUMP JUMPDEST PUSH1 0x4 SLOAD DUP2 JUMP JUMPDEST CALLER PUSH1 0x1 PUSH1 0x0 SWAP1 SLOAD SWAP1 PUSH2 0x100 EXP SWAP1 DIV PUSH20 0xFFFFFFFFFFFFFFFFFFFFFFFFFFFFFFFFFFFFFFFF AND PUSH20 0xFFFFFFFFFFFFFFFFFFFFFFFFFFFFFFFFFFFFFFFF AND DUP2 PUSH20 0xFFFFFFFFFFFFFFFFFFFFFFFFFFFFFFFFFFFFFFFF AND EQ PUSH2 0x30F JUMPI PUSH1 0x40 MLOAD PUSH32 0x8C379A000000000000000000000000000000000000000000000000000000000 DUP2 MSTORE PUSH1 0x4 ADD PUSH2 0x306 SWAP1 PUSH2 0x940 JUMP JUMPDEST PUSH1 0x40 MLOAD DUP1 SWAP2 SUB SWAP1 REVERT JUMPDEST PUSH1 0x0 DUP1 SLOAD SWAP1 PUSH2 0x100 EXP SWAP1 DIV PUSH20 0xFFFFFFFFFFFFFFFFFFFFFFFFFFFFFFFFFFFFFFFF AND PUSH20 0xFFFFFFFFFFFFFFFFFFFFFFFFFFFFFFFFFFFFFFFF AND PUSH4 0x1D43CC98 DUP4 PUSH1 0x40 MLOAD DUP3 PUSH4 0xFFFFFFFF AND PUSH1 0xE0 SHL DUP2 MSTORE PUSH1 0x4 ADD PUSH2 0x368 SWAP2 SWAP1 PUSH2 0x980 JUMP JUMPDEST PUSH1 0x0 PUSH1 0x40 MLOAD DUP1 DUP4 SUB DUP2 PUSH1 0x0 DUP8 DUP1 EXTCODESIZE ISZERO DUP1 ISZERO PUSH2 0x382 JUMPI PUSH1 0x0 DUP1 REVERT JUMPDEST POP GAS CALL ISZERO DUP1 ISZERO PUSH2 0x396 JUMPI RETURNDATASIZE PUSH1 0x0 DUP1 RETURNDATACOPY RETURNDATASIZE PUSH1 0x0 REVERT JUMPDEST POP POP POP POP POP POP JUMP JUMPDEST PUSH1 0x0 DUP1 PUSH1 0x0 SWAP1 SLOAD SWAP1 PUSH2 0x100 EXP SWAP1 DIV PUSH20 0xFFFFFFFFFFFFFFFFFFFFFFFFFFFFFFFFFFFFFFFF AND PUSH20 0xFFFFFFFFFFFFFFFFFFFFFFFFFFFFFFFFFFFFFFFF AND PUSH4 0x70A08231 PUSH1 0x1 PUSH1 0x0 SWAP1 SLOAD SWAP1 PUSH2 0x100 EXP SWAP1 DIV PUSH20 0xFFFFFFFFFFFFFFFFFFFFFFFFFFFFFFFFFFFFFFFF AND PUSH1 0x40 MLOAD DUP3 PUSH4 0xFFFFFFFF AND PUSH1 0xE0 SHL DUP2 MSTORE PUSH1 0x4 ADD PUSH2 0x41C SWAP2 SWAP1 PUSH2 0x8DC JUMP JUMPDEST PUSH1 0x20 PUSH1 0x40 MLOAD DUP1 DUP4 SUB DUP2 DUP7 DUP1 EXTCODESIZE ISZERO DUP1 ISZERO PUSH2 0x434 JUMPI PUSH1 0x0 DUP1 REVERT JUMPDEST POP GAS STATICCALL ISZERO DUP1 ISZERO PUSH2 0x448 JUMPI RETURNDATASIZE PUSH1 0x0 DUP1 RETURNDATACOPY RETURNDATASIZE PUSH1 0x0 REVERT JUMPDEST POP POP POP POP PUSH1 0x40 MLOAD RETURNDATASIZE PUSH1 0x1F NOT PUSH1 0x1F DUP3 ADD AND DUP3 ADD DUP1 PUSH1 0x40 MSTORE POP DUP2 ADD SWAP1 PUSH2 0x46C SWAP2 SWAP1 PUSH2 0x828 JUMP JUMPDEST SWAP1 POP SWAP1 JUMP JUMPDEST PUSH1 0x1 PUSH1 0x0 SWAP1 SLOAD SWAP1 PUSH2 0x100 EXP SWAP1 DIV PUSH20 0xFFFFFFFFFFFFFFFFFFFFFFFFFFFFFFFFFFFFFFFF AND DUP2 JUMP JUMPDEST PUSH1 0x0 PUSH2 0x4A2 DUP3 PUSH2 0x773 JUMP JUMPDEST SWAP1 POP DUP1 CALLVALUE LT ISZERO PUSH2 0x4E7 JUMPI PUSH1 0x40 MLOAD PUSH32 0x8C379A000000000000000000000000000000000000000000000000000000000 DUP2 MSTORE PUSH1 0x4 ADD PUSH2 0x4DE SWAP1 PUSH2 0x960 JUMP JUMPDEST PUSH1 0x40 MLOAD DUP1 SWAP2 SUB SWAP1 REVERT JUMPDEST PUSH1 0x0 DUP2 CALLVALUE PUSH2 0x4F5 SWAP2 SWAP1 PUSH2 0xA2F JUMP JUMPDEST SWAP1 POP CALLER PUSH20 0xFFFFFFFFFFFFFFFFFFFFFFFFFFFFFFFFFFFFFFFF AND PUSH2 0x8FC DUP3 SWAP1 DUP2 ISZERO MUL SWAP1 PUSH1 0x40 MLOAD PUSH1 0x0 PUSH1 0x40 MLOAD DUP1 DUP4 SUB DUP2 DUP6 DUP9 DUP9 CALL SWAP4 POP POP POP POP ISZERO DUP1 ISZERO PUSH2 0x53D JUMPI RETURNDATASIZE PUSH1 0x0 DUP1 RETURNDATACOPY RETURNDATASIZE PUSH1 0x0 REVERT JUMPDEST POP PUSH1 0x0 PUSH2 0x548 PUSH2 0x6A0 JUMP JUMPDEST SWAP1 POP DUP1 DUP5 GT ISZERO PUSH2 0x58D JUMPI PUSH1 0x40 MLOAD PUSH32 0x8C379A000000000000000000000000000000000000000000000000000000000 DUP2 MSTORE PUSH1 0x4 ADD PUSH2 0x584 SWAP1 PUSH2 0x920 JUMP JUMPDEST PUSH1 0x40 MLOAD DUP1 SWAP2 SUB SWAP1 REVERT JUMPDEST PUSH1 0x0 DUP1 SLOAD SWAP1 PUSH2 0x100 EXP SWAP1 DIV PUSH20 0xFFFFFFFFFFFFFFFFFFFFFFFFFFFFFFFFFFFFFFFF AND PUSH20 0xFFFFFFFFFFFFFFFFFFFFFFFFFFFFFFFFFFFFFFFF AND PUSH4 0xA9059CBB CALLER DUP7 PUSH1 0x40 MLOAD DUP4 PUSH4 0xFFFFFFFF AND PUSH1 0xE0 SHL DUP2 MSTORE PUSH1 0x4 ADD PUSH2 0x5E8 SWAP3 SWAP2 SWAP1 PUSH2 0x8F7 JUMP JUMPDEST PUSH1 0x20 PUSH1 0x40 MLOAD DUP1 DUP4 SUB DUP2 PUSH1 0x0 DUP8 DUP1 EXTCODESIZE ISZERO DUP1 ISZERO PUSH2 0x602 JUMPI PUSH1 0x0 DUP1 REVERT JUMPDEST POP GAS CALL ISZERO DUP1 ISZERO PUSH2 0x616 JUMPI RETURNDATASIZE PUSH1 0x0 DUP1 RETURNDATACOPY RETURNDATASIZE PUSH1 0x0 REVERT JUMPDEST POP POP POP POP PUSH1 0x40 MLOAD RETURNDATASIZE PUSH1 0x1F NOT PUSH1 0x1F DUP3 ADD AND DUP3 ADD DUP1 PUSH1 0x40 MSTORE POP DUP2 ADD SWAP1 PUSH2 0x63A SWAP2 SWAP1 PUSH2 0x7CE JUMP JUMPDEST POP PUSH32 0xC5D46BE962ADB867ACF29DCE93AB611E9064BFFEE951E4DB9E52C693F73F4C38 DUP5 CALLER PUSH1 0x40 MLOAD PUSH2 0x66C SWAP3 SWAP2 SWAP1 PUSH2 0x99B JUMP JUMPDEST PUSH1 0x40 MLOAD DUP1 SWAP2 SUB SWAP1 LOG1 POP POP POP POP JUMP JUMPDEST PUSH1 0x2 PUSH1 0x0 SWAP1 SLOAD SWAP1 PUSH2 0x100 EXP SWAP1 DIV PUSH20 0xFFFFFFFFFFFFFFFFFFFFFFFFFFFFFFFFFFFFFFFF AND DUP2 JUMP JUMPDEST PUSH1 0x0 DUP1 PUSH1 0x0 SWAP1 SLOAD SWAP1 PUSH2 0x100 EXP SWAP1 DIV PUSH20 0xFFFFFFFFFFFFFFFFFFFFFFFFFFFFFFFFFFFFFFFF AND PUSH20 0xFFFFFFFFFFFFFFFFFFFFFFFFFFFFFFFFFFFFFFFF AND PUSH4 0x70A08231 PUSH1 0x2 PUSH1 0x0 SWAP1 SLOAD SWAP1 PUSH2 0x100 EXP SWAP1 DIV PUSH20 0xFFFFFFFFFFFFFFFFFFFFFFFFFFFFFFFFFFFFFFFF AND PUSH1 0x40 MLOAD DUP3 PUSH4 0xFFFFFFFF AND PUSH1 0xE0 SHL DUP2 MSTORE PUSH1 0x4 ADD PUSH2 0x71E SWAP2 SWAP1 PUSH2 0x8DC JUMP JUMPDEST PUSH1 0x20 PUSH1 0x40 MLOAD DUP1 DUP4 SUB DUP2 DUP7 DUP1 EXTCODESIZE ISZERO DUP1 ISZERO PUSH2 0x736 JUMPI PUSH1 0x0 DUP1 REVERT JUMPDEST POP GAS STATICCALL ISZERO DUP1 ISZERO PUSH2 0x74A JUMPI RETURNDATASIZE PUSH1 0x0 DUP1 RETURNDATACOPY RETURNDATASIZE PUSH1 0x0 REVERT JUMPDEST POP POP POP POP PUSH1 0x40 MLOAD RETURNDATASIZE PUSH1 0x1F NOT PUSH1 0x1F DUP3 ADD AND DUP3 ADD DUP1 PUSH1 0x40 MSTORE POP DUP2 ADD SWAP1 PUSH2 0x76E SWAP2 SWAP1 PUSH2 0x828 JUMP JUMPDEST SWAP1 POP SWAP1 JUMP JUMPDEST PUSH1 0x0 PUSH7 0x38D7EA4C68000 DUP3 PUSH2 0x788 SWAP2 SWAP1 PUSH2 0x9D5 JUMP JUMPDEST SWAP1 POP SWAP2 SWAP1 POP JUMP JUMPDEST PUSH1 0x0 DUP2 MLOAD SWAP1 POP PUSH2 0x79E DUP2 PUSH2 0xBCC JUMP JUMPDEST SWAP3 SWAP2 POP POP JUMP JUMPDEST PUSH1 0x0 DUP2 CALLDATALOAD SWAP1 POP PUSH2 0x7B3 DUP2 PUSH2 0xBE3 JUMP JUMPDEST SWAP3 SWAP2 POP POP JUMP JUMPDEST PUSH1 0x0 DUP2 MLOAD SWAP1 POP PUSH2 0x7C8 DUP2 PUSH2 0xBE3 JUMP JUMPDEST SWAP3 SWAP2 POP POP JUMP JUMPDEST PUSH1 0x0 PUSH1 0x20 DUP3 DUP5 SUB SLT ISZERO PUSH2 0x7E4 JUMPI PUSH2 0x7E3 PUSH2 0xADA JUMP JUMPDEST JUMPDEST PUSH1 0x0 PUSH2 0x7F2 DUP5 DUP3 DUP6 ADD PUSH2 0x78F JUMP JUMPDEST SWAP2 POP POP SWAP3 SWAP2 POP POP JUMP JUMPDEST PUSH1 0x0 PUSH1 0x20 DUP3 DUP5 SUB SLT ISZERO PUSH2 0x811 JUMPI PUSH2 0x810 PUSH2 0xADA JUMP JUMPDEST JUMPDEST PUSH1 0x0 PUSH2 0x81F DUP5 DUP3 DUP6 ADD PUSH2 0x7A4 JUMP JUMPDEST SWAP2 POP POP SWAP3 SWAP2 POP POP JUMP JUMPDEST PUSH1 0x0 PUSH1 0x20 DUP3 DUP5 SUB SLT ISZERO PUSH2 0x83E JUMPI PUSH2 0x83D PUSH2 0xADA JUMP JUMPDEST JUMPDEST PUSH1 0x0 PUSH2 0x84C DUP5 DUP3 DUP6 ADD PUSH2 0x7B9 JUMP JUMPDEST SWAP2 POP POP SWAP3 SWAP2 POP POP JUMP JUMPDEST PUSH2 0x85E DUP2 PUSH2 0xA63 JUMP JUMPDEST DUP3 MSTORE POP POP JUMP JUMPDEST PUSH1 0x0 PUSH2 0x871 PUSH1 0x24 DUP4 PUSH2 0x9C4 JUMP JUMPDEST SWAP2 POP PUSH2 0x87C DUP3 PUSH2 0xADF JUMP JUMPDEST PUSH1 0x40 DUP3 ADD SWAP1 POP SWAP2 SWAP1 POP JUMP JUMPDEST PUSH1 0x0 PUSH2 0x894 PUSH1 0x2E DUP4 PUSH2 0x9C4 JUMP JUMPDEST SWAP2 POP PUSH2 0x89F DUP3 PUSH2 0xB2E JUMP JUMPDEST PUSH1 0x40 DUP3 ADD SWAP1 POP SWAP2 SWAP1 POP JUMP JUMPDEST PUSH1 0x0 PUSH2 0x8B7 PUSH1 0x28 DUP4 PUSH2 0x9C4 JUMP JUMPDEST SWAP2 POP PUSH2 0x8C2 DUP3 PUSH2 0xB7D JUMP JUMPDEST PUSH1 0x40 DUP3 ADD SWAP1 POP SWAP2 SWAP1 POP JUMP JUMPDEST PUSH2 0x8D6 DUP2 PUSH2 0xAA1 JUMP JUMPDEST DUP3 MSTORE POP POP JUMP JUMPDEST PUSH1 0x0 PUSH1 0x20 DUP3 ADD SWAP1 POP PUSH2 0x8F1 PUSH1 0x0 DUP4 ADD DUP5 PUSH2 0x855 JUMP JUMPDEST SWAP3 SWAP2 POP POP JUMP JUMPDEST PUSH1 0x0 PUSH1 0x40 DUP3 ADD SWAP1 POP PUSH2 0x90C PUSH1 0x0 DUP4 ADD DUP6 PUSH2 0x855 JUMP JUMPDEST PUSH2 0x919 PUSH1 0x20 DUP4 ADD DUP5 PUSH2 0x8CD JUMP JUMPDEST SWAP4 SWAP3 POP POP POP JUMP JUMPDEST PUSH1 0x0 PUSH1 0x20 DUP3 ADD SWAP1 POP DUP2 DUP2 SUB PUSH1 0x0 DUP4 ADD MSTORE PUSH2 0x939 DUP2 PUSH2 0x864 JUMP JUMPDEST SWAP1 POP SWAP2 SWAP1 POP JUMP JUMPDEST PUSH1 0x0 PUSH1 0x20 DUP3 ADD SWAP1 POP DUP2 DUP2 SUB PUSH1 0x0 DUP4 ADD MSTORE PUSH2 0x959 DUP2 PUSH2 0x887 JUMP JUMPDEST SWAP1 POP SWAP2 SWAP1 POP JUMP JUMPDEST PUSH1 0x0 PUSH1 0x20 DUP3 ADD SWAP1 POP DUP2 DUP2 SUB PUSH1 0x0 DUP4 ADD MSTORE PUSH2 0x979 DUP2 PUSH2 0x8AA JUMP JUMPDEST SWAP1 POP SWAP2 SWAP1 POP JUMP JUMPDEST PUSH1 0x0 PUSH1 0x20 DUP3 ADD SWAP1 POP PUSH2 0x995 PUSH1 0x0 DUP4 ADD DUP5 PUSH2 0x8CD JUMP JUMPDEST SWAP3 SWAP2 POP POP JUMP JUMPDEST PUSH1 0x0 PUSH1 0x40 DUP3 ADD SWAP1 POP PUSH2 0x9B0 PUSH1 0x0 DUP4 ADD DUP6 PUSH2 0x8CD JUMP JUMPDEST PUSH2 0x9BD PUSH1 0x20 DUP4 ADD DUP5 PUSH2 0x855 JUMP JUMPDEST SWAP4 SWAP3 POP POP POP JUMP JUMPDEST PUSH1 0x0 DUP3 DUP3 MSTORE PUSH1 0x20 DUP3 ADD SWAP1 POP SWAP3 SWAP2 POP POP JUMP JUMPDEST PUSH1 0x0 PUSH2 0x9E0 DUP3 PUSH2 0xAA1 JUMP JUMPDEST SWAP2 POP PUSH2 0x9EB DUP4 PUSH2 0xAA1 JUMP JUMPDEST SWAP3 POP DUP2 PUSH32 0xFFFFFFFFFFFFFFFFFFFFFFFFFFFFFFFFFFFFFFFFFFFFFFFFFFFFFFFFFFFFFFFF DIV DUP4 GT DUP3 ISZERO ISZERO AND ISZERO PUSH2 0xA24 JUMPI PUSH2 0xA23 PUSH2 0xAAB JUMP JUMPDEST JUMPDEST DUP3 DUP3 MUL SWAP1 POP SWAP3 SWAP2 POP POP JUMP JUMPDEST PUSH1 0x0 PUSH2 0xA3A DUP3 PUSH2 0xAA1 JUMP JUMPDEST SWAP2 POP PUSH2 0xA45 DUP4 PUSH2 0xAA1 JUMP JUMPDEST SWAP3 POP DUP3 DUP3 LT ISZERO PUSH2 0xA58 JUMPI PUSH2 0xA57 PUSH2 0xAAB JUMP JUMPDEST JUMPDEST DUP3 DUP3 SUB SWAP1 POP SWAP3 SWAP2 POP POP JUMP JUMPDEST PUSH1 0x0 PUSH2 0xA6E DUP3 PUSH2 0xA81 JUMP JUMPDEST SWAP1 POP SWAP2 SWAP1 POP JUMP JUMPDEST PUSH1 0x0 DUP2 ISZERO ISZERO SWAP1 POP SWAP2 SWAP1 POP JUMP JUMPDEST PUSH1 0x0 PUSH20 0xFFFFFFFFFFFFFFFFFFFFFFFFFFFFFFFFFFFFFFFF DUP3 AND SWAP1 POP SWAP2 SWAP1 POP JUMP JUMPDEST PUSH1 0x0 DUP2 SWAP1 POP SWAP2 SWAP1 POP JUMP JUMPDEST PUSH32 0x4E487B7100000000000000000000000000000000000000000000000000000000 PUSH1 0x0 MSTORE PUSH1 0x11 PUSH1 0x4 MSTORE PUSH1 0x24 PUSH1 0x0 REVERT JUMPDEST PUSH1 0x0 DUP1 REVERT JUMPDEST PUSH32 0x436F6D70726120756E206E756D65726F20646520546F6B656E73206164656375 PUSH1 0x0 DUP3 ADD MSTORE PUSH32 0x61646F2E00000000000000000000000000000000000000000000000000000000 PUSH1 0x20 DUP3 ADD MSTORE POP JUMP JUMPDEST PUSH32 0x4E6F207469656E6573207065726D69736F73207061726120656A656375746172 PUSH1 0x0 DUP3 ADD MSTORE PUSH32 0x20657374612066756E63696F6E2E000000000000000000000000000000000000 PUSH1 0x20 DUP3 ADD MSTORE POP JUMP JUMPDEST PUSH32 0x436F6D707261206D656E6F7320546F6B656E73206F207061676120636F6E206D PUSH1 0x0 DUP3 ADD MSTORE PUSH32 0x6173204574686572000000000000000000000000000000000000000000000000 PUSH1 0x20 DUP3 ADD MSTORE POP JUMP JUMPDEST PUSH2 0xBD5 DUP2 PUSH2 0xA75 JUMP JUMPDEST DUP2 EQ PUSH2 0xBE0 JUMPI PUSH1 0x0 DUP1 REVERT JUMPDEST POP JUMP JUMPDEST PUSH2 0xBEC DUP2 PUSH2 0xAA1 JUMP JUMPDEST DUP2 EQ PUSH2 0xBF7 JUMPI PUSH1 0x0 DUP1 REVERT JUMPDEST POP JUMP INVALID LOG2 PUSH5 0x6970667358 0x22 SLT KECCAK256 0x5C 0xC4 0x2B 0xB5 0x21 0xC6 0xC9 SIGNEXTEND SHR LOG2 0xD8 0xCF 0x29 0xA6 0xA6 MLOAD 0x27 0xB8 KECCAK256 LOG0 0xCC SWAP3 0xD2 PUSH32 0x6CB0B79561C107264736F6C6343000807003360806040523480156100105760 STOP DUP1 REVERT JUMPDEST POP PUSH1 0x40 MLOAD PUSH3 0x11DC CODESIZE SUB DUP1 PUSH3 0x11DC DUP4 CODECOPY DUP2 DUP2 ADD PUSH1 0x40 MSTORE DUP2 ADD SWAP1 PUSH2 0x34 SWAP2 SWAP1 PUSH2 0x9B JUMP JUMPDEST DUP1 PUSH1 0x2 DUP2 SWAP1 SSTORE POP PUSH1 0x2 SLOAD PUSH1 0x0 DUP1 CALLER PUSH20 0xFFFFFFFFFFFFFFFFFFFFFFFFFFFFFFFFFFFFFFFF AND PUSH20 0xFFFFFFFFFFFFFFFFFFFFFFFFFFFFFFFFFFFFFFFF AND DUP2 MSTORE PUSH1 0x20 ADD SWAP1 DUP2 MSTORE PUSH1 0x20 ADD PUSH1 0x0 KECCAK256 DUP2 SWAP1 SSTORE POP POP PUSH2 0xEE JUMP JUMPDEST PUSH1 0x0 DUP2 MLOAD SWAP1 POP PUSH2 0x95 DUP2 PUSH2 0xD7 JUMP JUMPDEST SWAP3 SWAP2 POP POP JUMP JUMPDEST PUSH1 0x0 PUSH1 0x20 DUP3 DUP5 SUB SLT ISZERO PUSH2 0xB1 JUMPI PUSH2 0xB0 PUSH2 0xD2 JUMP JUMPDEST JUMPDEST PUSH1 0x0 PUSH2 0xBF DUP5 DUP3 DUP6 ADD PUSH2 0x86 JUMP JUMPDEST SWAP2 POP POP SWAP3 SWAP2 POP POP JUMP JUMPDEST PUSH1 0x0 DUP2 SWAP1 POP SWAP2 SWAP1 POP JUMP JUMPDEST PUSH1 0x0 DUP1 REVERT JUMPDEST PUSH2 0xE0 DUP2 PUSH2 0xC8 JUMP JUMPDEST DUP2 EQ PUSH2 0xEB JUMPI PUSH1 0x0 DUP1 REVERT JUMPDEST POP JUMP JUMPDEST PUSH2 0x10DE DUP1 PUSH3 0xFE PUSH1 0x0 CODECOPY PUSH1 0x0 RETURN INVALID PUSH1 0x80 PUSH1 0x40 MSTORE CALLVALUE DUP1 ISZERO PUSH2 0x10 JUMPI PUSH1 0x0 DUP1 REVERT JUMPDEST POP PUSH1 0x4 CALLDATASIZE LT PUSH2 0xA9 JUMPI PUSH1 0x0 CALLDATALOAD PUSH1 0xE0 SHR DUP1 PUSH4 0x313CE567 GT PUSH2 0x71 JUMPI DUP1 PUSH4 0x313CE567 EQ PUSH2 0x166 JUMPI DUP1 PUSH4 0x3B83E3CD EQ PUSH2 0x184 JUMPI DUP1 PUSH4 0x70A08231 EQ PUSH2 0x1B4 JUMPI DUP1 PUSH4 0x95D89B41 EQ PUSH2 0x1E4 JUMPI DUP1 PUSH4 0xA9059CBB EQ PUSH2 0x202 JUMPI DUP1 PUSH4 0xDD62ED3E EQ PUSH2 0x232 JUMPI PUSH2 0xA9 JUMP JUMPDEST DUP1 PUSH4 0x6FDDE03 EQ PUSH2 0xAE JUMPI DUP1 PUSH4 0x95EA7B3 EQ PUSH2 0xCC JUMPI DUP1 PUSH4 0x18160DDD EQ PUSH2 0xFC JUMPI DUP1 PUSH4 0x1D43CC98 EQ PUSH2 0x11A JUMPI DUP1 PUSH4 0x23B872DD EQ PUSH2 0x136 JUMPI JUMPDEST PUSH1 0x0 DUP1 REVERT JUMPDEST PUSH2 0xB6 PUSH2 0x262 JUMP JUMPDEST PUSH1 0x40 MLOAD PUSH2 0xC3 SWAP2 SWAP1 PUSH2 0xE80 JUMP JUMPDEST PUSH1 0x40 MLOAD DUP1 SWAP2 SUB SWAP1 RETURN JUMPDEST PUSH2 0xE6 PUSH1 0x4 DUP1 CALLDATASIZE SUB DUP2 ADD SWAP1 PUSH2 0xE1 SWAP2 SWAP1 PUSH2 0xD92 JUMP JUMPDEST PUSH2 0x29B JUMP JUMPDEST PUSH1 0x40 MLOAD PUSH2 0xF3 SWAP2 SWAP1 PUSH2 0xE65 JUMP JUMPDEST PUSH1 0x40 MLOAD DUP1 SWAP2 SUB SWAP1 RETURN JUMPDEST PUSH2 0x104 PUSH2 0x38D JUMP JUMPDEST PUSH1 0x40 MLOAD PUSH2 0x111 SWAP2 SWAP1 PUSH2 0xEA2 JUMP JUMPDEST PUSH1 0x40 MLOAD DUP1 SWAP2 SUB SWAP1 RETURN JUMPDEST PUSH2 0x134 PUSH1 0x4 DUP1 CALLDATASIZE SUB DUP2 ADD SWAP1 PUSH2 0x12F SWAP2 SWAP1 PUSH2 0xDD2 JUMP JUMPDEST PUSH2 0x397 JUMP JUMPDEST STOP JUMPDEST PUSH2 0x150 PUSH1 0x4 DUP1 CALLDATASIZE SUB DUP2 ADD SWAP1 PUSH2 0x14B SWAP2 SWAP1 PUSH2 0xD3F JUMP JUMPDEST PUSH2 0x408 JUMP JUMPDEST PUSH1 0x40 MLOAD PUSH2 0x15D SWAP2 SWAP1 PUSH2 0xE65 JUMP JUMPDEST PUSH1 0x40 MLOAD DUP1 SWAP2 SUB SWAP1 RETURN JUMPDEST PUSH2 0x16E PUSH2 0x783 JUMP JUMPDEST PUSH1 0x40 MLOAD PUSH2 0x17B SWAP2 SWAP1 PUSH2 0xEBD JUMP JUMPDEST PUSH1 0x40 MLOAD DUP1 SWAP2 SUB SWAP1 RETURN JUMPDEST PUSH2 0x19E PUSH1 0x4 DUP1 CALLDATASIZE SUB DUP2 ADD SWAP1 PUSH2 0x199 SWAP2 SWAP1 PUSH2 0xD3F JUMP JUMPDEST PUSH2 0x788 JUMP JUMPDEST PUSH1 0x40 MLOAD PUSH2 0x1AB SWAP2 SWAP1 PUSH2 0xE65 JUMP JUMPDEST PUSH1 0x40 MLOAD DUP1 SWAP2 SUB SWAP1 RETURN JUMPDEST PUSH2 0x1CE PUSH1 0x4 DUP1 CALLDATASIZE SUB DUP2 ADD SWAP1 PUSH2 0x1C9 SWAP2 SWAP1 PUSH2 0xCD2 JUMP JUMPDEST PUSH2 0x96B JUMP JUMPDEST PUSH1 0x40 MLOAD PUSH2 0x1DB SWAP2 SWAP1 PUSH2 0xEA2 JUMP JUMPDEST PUSH1 0x40 MLOAD DUP1 SWAP2 SUB SWAP1 RETURN JUMPDEST PUSH2 0x1EC PUSH2 0x9B3 JUMP JUMPDEST PUSH1 0x40 MLOAD PUSH2 0x1F9 SWAP2 SWAP1 PUSH2 0xE80 JUMP JUMPDEST PUSH1 0x40 MLOAD DUP1 SWAP2 SUB SWAP1 RETURN JUMPDEST PUSH2 0x21C PUSH1 0x4 DUP1 CALLDATASIZE SUB DUP2 ADD SWAP1 PUSH2 0x217 SWAP2 SWAP1 PUSH2 0xD92 JUMP JUMPDEST PUSH2 0x9EC JUMP JUMPDEST PUSH1 0x40 MLOAD PUSH2 0x229 SWAP2 SWAP1 PUSH2 0xE65 JUMP JUMPDEST PUSH1 0x40 MLOAD DUP1 SWAP2 SUB SWAP1 RETURN JUMPDEST PUSH2 0x24C PUSH1 0x4 DUP1 CALLDATASIZE SUB DUP2 ADD SWAP1 PUSH2 0x247 SWAP2 SWAP1 PUSH2 0xCFF JUMP JUMPDEST PUSH2 0xBCE JUMP JUMPDEST PUSH1 0x40 MLOAD PUSH2 0x259 SWAP2 SWAP1 PUSH2 0xEA2 JUMP JUMPDEST PUSH1 0x40 MLOAD DUP1 SWAP2 SUB SWAP1 RETURN JUMPDEST PUSH1 0x40 MLOAD DUP1 PUSH1 0x40 ADD PUSH1 0x40 MSTORE DUP1 PUSH1 0x11 DUP2 MSTORE PUSH1 0x20 ADD PUSH32 0x4552433230426C6F636B636861696E415A000000000000000000000000000000 DUP2 MSTORE POP DUP2 JUMP JUMPDEST PUSH1 0x0 DUP2 PUSH1 0x1 PUSH1 0x0 CALLER PUSH20 0xFFFFFFFFFFFFFFFFFFFFFFFFFFFFFFFFFFFFFFFF AND PUSH20 0xFFFFFFFFFFFFFFFFFFFFFFFFFFFFFFFFFFFFFFFF AND DUP2 MSTORE PUSH1 0x20 ADD SWAP1 DUP2 MSTORE PUSH1 0x20 ADD PUSH1 0x0 KECCAK256 PUSH1 0x0 DUP6 PUSH20 0xFFFFFFFFFFFFFFFFFFFFFFFFFFFFFFFFFFFFFFFF AND PUSH20 0xFFFFFFFFFFFFFFFFFFFFFFFFFFFFFFFFFFFFFFFF AND DUP2 MSTORE PUSH1 0x20 ADD SWAP1 DUP2 MSTORE PUSH1 0x20 ADD PUSH1 0x0 KECCAK256 DUP2 SWAP1 SSTORE POP DUP3 PUSH20 0xFFFFFFFFFFFFFFFFFFFFFFFFFFFFFFFFFFFFFFFF AND CALLER PUSH20 0xFFFFFFFFFFFFFFFFFFFFFFFFFFFFFFFFFFFFFFFF AND PUSH32 0x8C5BE1E5EBEC7D5BD14F71427D1E84F3DD0314C0F7B2291E5B200AC8C7C3B925 DUP5 PUSH1 0x40 MLOAD PUSH2 0x37B SWAP2 SWAP1 PUSH2 0xEA2 JUMP JUMPDEST PUSH1 0x40 MLOAD DUP1 SWAP2 SUB SWAP1 LOG3 PUSH1 0x1 SWAP1 POP SWAP3 SWAP2 POP POP JUMP JUMPDEST PUSH1 0x0 PUSH1 0x2 SLOAD SWAP1 POP SWAP1 JUMP JUMPDEST DUP1 PUSH1 0x2 PUSH1 0x0 DUP3 DUP3 SLOAD PUSH2 0x3A9 SWAP2 SWAP1 PUSH2 0xEF4 JUMP JUMPDEST SWAP3 POP POP DUP2 SWAP1 SSTORE POP DUP1 PUSH1 0x0 DUP1 CALLER PUSH20 0xFFFFFFFFFFFFFFFFFFFFFFFFFFFFFFFFFFFFFFFF AND PUSH20 0xFFFFFFFFFFFFFFFFFFFFFFFFFFFFFFFFFFFFFFFF AND DUP2 MSTORE PUSH1 0x20 ADD SWAP1 DUP2 MSTORE PUSH1 0x20 ADD PUSH1 0x0 KECCAK256 PUSH1 0x0 DUP3 DUP3 SLOAD PUSH2 0x3FE SWAP2 SWAP1 PUSH2 0xEF4 JUMP JUMPDEST SWAP3 POP POP DUP2 SWAP1 SSTORE POP POP JUMP JUMPDEST PUSH1 0x0 DUP1 PUSH1 0x0 DUP6 PUSH20 0xFFFFFFFFFFFFFFFFFFFFFFFFFFFFFFFFFFFFFFFF AND PUSH20 0xFFFFFFFFFFFFFFFFFFFFFFFFFFFFFFFFFFFFFFFF AND DUP2 MSTORE PUSH1 0x20 ADD SWAP1 DUP2 MSTORE PUSH1 0x20 ADD PUSH1 0x0 KECCAK256 SLOAD DUP3 GT ISZERO PUSH2 0x455 JUMPI PUSH1 0x0 DUP1 REVERT JUMPDEST PUSH1 0x1 PUSH1 0x0 DUP6 PUSH20 0xFFFFFFFFFFFFFFFFFFFFFFFFFFFFFFFFFFFFFFFF AND PUSH20 0xFFFFFFFFFFFFFFFFFFFFFFFFFFFFFFFFFFFFFFFF AND DUP2 MSTORE PUSH1 0x20 ADD SWAP1 DUP2 MSTORE PUSH1 0x20 ADD PUSH1 0x0 KECCAK256 PUSH1 0x0 CALLER PUSH20 0xFFFFFFFFFFFFFFFFFFFFFFFFFFFFFFFFFFFFFFFF AND PUSH20 0xFFFFFFFFFFFFFFFFFFFFFFFFFFFFFFFFFFFFFFFF AND DUP2 MSTORE PUSH1 0x20 ADD SWAP1 DUP2 MSTORE PUSH1 0x20 ADD PUSH1 0x0 KECCAK256 SLOAD DUP3 GT ISZERO PUSH2 0x4DE JUMPI PUSH1 0x0 DUP1 REVERT JUMPDEST PUSH2 0x52F DUP3 PUSH1 0x0 DUP1 DUP8 PUSH20 0xFFFFFFFFFFFFFFFFFFFFFFFFFFFFFFFFFFFFFFFF AND PUSH20 0xFFFFFFFFFFFFFFFFFFFFFFFFFFFFFFFFFFFFFFFF AND DUP2 MSTORE PUSH1 0x20 ADD SWAP1 DUP2 MSTORE PUSH1 0x20 ADD PUSH1 0x0 KECCAK256 SLOAD PUSH2 0xC55 SWAP1 SWAP2 SWAP1 PUSH4 0xFFFFFFFF AND JUMP JUMPDEST PUSH1 0x0 DUP1 DUP7 PUSH20 0xFFFFFFFFFFFFFFFFFFFFFFFFFFFFFFFFFFFFFFFF AND PUSH20 0xFFFFFFFFFFFFFFFFFFFFFFFFFFFFFFFFFFFFFFFF AND DUP2 MSTORE PUSH1 0x20 ADD SWAP1 DUP2 MSTORE PUSH1 0x20 ADD PUSH1 0x0 KECCAK256 DUP2 SWAP1 SSTORE POP PUSH2 0x600 DUP3 PUSH1 0x1 PUSH1 0x0 DUP8 PUSH20 0xFFFFFFFFFFFFFFFFFFFFFFFFFFFFFFFFFFFFFFFF AND PUSH20 0xFFFFFFFFFFFFFFFFFFFFFFFFFFFFFFFFFFFFFFFF AND DUP2 MSTORE PUSH1 0x20 ADD SWAP1 DUP2 MSTORE PUSH1 0x20 ADD PUSH1 0x0 KECCAK256 PUSH1 0x0 CALLER PUSH20 0xFFFFFFFFFFFFFFFFFFFFFFFFFFFFFFFFFFFFFFFF AND PUSH20 0xFFFFFFFFFFFFFFFFFFFFFFFFFFFFFFFFFFFFFFFF AND DUP2 MSTORE PUSH1 0x20 ADD SWAP1 DUP2 MSTORE PUSH1 0x20 ADD PUSH1 0x0 KECCAK256 SLOAD PUSH2 0xC55 SWAP1 SWAP2 SWAP1 PUSH4 0xFFFFFFFF AND JUMP JUMPDEST PUSH1 0x1 PUSH1 0x0 DUP7 PUSH20 0xFFFFFFFFFFFFFFFFFFFFFFFFFFFFFFFFFFFFFFFF AND PUSH20 0xFFFFFFFFFFFFFFFFFFFFFFFFFFFFFFFFFFFFFFFF AND DUP2 MSTORE PUSH1 0x20 ADD SWAP1 DUP2 MSTORE PUSH1 0x20 ADD PUSH1 0x0 KECCAK256 PUSH1 0x0 CALLER PUSH20 0xFFFFFFFFFFFFFFFFFFFFFFFFFFFFFFFFFFFFFFFF AND PUSH20 0xFFFFFFFFFFFFFFFFFFFFFFFFFFFFFFFFFFFFFFFF AND DUP2 MSTORE PUSH1 0x20 ADD SWAP1 DUP2 MSTORE PUSH1 0x20 ADD PUSH1 0x0 KECCAK256 DUP2 SWAP1 SSTORE POP PUSH2 0x6D1 DUP3 PUSH1 0x0 DUP1 DUP7 PUSH20 0xFFFFFFFFFFFFFFFFFFFFFFFFFFFFFFFFFFFFFFFF AND PUSH20 0xFFFFFFFFFFFFFFFFFFFFFFFFFFFFFFFFFFFFFFFF AND DUP2 MSTORE PUSH1 0x20 ADD SWAP1 DUP2 MSTORE PUSH1 0x20 ADD PUSH1 0x0 KECCAK256 SLOAD PUSH2 0xC7C SWAP1 SWAP2 SWAP1 PUSH4 0xFFFFFFFF AND JUMP JUMPDEST PUSH1 0x0 DUP1 DUP6 PUSH20 0xFFFFFFFFFFFFFFFFFFFFFFFFFFFFFFFFFFFFFFFF AND PUSH20 0xFFFFFFFFFFFFFFFFFFFFFFFFFFFFFFFFFFFFFFFF AND DUP2 MSTORE PUSH1 0x20 ADD SWAP1 DUP2 MSTORE PUSH1 0x20 ADD PUSH1 0x0 KECCAK256 DUP2 SWAP1 SSTORE POP DUP3 PUSH20 0xFFFFFFFFFFFFFFFFFFFFFFFFFFFFFFFFFFFFFFFF AND DUP5 PUSH20 0xFFFFFFFFFFFFFFFFFFFFFFFFFFFFFFFFFFFFFFFF AND PUSH32 0xDDF252AD1BE2C89B69C2B068FC378DAA952BA7F163C4A11628F55A4DF523B3EF DUP5 PUSH1 0x40 MLOAD PUSH2 0x770 SWAP2 SWAP1 PUSH2 0xEA2 JUMP JUMPDEST PUSH1 0x40 MLOAD DUP1 SWAP2 SUB SWAP1 LOG3 PUSH1 0x1 SWAP1 POP SWAP4 SWAP3 POP POP POP JUMP JUMPDEST PUSH1 0x2 DUP2 JUMP JUMPDEST PUSH1 0x0 DUP1 PUSH1 0x0 DUP6 PUSH20 0xFFFFFFFFFFFFFFFFFFFFFFFFFFFFFFFFFFFFFFFF AND PUSH20 0xFFFFFFFFFFFFFFFFFFFFFFFFFFFFFFFFFFFFFFFF AND DUP2 MSTORE PUSH1 0x20 ADD SWAP1 DUP2 MSTORE PUSH1 0x20 ADD PUSH1 0x0 KECCAK256 SLOAD DUP3 GT ISZERO PUSH2 0x7D5 JUMPI PUSH1 0x0 DUP1 REVERT JUMPDEST PUSH2 0x826 DUP3 PUSH1 0x0 DUP1 DUP8 PUSH20 0xFFFFFFFFFFFFFFFFFFFFFFFFFFFFFFFFFFFFFFFF AND PUSH20 0xFFFFFFFFFFFFFFFFFFFFFFFFFFFFFFFFFFFFFFFF AND DUP2 MSTORE PUSH1 0x20 ADD SWAP1 DUP2 MSTORE PUSH1 0x20 ADD PUSH1 0x0 KECCAK256 SLOAD PUSH2 0xC55 SWAP1 SWAP2 SWAP1 PUSH4 0xFFFFFFFF AND JUMP JUMPDEST PUSH1 0x0 DUP1 DUP7 PUSH20 0xFFFFFFFFFFFFFFFFFFFFFFFFFFFFFFFFFFFFFFFF AND PUSH20 0xFFFFFFFFFFFFFFFFFFFFFFFFFFFFFFFFFFFFFFFF AND DUP2 MSTORE PUSH1 0x20 ADD SWAP1 DUP2 MSTORE PUSH1 0x20 ADD PUSH1 0x0 KECCAK256 DUP2 SWAP1 SSTORE POP PUSH2 0x8B9 DUP3 PUSH1 0x0 DUP1 DUP7 PUSH20 0xFFFFFFFFFFFFFFFFFFFFFFFFFFFFFFFFFFFFFFFF AND PUSH20 0xFFFFFFFFFFFFFFFFFFFFFFFFFFFFFFFFFFFFFFFF AND DUP2 MSTORE PUSH1 0x20 ADD SWAP1 DUP2 MSTORE PUSH1 0x20 ADD PUSH1 0x0 KECCAK256 SLOAD PUSH2 0xC7C SWAP1 SWAP2 SWAP1 PUSH4 0xFFFFFFFF AND JUMP JUMPDEST PUSH1 0x0 DUP1 DUP6 PUSH20 0xFFFFFFFFFFFFFFFFFFFFFFFFFFFFFFFFFFFFFFFF AND PUSH20 0xFFFFFFFFFFFFFFFFFFFFFFFFFFFFFFFFFFFFFFFF AND DUP2 MSTORE PUSH1 0x20 ADD SWAP1 DUP2 MSTORE PUSH1 0x20 ADD PUSH1 0x0 KECCAK256 DUP2 SWAP1 SSTORE POP DUP3 PUSH20 0xFFFFFFFFFFFFFFFFFFFFFFFFFFFFFFFFFFFFFFFF AND DUP5 PUSH20 0xFFFFFFFFFFFFFFFFFFFFFFFFFFFFFFFFFFFFFFFF AND PUSH32 0xDDF252AD1BE2C89B69C2B068FC378DAA952BA7F163C4A11628F55A4DF523B3EF DUP5 PUSH1 0x40 MLOAD PUSH2 0x958 SWAP2 SWAP1 PUSH2 0xEA2 JUMP JUMPDEST PUSH1 0x40 MLOAD DUP1 SWAP2 SUB SWAP1 LOG3 PUSH1 0x1 SWAP1 POP SWAP4 SWAP3 POP POP POP JUMP JUMPDEST PUSH1 0x0 DUP1 PUSH1 0x0 DUP4 PUSH20 0xFFFFFFFFFFFFFFFFFFFFFFFFFFFFFFFFFFFFFFFF AND PUSH20 0xFFFFFFFFFFFFFFFFFFFFFFFFFFFFFFFFFFFFFFFF AND DUP2 MSTORE PUSH1 0x20 ADD SWAP1 DUP2 MSTORE PUSH1 0x20 ADD PUSH1 0x0 KECCAK256 SLOAD SWAP1 POP SWAP2 SWAP1 POP JUMP JUMPDEST PUSH1 0x40 MLOAD DUP1 PUSH1 0x40 ADD PUSH1 0x40 MSTORE DUP1 PUSH1 0x3 DUP2 MSTORE PUSH1 0x20 ADD PUSH32 0x4552430000000000000000000000000000000000000000000000000000000000 DUP2 MSTORE POP DUP2 JUMP JUMPDEST PUSH1 0x0 DUP1 PUSH1 0x0 CALLER PUSH20 0xFFFFFFFFFFFFFFFFFFFFFFFFFFFFFFFFFFFFFFFF AND PUSH20 0xFFFFFFFFFFFFFFFFFFFFFFFFFFFFFFFFFFFFFFFF AND DUP2 MSTORE PUSH1 0x20 ADD SWAP1 DUP2 MSTORE PUSH1 0x20 ADD PUSH1 0x0 KECCAK256 SLOAD DUP3 GT ISZERO PUSH2 0xA39 JUMPI PUSH1 0x0 DUP1 REVERT JUMPDEST PUSH2 0xA8A DUP3 PUSH1 0x0 DUP1 CALLER PUSH20 0xFFFFFFFFFFFFFFFFFFFFFFFFFFFFFFFFFFFFFFFF AND PUSH20 0xFFFFFFFFFFFFFFFFFFFFFFFFFFFFFFFFFFFFFFFF AND DUP2 MSTORE PUSH1 0x20 ADD SWAP1 DUP2 MSTORE PUSH1 0x20 ADD PUSH1 0x0 KECCAK256 SLOAD PUSH2 0xC55 SWAP1 SWAP2 SWAP1 PUSH4 0xFFFFFFFF AND JUMP JUMPDEST PUSH1 0x0 DUP1 CALLER PUSH20 0xFFFFFFFFFFFFFFFFFFFFFFFFFFFFFFFFFFFFFFFF AND PUSH20 0xFFFFFFFFFFFFFFFFFFFFFFFFFFFFFFFFFFFFFFFF AND DUP2 MSTORE PUSH1 0x20 ADD SWAP1 DUP2 MSTORE PUSH1 0x20 ADD PUSH1 0x0 KECCAK256 DUP2 SWAP1 SSTORE POP PUSH2 0xB1D DUP3 PUSH1 0x0 DUP1 DUP7 PUSH20 0xFFFFFFFFFFFFFFFFFFFFFFFFFFFFFFFFFFFFFFFF AND PUSH20 0xFFFFFFFFFFFFFFFFFFFFFFFFFFFFFFFFFFFFFFFF AND DUP2 MSTORE PUSH1 0x20 ADD SWAP1 DUP2 MSTORE PUSH1 0x20 ADD PUSH1 0x0 KECCAK256 SLOAD PUSH2 0xC7C SWAP1 SWAP2 SWAP1 PUSH4 0xFFFFFFFF AND JUMP JUMPDEST PUSH1 0x0 DUP1 DUP6 PUSH20 0xFFFFFFFFFFFFFFFFFFFFFFFFFFFFFFFFFFFFFFFF AND PUSH20 0xFFFFFFFFFFFFFFFFFFFFFFFFFFFFFFFFFFFFFFFF AND DUP2 MSTORE PUSH1 0x20 ADD SWAP1 DUP2 MSTORE PUSH1 0x20 ADD PUSH1 0x0 KECCAK256 DUP2 SWAP1 SSTORE POP DUP3 PUSH20 0xFFFFFFFFFFFFFFFFFFFFFFFFFFFFFFFFFFFFFFFF AND CALLER PUSH20 0xFFFFFFFFFFFFFFFFFFFFFFFFFFFFFFFFFFFFFFFF AND PUSH32 0xDDF252AD1BE2C89B69C2B068FC378DAA952BA7F163C4A11628F55A4DF523B3EF DUP5 PUSH1 0x40 MLOAD PUSH2 0xBBC SWAP2 SWAP1 PUSH2 0xEA2 JUMP JUMPDEST PUSH1 0x40 MLOAD DUP1 SWAP2 SUB SWAP1 LOG3 PUSH1 0x1 SWAP1 POP SWAP3 SWAP2 POP POP JUMP JUMPDEST PUSH1 0x0 PUSH1 0x1 PUSH1 0x0 DUP5 PUSH20 0xFFFFFFFFFFFFFFFFFFFFFFFFFFFFFFFFFFFFFFFF AND PUSH20 0xFFFFFFFFFFFFFFFFFFFFFFFFFFFFFFFFFFFFFFFF AND DUP2 MSTORE PUSH1 0x20 ADD SWAP1 DUP2 MSTORE PUSH1 0x20 ADD PUSH1 0x0 KECCAK256 PUSH1 0x0 DUP4 PUSH20 0xFFFFFFFFFFFFFFFFFFFFFFFFFFFFFFFFFFFFFFFF AND PUSH20 0xFFFFFFFFFFFFFFFFFFFFFFFFFFFFFFFFFFFFFFFF AND DUP2 MSTORE PUSH1 0x20 ADD SWAP1 DUP2 MSTORE PUSH1 0x20 ADD PUSH1 0x0 KECCAK256 SLOAD SWAP1 POP SWAP3 SWAP2 POP POP JUMP JUMPDEST PUSH1 0x0 DUP3 DUP3 GT ISZERO PUSH2 0xC68 JUMPI PUSH2 0xC67 PUSH2 0x1006 JUMP JUMPDEST JUMPDEST DUP2 DUP4 PUSH2 0xC74 SWAP2 SWAP1 PUSH2 0xF4A JUMP JUMPDEST SWAP1 POP SWAP3 SWAP2 POP POP JUMP JUMPDEST PUSH1 0x0 DUP1 DUP3 DUP5 PUSH2 0xC8B SWAP2 SWAP1 PUSH2 0xEF4 JUMP JUMPDEST SWAP1 POP DUP4 DUP2 LT ISZERO PUSH2 0xC9E JUMPI PUSH2 0xC9D PUSH2 0x1006 JUMP JUMPDEST JUMPDEST DUP1 SWAP2 POP POP SWAP3 SWAP2 POP POP JUMP JUMPDEST PUSH1 0x0 DUP2 CALLDATALOAD SWAP1 POP PUSH2 0xCB7 DUP2 PUSH2 0x107A JUMP JUMPDEST SWAP3 SWAP2 POP POP JUMP JUMPDEST PUSH1 0x0 DUP2 CALLDATALOAD SWAP1 POP PUSH2 0xCCC DUP2 PUSH2 0x1091 JUMP JUMPDEST SWAP3 SWAP2 POP POP JUMP JUMPDEST PUSH1 0x0 PUSH1 0x20 DUP3 DUP5 SUB SLT ISZERO PUSH2 0xCE8 JUMPI PUSH2 0xCE7 PUSH2 0x1064 JUMP JUMPDEST JUMPDEST PUSH1 0x0 PUSH2 0xCF6 DUP5 DUP3 DUP6 ADD PUSH2 0xCA8 JUMP JUMPDEST SWAP2 POP POP SWAP3 SWAP2 POP POP JUMP JUMPDEST PUSH1 0x0 DUP1 PUSH1 0x40 DUP4 DUP6 SUB SLT ISZERO PUSH2 0xD16 JUMPI PUSH2 0xD15 PUSH2 0x1064 JUMP JUMPDEST JUMPDEST PUSH1 0x0 PUSH2 0xD24 DUP6 DUP3 DUP7 ADD PUSH2 0xCA8 JUMP JUMPDEST SWAP3 POP POP PUSH1 0x20 PUSH2 0xD35 DUP6 DUP3 DUP7 ADD PUSH2 0xCA8 JUMP JUMPDEST SWAP2 POP POP SWAP3 POP SWAP3 SWAP1 POP JUMP JUMPDEST PUSH1 0x0 DUP1 PUSH1 0x0 PUSH1 0x60 DUP5 DUP7 SUB SLT ISZERO PUSH2 0xD58 JUMPI PUSH2 0xD57 PUSH2 0x1064 JUMP JUMPDEST JUMPDEST PUSH1 0x0 PUSH2 0xD66 DUP7 DUP3 DUP8 ADD PUSH2 0xCA8 JUMP JUMPDEST SWAP4 POP POP PUSH1 0x20 PUSH2 0xD77 DUP7 DUP3 DUP8 ADD PUSH2 0xCA8 JUMP JUMPDEST SWAP3 POP POP PUSH1 0x40 PUSH2 0xD88 DUP7 DUP3 DUP8 ADD PUSH2 0xCBD JUMP JUMPDEST SWAP2 POP POP SWAP3 POP SWAP3 POP SWAP3 JUMP JUMPDEST PUSH1 0x0 DUP1 PUSH1 0x40 DUP4 DUP6 SUB SLT ISZERO PUSH2 0xDA9 JUMPI PUSH2 0xDA8 PUSH2 0x1064 JUMP JUMPDEST JUMPDEST PUSH1 0x0 PUSH2 0xDB7 DUP6 DUP3 DUP7 ADD PUSH2 0xCA8 JUMP JUMPDEST SWAP3 POP POP PUSH1 0x20 PUSH2 0xDC8 DUP6 DUP3 DUP7 ADD PUSH2 0xCBD JUMP JUMPDEST SWAP2 POP POP SWAP3 POP SWAP3 SWAP1 POP JUMP JUMPDEST PUSH1 0x0 PUSH1 0x20 DUP3 DUP5 SUB SLT ISZERO PUSH2 0xDE8 JUMPI PUSH2 0xDE7 PUSH2 0x1064 JUMP JUMPDEST JUMPDEST PUSH1 0x0 PUSH2 0xDF6 DUP5 DUP3 DUP6 ADD PUSH2 0xCBD JUMP JUMPDEST SWAP2 POP POP SWAP3 SWAP2 POP POP JUMP JUMPDEST PUSH2 0xE08 DUP2 PUSH2 0xF90 JUMP JUMPDEST DUP3 MSTORE POP POP JUMP JUMPDEST PUSH1 0x0 PUSH2 0xE19 DUP3 PUSH2 0xED8 JUMP JUMPDEST PUSH2 0xE23 DUP2 DUP6 PUSH2 0xEE3 JUMP JUMPDEST SWAP4 POP PUSH2 0xE33 DUP2 DUP6 PUSH1 0x20 DUP7 ADD PUSH2 0xFD3 JUMP JUMPDEST PUSH2 0xE3C DUP2 PUSH2 0x1069 JUMP JUMPDEST DUP5 ADD SWAP2 POP POP SWAP3 SWAP2 POP POP JUMP JUMPDEST PUSH2 0xE50 DUP2 PUSH2 0xFBC JUMP JUMPDEST DUP3 MSTORE POP POP JUMP JUMPDEST PUSH2 0xE5F DUP2 PUSH2 0xFC6 JUMP JUMPDEST DUP3 MSTORE POP POP JUMP JUMPDEST PUSH1 0x0 PUSH1 0x20 DUP3 ADD SWAP1 POP PUSH2 0xE7A PUSH1 0x0 DUP4 ADD DUP5 PUSH2 0xDFF JUMP JUMPDEST SWAP3 SWAP2 POP POP JUMP JUMPDEST PUSH1 0x0 PUSH1 0x20 DUP3 ADD SWAP1 POP DUP2 DUP2 SUB PUSH1 0x0 DUP4 ADD MSTORE PUSH2 0xE9A DUP2 DUP5 PUSH2 0xE0E JUMP JUMPDEST SWAP1 POP SWAP3 SWAP2 POP POP JUMP JUMPDEST PUSH1 0x0 PUSH1 0x20 DUP3 ADD SWAP1 POP PUSH2 0xEB7 PUSH1 0x0 DUP4 ADD DUP5 PUSH2 0xE47 JUMP JUMPDEST SWAP3 SWAP2 POP POP JUMP JUMPDEST PUSH1 0x0 PUSH1 0x20 DUP3 ADD SWAP1 POP PUSH2 0xED2 PUSH1 0x0 DUP4 ADD DUP5 PUSH2 0xE56 JUMP JUMPDEST SWAP3 SWAP2 POP POP JUMP JUMPDEST PUSH1 0x0 DUP2 MLOAD SWAP1 POP SWAP2 SWAP1 POP JUMP JUMPDEST PUSH1 0x0 DUP3 DUP3 MSTORE PUSH1 0x20 DUP3 ADD SWAP1 POP SWAP3 SWAP2 POP POP JUMP JUMPDEST PUSH1 0x0 PUSH2 0xEFF DUP3 PUSH2 0xFBC JUMP JUMPDEST SWAP2 POP PUSH2 0xF0A DUP4 PUSH2 0xFBC JUMP JUMPDEST SWAP3 POP DUP3 PUSH32 0xFFFFFFFFFFFFFFFFFFFFFFFFFFFFFFFFFFFFFFFFFFFFFFFFFFFFFFFFFFFFFFFF SUB DUP3 GT ISZERO PUSH2 0xF3F JUMPI PUSH2 0xF3E PUSH2 0x1035 JUMP JUMPDEST JUMPDEST DUP3 DUP3 ADD SWAP1 POP SWAP3 SWAP2 POP POP JUMP JUMPDEST PUSH1 0x0 PUSH2 0xF55 DUP3 PUSH2 0xFBC JUMP JUMPDEST SWAP2 POP PUSH2 0xF60 DUP4 PUSH2 0xFBC JUMP JUMPDEST SWAP3 POP DUP3 DUP3 LT ISZERO PUSH2 0xF73 JUMPI PUSH2 0xF72 PUSH2 0x1035 JUMP JUMPDEST JUMPDEST DUP3 DUP3 SUB SWAP1 POP SWAP3 SWAP2 POP POP JUMP JUMPDEST PUSH1 0x0 PUSH2 0xF89 DUP3 PUSH2 0xF9C JUMP JUMPDEST SWAP1 POP SWAP2 SWAP1 POP JUMP JUMPDEST PUSH1 0x0 DUP2 ISZERO ISZERO SWAP1 POP SWAP2 SWAP1 POP JUMP JUMPDEST PUSH1 0x0 PUSH20 0xFFFFFFFFFFFFFFFFFFFFFFFFFFFFFFFFFFFFFFFF DUP3 AND SWAP1 POP SWAP2 SWAP1 POP JUMP JUMPDEST PUSH1 0x0 DUP2 SWAP1 POP SWAP2 SWAP1 POP JUMP JUMPDEST PUSH1 0x0 PUSH1 0xFF DUP3 AND SWAP1 POP SWAP2 SWAP1 POP JUMP JUMPDEST PUSH1 0x0 JUMPDEST DUP4 DUP2 LT ISZERO PUSH2 0xFF1 JUMPI DUP1 DUP3 ADD MLOAD DUP2 DUP5 ADD MSTORE PUSH1 0x20 DUP2 ADD SWAP1 POP PUSH2 0xFD6 JUMP JUMPDEST DUP4 DUP2 GT ISZERO PUSH2 0x1000 JUMPI PUSH1 0x0 DUP5 DUP5 ADD MSTORE JUMPDEST POP POP POP POP JUMP JUMPDEST PUSH32 0x4E487B7100000000000000000000000000000000000000000000000000000000 PUSH1 0x0 MSTORE PUSH1 0x1 PUSH1 0x4 MSTORE PUSH1 0x24 PUSH1 0x0 REVERT JUMPDEST PUSH32 0x4E487B7100000000000000000000000000000000000000000000000000000000 PUSH1 0x0 MSTORE PUSH1 0x11 PUSH1 0x4 MSTORE PUSH1 0x24 PUSH1 0x0 REVERT JUMPDEST PUSH1 0x0 DUP1 REVERT JUMPDEST PUSH1 0x0 PUSH1 0x1F NOT PUSH1 0x1F DUP4 ADD AND SWAP1 POP SWAP2 SWAP1 POP JUMP JUMPDEST PUSH2 0x1083 DUP2 PUSH2 0xF7E JUMP JUMPDEST DUP2 EQ PUSH2 0x108E JUMPI PUSH1 0x0 DUP1 REVERT JUMPDEST POP JUMP JUMPDEST PUSH2 0x109A DUP2 PUSH2 0xFBC JUMP JUMPDEST DUP2 EQ PUSH2 0x10A5 JUMPI PUSH1 0x0 DUP1 REVERT JUMPDEST POP JUMP INVALID LOG2 PUSH5 0x6970667358 0x22 SLT KECCAK256 0x4F 0xEE PUSH13 0xCCEDE80284D2212A6FB7A11309 GT PUSH26 0xEDF4965BAFCB5E03DDF5CDBFB15B64736F6C6343000807003300 "
				},
				"gasEstimates": {
					"creation": {
						"codeDepositCost": "624000",
						"executionCost": "infinite",
						"totalCost": "infinite"
					},
					"external": {
						"ComprarTokens(uint256)": "infinite",
						"GenerarTokens(uint256)": "infinite",
						"Mistokens()": "infinite",
						"Pozo()": "infinite",
						"PrecioBoleto()": "2452",
						"TokensDisponibles()": "infinite",
						"contrato()": "2558",
						"owner()": "2514"
					},
					"internal": {
						"PrecioToken(uint256)": "infinite"
					}
				},
				"methodIdentifiers": {
					"ComprarTokens(uint256)": "d1931ccf",
					"GenerarTokens(uint256)": "7c1b38bf",
					"Mistokens()": "2315c54a",
					"Pozo()": "8a8a3eaa",
					"PrecioBoleto()": "27909f27",
					"TokensDisponibles()": "fd889ff5",
					"contrato()": "e1a01e67",
					"owner()": "8da5cb5b"
				}
			},
			"storageLayout": {
				"storage": [
					{
						"astId": 400,
						"contract": "LOTERIA/Loteria.sol:Loteria",
						"label": "token",
						"offset": 0,
						"slot": "0",
						"type": "t_contract(ERC20Basic)393"
					},
					{
						"astId": 402,
						"contract": "LOTERIA/Loteria.sol:Loteria",
						"label": "owner",
						"offset": 0,
						"slot": "1",
						"type": "t_address"
					},
					{
						"astId": 404,
						"contract": "LOTERIA/Loteria.sol:Loteria",
						"label": "contrato",
						"offset": 0,
						"slot": "2",
						"type": "t_address"
					},
					{
						"astId": 407,
						"contract": "LOTERIA/Loteria.sol:Loteria",
						"label": "tokens_creados",
						"offset": 0,
						"slot": "3",
						"type": "t_uint256"
					},
					{
						"astId": 578,
						"contract": "LOTERIA/Loteria.sol:Loteria",
						"label": "PrecioBoleto",
						"offset": 0,
						"slot": "4",
						"type": "t_uint256"
					},
					{
						"astId": 583,
						"contract": "LOTERIA/Loteria.sol:Loteria",
						"label": "idPersona_boletos",
						"offset": 0,
						"slot": "5",
						"type": "t_mapping(t_address,t_array(t_uint256)dyn_storage)"
					},
					{
						"astId": 587,
						"contract": "LOTERIA/Loteria.sol:Loteria",
						"label": "ABN_boleto",
						"offset": 0,
						"slot": "6",
						"type": "t_mapping(t_uint256,t_address)"
					},
					{
						"astId": 590,
						"contract": "LOTERIA/Loteria.sol:Loteria",
						"label": "randNonce",
						"offset": 0,
						"slot": "7",
						"type": "t_uint256"
					},
					{
						"astId": 593,
						"contract": "LOTERIA/Loteria.sol:Loteria",
						"label": "boletos_comprados",
						"offset": 0,
						"slot": "8",
						"type": "t_array(t_uint256)dyn_storage"
					}
				],
				"types": {
					"t_address": {
						"encoding": "inplace",
						"label": "address",
						"numberOfBytes": "20"
					},
					"t_array(t_uint256)dyn_storage": {
						"base": "t_uint256",
						"encoding": "dynamic_array",
						"label": "uint256[]",
						"numberOfBytes": "32"
					},
					"t_contract(ERC20Basic)393": {
						"encoding": "inplace",
						"label": "contract ERC20Basic",
						"numberOfBytes": "20"
					},
					"t_mapping(t_address,t_array(t_uint256)dyn_storage)": {
						"encoding": "mapping",
						"key": "t_address",
						"label": "mapping(address => uint256[])",
						"numberOfBytes": "32",
						"value": "t_array(t_uint256)dyn_storage"
					},
					"t_mapping(t_uint256,t_address)": {
						"encoding": "mapping",
						"key": "t_uint256",
						"label": "mapping(uint256 => address)",
						"numberOfBytes": "32",
						"value": "t_address"
					},
					"t_uint256": {
						"encoding": "inplace",
						"label": "uint256",
						"numberOfBytes": "32"
					}
				}
			},
			"userdoc": {
				"kind": "user",
				"methods": {},
				"version": 1
			}
		}
	}
}